{
	"contracts/crowdfunding/crowdfunding.sol": {
		"Crowdfunding": {
			"abi": [
				{
					"inputs": [],
					"stateMutability": "nonpayable",
					"type": "constructor"
				},
				{
					"inputs": [
						{
							"internalType": "uint256",
							"name": "id",
							"type": "uint256"
						}
					],
					"name": "apoiar",
					"outputs": [],
					"stateMutability": "payable",
					"type": "function"
				},
				{
					"inputs": [
						{
							"internalType": "uint256",
							"name": "idProjeto",
							"type": "uint256"
						},
						{
							"internalType": "string",
							"name": "titulo",
							"type": "string"
						},
						{
							"internalType": "string",
							"name": "descricao",
							"type": "string"
						},
						{
							"internalType": "uint256",
							"name": "valorMeta",
							"type": "uint256"
						}
					],
					"name": "cadastrarMeta",
					"outputs": [],
					"stateMutability": "nonpayable",
					"type": "function"
				},
				{
					"inputs": [
						{
							"internalType": "string",
							"name": "nome",
							"type": "string"
						},
						{
							"internalType": "string",
							"name": "descricao",
							"type": "string"
						},
						{
							"internalType": "uint256",
							"name": "dataFinalizacao",
							"type": "uint256"
						},
						{
							"internalType": "uint256",
							"name": "metaFinanceira",
							"type": "uint256"
						}
					],
					"name": "cadastrarProjeto",
					"outputs": [],
					"stateMutability": "nonpayable",
					"type": "function"
				},
				{
					"inputs": [
						{
							"internalType": "uint256",
							"name": "id",
							"type": "uint256"
						}
					],
					"name": "detalharProjeto",
					"outputs": [
						{
							"internalType": "uint256",
							"name": "_id",
							"type": "uint256"
						},
						{
							"internalType": "string",
							"name": "_nome",
							"type": "string"
						},
						{
							"internalType": "string",
							"name": "_descricao",
							"type": "string"
						},
						{
							"internalType": "uint256",
							"name": "_dataFinalizacao",
							"type": "uint256"
						},
						{
							"internalType": "uint256",
							"name": "_metaFinanceira",
							"type": "uint256"
						},
						{
							"internalType": "uint256",
							"name": "_totalArrecadado",
							"type": "uint256"
						},
						{
							"internalType": "bool",
							"name": "_status",
							"type": "bool"
						},
						{
							"internalType": "address",
							"name": "_donoProjeto",
							"type": "address"
						}
					],
					"stateMutability": "view",
					"type": "function"
				},
				{
					"inputs": [
						{
							"internalType": "uint256",
							"name": "id",
							"type": "uint256"
						}
					],
					"name": "finalizarProjeto",
					"outputs": [],
					"stateMutability": "payable",
					"type": "function"
				},
				{
					"inputs": [
						{
							"internalType": "uint256",
							"name": "idProjeto",
							"type": "uint256"
						}
					],
					"name": "listarMetas",
					"outputs": [
						{
							"internalType": "uint256[]",
							"name": "",
							"type": "uint256[]"
						},
						{
							"internalType": "string[]",
							"name": "",
							"type": "string[]"
						},
						{
							"internalType": "string[]",
							"name": "",
							"type": "string[]"
						},
						{
							"internalType": "uint256[]",
							"name": "",
							"type": "uint256[]"
						}
					],
					"stateMutability": "view",
					"type": "function"
				},
				{
					"inputs": [],
					"name": "listarProjetos",
					"outputs": [
						{
							"internalType": "uint256[]",
							"name": "",
							"type": "uint256[]"
						},
						{
							"internalType": "string[]",
							"name": "",
							"type": "string[]"
						}
					],
					"stateMutability": "view",
					"type": "function"
				}
			],
			"devdoc": {
				"kind": "dev",
				"methods": {},
				"version": 1
			},
			"evm": {
				"assembly": "    /* \"contracts/crowdfunding/crowdfunding.sol\":206:5995  contract Crowdfunding {... */\n  mstore(0x40, 0x80)\n    /* \"contracts/crowdfunding/crowdfunding.sol\":745:747  10 */\n  0x0a\n    /* \"contracts/crowdfunding/crowdfunding.sol\":722:747  uint256 private taxa = 10 */\n  0x01\n  sstore\n    /* \"contracts/crowdfunding/crowdfunding.sol\":836:884  constructor() {... */\n  callvalue\n  dup1\n  iszero\n  tag_1\n  jumpi\n  0x00\n  dup1\n  revert\ntag_1:\n  pop\n    /* \"contracts/crowdfunding/crowdfunding.sol\":867:877  msg.sender */\n  caller\n    /* \"contracts/crowdfunding/crowdfunding.sol\":860:864  dono */\n  0x00\n  dup1\n    /* \"contracts/crowdfunding/crowdfunding.sol\":860:877  dono = msg.sender */\n  0x0100\n  exp\n  dup2\n  sload\n  dup2\n  0xffffffffffffffffffffffffffffffffffffffff\n  mul\n  not\n  and\n  swap1\n  dup4\n  0xffffffffffffffffffffffffffffffffffffffff\n  and\n  mul\n  or\n  swap1\n  sstore\n  pop\n    /* \"contracts/crowdfunding/crowdfunding.sol\":206:5995  contract Crowdfunding {... */\n  dataSize(sub_0)\n  dup1\n  dataOffset(sub_0)\n  0x00\n  codecopy\n  0x00\n  return\nstop\n\nsub_0: assembly {\n        /* \"contracts/crowdfunding/crowdfunding.sol\":206:5995  contract Crowdfunding {... */\n      mstore(0x40, 0x80)\n      jumpi(tag_1, lt(calldatasize, 0x04))\n      shr(0xe0, calldataload(0x00))\n      dup1\n      0x5f71abd8\n      gt\n      tag_9\n      jumpi\n      dup1\n      0x5f71abd8\n      eq\n      tag_5\n      jumpi\n      dup1\n      0x9540642f\n      eq\n      tag_6\n      jumpi\n      dup1\n      0x974a90a5\n      eq\n      tag_7\n      jumpi\n      dup1\n      0xae8f2019\n      eq\n      tag_8\n      jumpi\n      jump(tag_1)\n    tag_9:\n      dup1\n      0x2ea37357\n      eq\n      tag_2\n      jumpi\n      dup1\n      0x59d14eea\n      eq\n      tag_3\n      jumpi\n      dup1\n      0x5d950952\n      eq\n      tag_4\n      jumpi\n    tag_1:\n      0x00\n      dup1\n      revert\n        /* \"contracts/crowdfunding/crowdfunding.sol\":1507:1940  function listarProjetos() public view returns (uint256[] memory, string[] memory) {... */\n    tag_2:\n      callvalue\n      dup1\n      iszero\n      tag_10\n      jumpi\n      0x00\n      dup1\n      revert\n    tag_10:\n      pop\n      tag_11\n      tag_12\n      jump\t// in\n    tag_11:\n      mload(0x40)\n      tag_13\n      swap3\n      swap2\n      swap1\n      tag_14\n      jump\t// in\n    tag_13:\n      mload(0x40)\n      dup1\n      swap2\n      sub\n      swap1\n      return\n        /* \"contracts/crowdfunding/crowdfunding.sol\":890:1501  function cadastrarProjeto(string memory nome, string memory descricao, uint dataFinalizacao, uint metaFinanceira) public {... */\n    tag_3:\n      callvalue\n      dup1\n      iszero\n      tag_15\n      jumpi\n      0x00\n      dup1\n      revert\n    tag_15:\n      pop\n      tag_16\n      0x04\n      dup1\n      calldatasize\n      sub\n      dup2\n      add\n      swap1\n      tag_17\n      swap2\n      swap1\n      tag_18\n      jump\t// in\n    tag_17:\n      tag_19\n      jump\t// in\n    tag_16:\n      stop\n        /* \"contracts/crowdfunding/crowdfunding.sol\":3114:4049  function finalizarProjeto(uint id) public payable {... */\n    tag_4:\n      tag_20\n      0x04\n      dup1\n      calldatasize\n      sub\n      dup2\n      add\n      swap1\n      tag_21\n      swap2\n      swap1\n      tag_22\n      jump\t// in\n    tag_21:\n      tag_23\n      jump\t// in\n    tag_20:\n      stop\n        /* \"contracts/crowdfunding/crowdfunding.sol\":4055:5050  function cadastrarMeta(uint idProjeto, string memory titulo, string memory descricao, uint valorMeta) public {... */\n    tag_5:\n      callvalue\n      dup1\n      iszero\n      tag_24\n      jumpi\n      0x00\n      dup1\n      revert\n    tag_24:\n      pop\n      tag_25\n      0x04\n      dup1\n      calldatasize\n      sub\n      dup2\n      add\n      swap1\n      tag_26\n      swap2\n      swap1\n      tag_27\n      jump\t// in\n    tag_26:\n      tag_28\n      jump\t// in\n    tag_25:\n      stop\n        /* \"contracts/crowdfunding/crowdfunding.sol\":5056:5993  function listarMetas(uint idProjeto) public view returns (uint256[] memory, string[] memory, string[] memory, uint256[] memory) {... */\n    tag_6:\n      callvalue\n      dup1\n      iszero\n      tag_29\n      jumpi\n      0x00\n      dup1\n      revert\n    tag_29:\n      pop\n      tag_30\n      0x04\n      dup1\n      calldatasize\n      sub\n      dup2\n      add\n      swap1\n      tag_31\n      swap2\n      swap1\n      tag_22\n      jump\t// in\n    tag_31:\n      tag_32\n      jump\t// in\n    tag_30:\n      mload(0x40)\n      tag_33\n      swap5\n      swap4\n      swap3\n      swap2\n      swap1\n      tag_34\n      jump\t// in\n    tag_33:\n      mload(0x40)\n      dup1\n      swap2\n      sub\n      swap1\n      return\n        /* \"contracts/crowdfunding/crowdfunding.sol\":1946:2605  function detalharProjeto(uint id) public view returns (uint _id, string memory _nome, string memory _descricao, uint _dataFinalizacao, uint _metaFinanceira, uint _totalArrecadado, bool _status, address _donoProjeto) {... */\n    tag_7:\n      callvalue\n      dup1\n      iszero\n      tag_35\n      jumpi\n      0x00\n      dup1\n      revert\n    tag_35:\n      pop\n      tag_36\n      0x04\n      dup1\n      calldatasize\n      sub\n      dup2\n      add\n      swap1\n      tag_37\n      swap2\n      swap1\n      tag_22\n      jump\t// in\n    tag_37:\n      tag_38\n      jump\t// in\n    tag_36:\n      mload(0x40)\n      tag_39\n      swap9\n      swap8\n      swap7\n      swap6\n      swap5\n      swap4\n      swap3\n      swap2\n      swap1\n      tag_40\n      jump\t// in\n    tag_39:\n      mload(0x40)\n      dup1\n      swap2\n      sub\n      swap1\n      return\n        /* \"contracts/crowdfunding/crowdfunding.sol\":2611:3108  function apoiar(uint id) public payable {... */\n    tag_8:\n      tag_41\n      0x04\n      dup1\n      calldatasize\n      sub\n      dup2\n      add\n      swap1\n      tag_42\n      swap2\n      swap1\n      tag_22\n      jump\t// in\n    tag_42:\n      tag_43\n      jump\t// in\n    tag_41:\n      stop\n        /* \"contracts/crowdfunding/crowdfunding.sol\":1507:1940  function listarProjetos() public view returns (uint256[] memory, string[] memory) {... */\n    tag_12:\n        /* \"contracts/crowdfunding/crowdfunding.sol\":1554:1570  uint256[] memory */\n      0x60\n        /* \"contracts/crowdfunding/crowdfunding.sol\":1572:1587  string[] memory */\n      dup1\n        /* \"contracts/crowdfunding/crowdfunding.sol\":1599:1619  uint256[] memory ids */\n      0x00\n        /* \"contracts/crowdfunding/crowdfunding.sol\":1636:1652  contadorProjetos */\n      sload(0x02)\n        /* \"contracts/crowdfunding/crowdfunding.sol\":1622:1653  new uint256[](contadorProjetos) */\n      0xffffffffffffffff\n      dup2\n      gt\n      iszero\n      tag_45\n      jumpi\n      tag_46\n      tag_47\n      jump\t// in\n    tag_46:\n    tag_45:\n      mload(0x40)\n      swap1\n      dup1\n      dup3\n      mstore\n      dup1\n      0x20\n      mul\n      0x20\n      add\n      dup3\n      add\n      0x40\n      mstore\n      dup1\n      iszero\n      tag_48\n      jumpi\n      dup2\n      0x20\n      add\n      0x20\n      dup3\n      mul\n      dup1\n      calldatasize\n      dup4\n      calldatacopy\n      dup1\n      dup3\n      add\n      swap2\n      pop\n      pop\n      swap1\n      pop\n    tag_48:\n      pop\n        /* \"contracts/crowdfunding/crowdfunding.sol\":1599:1653  uint256[] memory ids = new uint256[](contadorProjetos) */\n      swap1\n      pop\n        /* \"contracts/crowdfunding/crowdfunding.sol\":1663:1684  string[] memory nomes */\n      0x00\n        /* \"contracts/crowdfunding/crowdfunding.sol\":1700:1716  contadorProjetos */\n      sload(0x02)\n        /* \"contracts/crowdfunding/crowdfunding.sol\":1687:1717  new string[](contadorProjetos) */\n      0xffffffffffffffff\n      dup2\n      gt\n      iszero\n      tag_49\n      jumpi\n      tag_50\n      tag_47\n      jump\t// in\n    tag_50:\n    tag_49:\n      mload(0x40)\n      swap1\n      dup1\n      dup3\n      mstore\n      dup1\n      0x20\n      mul\n      0x20\n      add\n      dup3\n      add\n      0x40\n      mstore\n      dup1\n      iszero\n      tag_51\n      jumpi\n      dup2\n      0x20\n      add\n    tag_52:\n      0x60\n      dup2\n      mstore\n      0x20\n      add\n      swap1\n      0x01\n      swap1\n      sub\n      swap1\n      dup2\n      tag_52\n      jumpi\n      swap1\n      pop\n    tag_51:\n      pop\n        /* \"contracts/crowdfunding/crowdfunding.sol\":1663:1717  string[] memory nomes = new string[](contadorProjetos) */\n      swap1\n      pop\n        /* \"contracts/crowdfunding/crowdfunding.sol\":1733:1739  uint i */\n      0x00\n        /* \"contracts/crowdfunding/crowdfunding.sol\":1728:1904  for (uint i = 0; i < contadorProjetos; i++) {... */\n    tag_53:\n        /* \"contracts/crowdfunding/crowdfunding.sol\":1749:1765  contadorProjetos */\n      sload(0x02)\n        /* \"contracts/crowdfunding/crowdfunding.sol\":1745:1746  i */\n      dup2\n        /* \"contracts/crowdfunding/crowdfunding.sol\":1745:1765  i < contadorProjetos */\n      lt\n        /* \"contracts/crowdfunding/crowdfunding.sol\":1728:1904  for (uint i = 0; i < contadorProjetos; i++) {... */\n      iszero\n      tag_54\n      jumpi\n        /* \"contracts/crowdfunding/crowdfunding.sol\":1786:1809  Projeto storage projeto */\n      0x00\n        /* \"contracts/crowdfunding/crowdfunding.sol\":1812:1820  projetos */\n      0x03\n        /* \"contracts/crowdfunding/crowdfunding.sol\":1812:1823  projetos[i] */\n      0x00\n        /* \"contracts/crowdfunding/crowdfunding.sol\":1821:1822  i */\n      dup4\n        /* \"contracts/crowdfunding/crowdfunding.sol\":1812:1823  projetos[i] */\n      dup2\n      mstore\n      0x20\n      add\n      swap1\n      dup2\n      mstore\n      0x20\n      add\n      0x00\n      keccak256\n        /* \"contracts/crowdfunding/crowdfunding.sol\":1786:1823  Projeto storage projeto = projetos[i] */\n      swap1\n      pop\n        /* \"contracts/crowdfunding/crowdfunding.sol\":1846:1853  projeto */\n      dup1\n        /* \"contracts/crowdfunding/crowdfunding.sol\":1846:1856  projeto.id */\n      0x00\n      add\n      sload\n        /* \"contracts/crowdfunding/crowdfunding.sol\":1837:1840  ids */\n      dup5\n        /* \"contracts/crowdfunding/crowdfunding.sol\":1841:1842  i */\n      dup4\n        /* \"contracts/crowdfunding/crowdfunding.sol\":1837:1843  ids[i] */\n      dup2\n      mload\n      dup2\n      lt\n      tag_56\n      jumpi\n      tag_57\n      tag_58\n      jump\t// in\n    tag_57:\n    tag_56:\n      0x20\n      mul\n      0x20\n      add\n      add\n        /* \"contracts/crowdfunding/crowdfunding.sol\":1837:1856  ids[i] = projeto.id */\n      dup2\n      dup2\n      mstore\n      pop\n      pop\n        /* \"contracts/crowdfunding/crowdfunding.sol\":1881:1888  projeto */\n      dup1\n        /* \"contracts/crowdfunding/crowdfunding.sol\":1881:1893  projeto.nome */\n      0x01\n      add\n        /* \"contracts/crowdfunding/crowdfunding.sol\":1870:1893  nomes[i] = projeto.nome */\n      dup1\n      sload\n      tag_59\n      swap1\n      tag_60\n      jump\t// in\n    tag_59:\n      dup1\n      0x1f\n      add\n      0x20\n      dup1\n      swap2\n      div\n      mul\n      0x20\n      add\n      mload(0x40)\n      swap1\n      dup2\n      add\n      0x40\n      mstore\n      dup1\n      swap3\n      swap2\n      swap1\n      dup2\n      dup2\n      mstore\n      0x20\n      add\n      dup3\n      dup1\n      sload\n      tag_61\n      swap1\n      tag_60\n      jump\t// in\n    tag_61:\n      dup1\n      iszero\n      tag_62\n      jumpi\n      dup1\n      0x1f\n      lt\n      tag_63\n      jumpi\n      0x0100\n      dup1\n      dup4\n      sload\n      div\n      mul\n      dup4\n      mstore\n      swap2\n      0x20\n      add\n      swap2\n      jump(tag_62)\n    tag_63:\n      dup3\n      add\n      swap2\n      swap1\n      0x00\n      mstore\n      keccak256(0x00, 0x20)\n      swap1\n    tag_64:\n      dup2\n      sload\n      dup2\n      mstore\n      swap1\n      0x01\n      add\n      swap1\n      0x20\n      add\n      dup1\n      dup4\n      gt\n      tag_64\n      jumpi\n      dup3\n      swap1\n      sub\n      0x1f\n      and\n      dup3\n      add\n      swap2\n    tag_62:\n      pop\n      pop\n      pop\n      pop\n      pop\n        /* \"contracts/crowdfunding/crowdfunding.sol\":1870:1875  nomes */\n      dup4\n        /* \"contracts/crowdfunding/crowdfunding.sol\":1876:1877  i */\n      dup4\n        /* \"contracts/crowdfunding/crowdfunding.sol\":1870:1878  nomes[i] */\n      dup2\n      mload\n      dup2\n      lt\n      tag_65\n      jumpi\n      tag_66\n      tag_58\n      jump\t// in\n    tag_66:\n    tag_65:\n      0x20\n      mul\n      0x20\n      add\n      add\n        /* \"contracts/crowdfunding/crowdfunding.sol\":1870:1893  nomes[i] = projeto.nome */\n      dup2\n      swap1\n      mstore\n      pop\n        /* \"contracts/crowdfunding/crowdfunding.sol\":1772:1904  {... */\n      pop\n        /* \"contracts/crowdfunding/crowdfunding.sol\":1767:1770  i++ */\n      dup1\n      dup1\n      0x01\n      add\n      swap2\n      pop\n      pop\n        /* \"contracts/crowdfunding/crowdfunding.sol\":1728:1904  for (uint i = 0; i < contadorProjetos; i++) {... */\n      jump(tag_53)\n    tag_54:\n      pop\n        /* \"contracts/crowdfunding/crowdfunding.sol\":1922:1925  ids */\n      dup2\n        /* \"contracts/crowdfunding/crowdfunding.sol\":1927:1932  nomes */\n      dup2\n        /* \"contracts/crowdfunding/crowdfunding.sol\":1914:1933  return (ids, nomes) */\n      swap4\n      pop\n      swap4\n      pop\n      pop\n      pop\n        /* \"contracts/crowdfunding/crowdfunding.sol\":1507:1940  function listarProjetos() public view returns (uint256[] memory, string[] memory) {... */\n      swap1\n      swap2\n      jump\t// out\n        /* \"contracts/crowdfunding/crowdfunding.sol\":890:1501  function cadastrarProjeto(string memory nome, string memory descricao, uint dataFinalizacao, uint metaFinanceira) public {... */\n    tag_19:\n        /* \"contracts/crowdfunding/crowdfunding.sol\":1021:1048  Projeto storage novoProjeto */\n      0x00\n        /* \"contracts/crowdfunding/crowdfunding.sol\":1051:1059  projetos */\n      0x03\n        /* \"contracts/crowdfunding/crowdfunding.sol\":1051:1077  projetos[contadorProjetos] */\n      0x00\n        /* \"contracts/crowdfunding/crowdfunding.sol\":1060:1076  contadorProjetos */\n      sload(0x02)\n        /* \"contracts/crowdfunding/crowdfunding.sol\":1051:1077  projetos[contadorProjetos] */\n      dup2\n      mstore\n      0x20\n      add\n      swap1\n      dup2\n      mstore\n      0x20\n      add\n      0x00\n      keccak256\n        /* \"contracts/crowdfunding/crowdfunding.sol\":1021:1077  Projeto storage novoProjeto = projetos[contadorProjetos] */\n      swap1\n      pop\n        /* \"contracts/crowdfunding/crowdfunding.sol\":1104:1120  contadorProjetos */\n      sload(0x02)\n        /* \"contracts/crowdfunding/crowdfunding.sol\":1087:1098  novoProjeto */\n      dup2\n        /* \"contracts/crowdfunding/crowdfunding.sol\":1087:1101  novoProjeto.id */\n      0x00\n      add\n        /* \"contracts/crowdfunding/crowdfunding.sol\":1087:1120  novoProjeto.id = contadorProjetos */\n      dup2\n      swap1\n      sstore\n      pop\n        /* \"contracts/crowdfunding/crowdfunding.sol\":1149:1153  nome */\n      dup5\n        /* \"contracts/crowdfunding/crowdfunding.sol\":1130:1141  novoProjeto */\n      dup2\n        /* \"contracts/crowdfunding/crowdfunding.sol\":1130:1146  novoProjeto.nome */\n      0x01\n      add\n        /* \"contracts/crowdfunding/crowdfunding.sol\":1130:1153  novoProjeto.nome = nome */\n      swap1\n      dup2\n      tag_68\n      swap2\n      swap1\n      tag_69\n      jump\t// in\n    tag_68:\n      pop\n        /* \"contracts/crowdfunding/crowdfunding.sol\":1187:1196  descricao */\n      dup4\n        /* \"contracts/crowdfunding/crowdfunding.sol\":1163:1174  novoProjeto */\n      dup2\n        /* \"contracts/crowdfunding/crowdfunding.sol\":1163:1184  novoProjeto.descricao */\n      0x02\n      add\n        /* \"contracts/crowdfunding/crowdfunding.sol\":1163:1196  novoProjeto.descricao = descricao */\n      swap1\n      dup2\n      tag_70\n      swap2\n      swap1\n      tag_69\n      jump\t// in\n    tag_70:\n      pop\n        /* \"contracts/crowdfunding/crowdfunding.sol\":1236:1251  dataFinalizacao */\n      dup3\n        /* \"contracts/crowdfunding/crowdfunding.sol\":1206:1217  novoProjeto */\n      dup2\n        /* \"contracts/crowdfunding/crowdfunding.sol\":1206:1233  novoProjeto.dataFinalizacao */\n      0x03\n      add\n        /* \"contracts/crowdfunding/crowdfunding.sol\":1206:1251  novoProjeto.dataFinalizacao = dataFinalizacao */\n      dup2\n      swap1\n      sstore\n      pop\n        /* \"contracts/crowdfunding/crowdfunding.sol\":1290:1304  metaFinanceira */\n      dup2\n        /* \"contracts/crowdfunding/crowdfunding.sol\":1261:1272  novoProjeto */\n      dup2\n        /* \"contracts/crowdfunding/crowdfunding.sol\":1261:1287  novoProjeto.metaFinanceira */\n      0x04\n      add\n        /* \"contracts/crowdfunding/crowdfunding.sol\":1261:1304  novoProjeto.metaFinanceira = metaFinanceira */\n      dup2\n      swap1\n      sstore\n      pop\n        /* \"contracts/crowdfunding/crowdfunding.sol\":1344:1345  0 */\n      0x00\n        /* \"contracts/crowdfunding/crowdfunding.sol\":1314:1325  novoProjeto */\n      dup2\n        /* \"contracts/crowdfunding/crowdfunding.sol\":1314:1341  novoProjeto.totalArrecadado */\n      0x05\n      add\n        /* \"contracts/crowdfunding/crowdfunding.sol\":1314:1345  novoProjeto.totalArrecadado = 0 */\n      dup2\n      swap1\n      sstore\n      pop\n        /* \"contracts/crowdfunding/crowdfunding.sol\":1376:1381  false */\n      0x00\n        /* \"contracts/crowdfunding/crowdfunding.sol\":1355:1366  novoProjeto */\n      dup2\n        /* \"contracts/crowdfunding/crowdfunding.sol\":1355:1373  novoProjeto.status */\n      0x06\n      add\n      0x00\n        /* \"contracts/crowdfunding/crowdfunding.sol\":1355:1381  novoProjeto.status = false */\n      0x0100\n      exp\n      dup2\n      sload\n      dup2\n      0xff\n      mul\n      not\n      and\n      swap1\n      dup4\n      iszero\n      iszero\n      mul\n      or\n      swap1\n      sstore\n      pop\n        /* \"contracts/crowdfunding/crowdfunding.sol\":1417:1427  msg.sender */\n      caller\n        /* \"contracts/crowdfunding/crowdfunding.sol\":1391:1402  novoProjeto */\n      dup2\n        /* \"contracts/crowdfunding/crowdfunding.sol\":1391:1414  novoProjeto.donoProjeto */\n      0x06\n      add\n      0x01\n        /* \"contracts/crowdfunding/crowdfunding.sol\":1391:1427  novoProjeto.donoProjeto = msg.sender */\n      0x0100\n      exp\n      dup2\n      sload\n      dup2\n      0xffffffffffffffffffffffffffffffffffffffff\n      mul\n      not\n      and\n      swap1\n      dup4\n      0xffffffffffffffffffffffffffffffffffffffff\n      and\n      mul\n      or\n      swap1\n      sstore\n      pop\n        /* \"contracts/crowdfunding/crowdfunding.sol\":1465:1466  0 */\n      0x00\n        /* \"contracts/crowdfunding/crowdfunding.sol\":1437:1448  novoProjeto */\n      dup2\n        /* \"contracts/crowdfunding/crowdfunding.sol\":1437:1462  novoProjeto.contadorMetas */\n      0x08\n      add\n        /* \"contracts/crowdfunding/crowdfunding.sol\":1437:1466  novoProjeto.contadorMetas = 0 */\n      dup2\n      swap1\n      sstore\n      pop\n        /* \"contracts/crowdfunding/crowdfunding.sol\":1476:1492  contadorProjetos */\n      0x02\n      0x00\n        /* \"contracts/crowdfunding/crowdfunding.sol\":1476:1494  contadorProjetos++ */\n      dup2\n      sload\n      dup1\n      swap3\n      swap2\n      swap1\n      tag_71\n      swap1\n      tag_72\n      jump\t// in\n    tag_71:\n      swap2\n      swap1\n      pop\n      sstore\n      pop\n        /* \"contracts/crowdfunding/crowdfunding.sol\":1011:1501  {... */\n      pop\n        /* \"contracts/crowdfunding/crowdfunding.sol\":890:1501  function cadastrarProjeto(string memory nome, string memory descricao, uint dataFinalizacao, uint metaFinanceira) public {... */\n      pop\n      pop\n      pop\n      pop\n      jump\t// out\n        /* \"contracts/crowdfunding/crowdfunding.sol\":3114:4049  function finalizarProjeto(uint id) public payable {... */\n    tag_23:\n        /* \"contracts/crowdfunding/crowdfunding.sol\":3174:3197  Projeto storage projeto */\n      0x00\n        /* \"contracts/crowdfunding/crowdfunding.sol\":3200:3208  projetos */\n      0x03\n        /* \"contracts/crowdfunding/crowdfunding.sol\":3200:3212  projetos[id] */\n      0x00\n        /* \"contracts/crowdfunding/crowdfunding.sol\":3209:3211  id */\n      dup4\n        /* \"contracts/crowdfunding/crowdfunding.sol\":3200:3212  projetos[id] */\n      dup2\n      mstore\n      0x20\n      add\n      swap1\n      dup2\n      mstore\n      0x20\n      add\n      0x00\n      keccak256\n        /* \"contracts/crowdfunding/crowdfunding.sol\":3174:3212  Projeto storage projeto = projetos[id] */\n      swap1\n      pop\n        /* \"contracts/crowdfunding/crowdfunding.sol\":3270:3271  0 */\n      0x00\n        /* \"contracts/crowdfunding/crowdfunding.sol\":3239:3272  projeto.donoProjeto != address(0) */\n      0xffffffffffffffffffffffffffffffffffffffff\n      and\n        /* \"contracts/crowdfunding/crowdfunding.sol\":3239:3246  projeto */\n      dup2\n        /* \"contracts/crowdfunding/crowdfunding.sol\":3239:3258  projeto.donoProjeto */\n      0x06\n      add\n      0x01\n      swap1\n      sload\n      swap1\n      0x0100\n      exp\n      swap1\n      div\n      0xffffffffffffffffffffffffffffffffffffffff\n      and\n        /* \"contracts/crowdfunding/crowdfunding.sol\":3239:3272  projeto.donoProjeto != address(0) */\n      0xffffffffffffffffffffffffffffffffffffffff\n      and\n      sub\n        /* \"contracts/crowdfunding/crowdfunding.sol\":3231:3330  require(projeto.donoProjeto != address(0), \"Erro ID do projeto invalido ou projeto nao encontrado\") */\n      tag_74\n      jumpi\n      mload(0x40)\n      0x08c379a000000000000000000000000000000000000000000000000000000000\n      dup2\n      mstore\n      0x04\n      add\n      tag_75\n      swap1\n      tag_76\n      jump\t// in\n    tag_75:\n      mload(0x40)\n      dup1\n      swap2\n      sub\n      swap1\n      revert\n    tag_74:\n        /* \"contracts/crowdfunding/crowdfunding.sol\":3371:3381  msg.sender */\n      caller\n        /* \"contracts/crowdfunding/crowdfunding.sol\":3348:3381  projeto.donoProjeto == msg.sender */\n      0xffffffffffffffffffffffffffffffffffffffff\n      and\n        /* \"contracts/crowdfunding/crowdfunding.sol\":3348:3355  projeto */\n      dup2\n        /* \"contracts/crowdfunding/crowdfunding.sol\":3348:3367  projeto.donoProjeto */\n      0x06\n      add\n      0x01\n      swap1\n      sload\n      swap1\n      0x0100\n      exp\n      swap1\n      div\n      0xffffffffffffffffffffffffffffffffffffffff\n      and\n        /* \"contracts/crowdfunding/crowdfunding.sol\":3348:3381  projeto.donoProjeto == msg.sender */\n      0xffffffffffffffffffffffffffffffffffffffff\n      and\n      eq\n        /* \"contracts/crowdfunding/crowdfunding.sol\":3340:3441  require(projeto.donoProjeto == msg.sender, \"Erro Somente o dono do projeto pode finalizar o projeto\") */\n      tag_77\n      jumpi\n      mload(0x40)\n      0x08c379a000000000000000000000000000000000000000000000000000000000\n      dup2\n      mstore\n      0x04\n      add\n      tag_78\n      swap1\n      tag_79\n      jump\t// in\n    tag_78:\n      mload(0x40)\n      dup1\n      swap2\n      sub\n      swap1\n      revert\n    tag_77:\n        /* \"contracts/crowdfunding/crowdfunding.sol\":3460:3467  projeto */\n      dup1\n        /* \"contracts/crowdfunding/crowdfunding.sol\":3460:3474  projeto.status */\n      0x06\n      add\n      0x00\n      swap1\n      sload\n      swap1\n      0x0100\n      exp\n      swap1\n      div\n      0xff\n      and\n        /* \"contracts/crowdfunding/crowdfunding.sol\":3459:3474  !projeto.status */\n      iszero\n        /* \"contracts/crowdfunding/crowdfunding.sol\":3451:3514  require(!projeto.status, \"Erro Este projeto ja foi finalizado\") */\n      tag_80\n      jumpi\n      mload(0x40)\n      0x08c379a000000000000000000000000000000000000000000000000000000000\n      dup2\n      mstore\n      0x04\n      add\n      tag_81\n      swap1\n      tag_82\n      jump\t// in\n    tag_81:\n      mload(0x40)\n      dup1\n      swap2\n      sub\n      swap1\n      revert\n    tag_80:\n        /* \"contracts/crowdfunding/crowdfunding.sol\":3559:3566  projeto */\n      dup1\n        /* \"contracts/crowdfunding/crowdfunding.sol\":3559:3581  projeto.metaFinanceira */\n      0x04\n      add\n      sload\n        /* \"contracts/crowdfunding/crowdfunding.sol\":3532:3539  projeto */\n      dup2\n        /* \"contracts/crowdfunding/crowdfunding.sol\":3532:3555  projeto.totalArrecadado */\n      0x05\n      add\n      sload\n        /* \"contracts/crowdfunding/crowdfunding.sol\":3532:3581  projeto.totalArrecadado >= projeto.metaFinanceira */\n      lt\n      iszero\n        /* \"contracts/crowdfunding/crowdfunding.sol\":3532:3626  projeto.totalArrecadado >= projeto.metaFinanceira || block.timestamp > projeto.dataFinalizacao */\n      dup1\n      tag_83\n      jumpi\n      pop\n        /* \"contracts/crowdfunding/crowdfunding.sol\":3603:3610  projeto */\n      dup1\n        /* \"contracts/crowdfunding/crowdfunding.sol\":3603:3626  projeto.dataFinalizacao */\n      0x03\n      add\n      sload\n        /* \"contracts/crowdfunding/crowdfunding.sol\":3585:3600  block.timestamp */\n      timestamp\n        /* \"contracts/crowdfunding/crowdfunding.sol\":3585:3626  block.timestamp > projeto.dataFinalizacao */\n      gt\n        /* \"contracts/crowdfunding/crowdfunding.sol\":3532:3626  projeto.totalArrecadado >= projeto.metaFinanceira || block.timestamp > projeto.dataFinalizacao */\n    tag_83:\n        /* \"contracts/crowdfunding/crowdfunding.sol\":3524:3750  require(projeto.totalArrecadado >= projeto.metaFinanceira || block.timestamp > projeto.dataFinalizacao, \"Erro Projeto nao pode ser finalizado ate que a meta financeira seja atingida ou a data de finalizacao seja ultrapassada\") */\n      tag_84\n      jumpi\n      mload(0x40)\n      0x08c379a000000000000000000000000000000000000000000000000000000000\n      dup2\n      mstore\n      0x04\n      add\n      tag_85\n      swap1\n      tag_86\n      jump\t// in\n    tag_85:\n      mload(0x40)\n      dup1\n      swap2\n      sub\n      swap1\n      revert\n    tag_84:\n        /* \"contracts/crowdfunding/crowdfunding.sol\":3761:3783  uint valorDonoContrato */\n      0x00\n        /* \"contracts/crowdfunding/crowdfunding.sol\":3812:3816  taxa */\n      sload(0x01)\n        /* \"contracts/crowdfunding/crowdfunding.sol\":3786:3793  projeto */\n      dup3\n        /* \"contracts/crowdfunding/crowdfunding.sol\":3786:3809  projeto.totalArrecadado */\n      0x05\n      add\n      sload\n        /* \"contracts/crowdfunding/crowdfunding.sol\":3786:3816  projeto.totalArrecadado / taxa */\n      tag_87\n      swap2\n      swap1\n      tag_88\n      jump\t// in\n    tag_87:\n        /* \"contracts/crowdfunding/crowdfunding.sol\":3761:3816  uint valorDonoContrato = projeto.totalArrecadado / taxa */\n      swap1\n      pop\n        /* \"contracts/crowdfunding/crowdfunding.sol\":3826:3847  uint valorDonoProjeto */\n      0x00\n        /* \"contracts/crowdfunding/crowdfunding.sol\":3876:3893  valorDonoContrato */\n      dup2\n        /* \"contracts/crowdfunding/crowdfunding.sol\":3850:3857  projeto */\n      dup4\n        /* \"contracts/crowdfunding/crowdfunding.sol\":3850:3873  projeto.totalArrecadado */\n      0x05\n      add\n      sload\n        /* \"contracts/crowdfunding/crowdfunding.sol\":3850:3893  projeto.totalArrecadado - valorDonoContrato */\n      tag_89\n      swap2\n      swap1\n      tag_90\n      jump\t// in\n    tag_89:\n        /* \"contracts/crowdfunding/crowdfunding.sol\":3826:3893  uint valorDonoProjeto = projeto.totalArrecadado - valorDonoContrato */\n      swap1\n      pop\n        /* \"contracts/crowdfunding/crowdfunding.sol\":3912:3916  dono */\n      0x00\n      dup1\n      sload\n      swap1\n      0x0100\n      exp\n      swap1\n      div\n      0xffffffffffffffffffffffffffffffffffffffff\n      and\n        /* \"contracts/crowdfunding/crowdfunding.sol\":3904:3926  payable(dono).transfer */\n      0xffffffffffffffffffffffffffffffffffffffff\n      and\n        /* \"contracts/crowdfunding/crowdfunding.sol\":3904:3945  payable(dono).transfer(valorDonoContrato) */\n      0x08fc\n        /* \"contracts/crowdfunding/crowdfunding.sol\":3927:3944  valorDonoContrato */\n      dup4\n        /* \"contracts/crowdfunding/crowdfunding.sol\":3904:3945  payable(dono).transfer(valorDonoContrato) */\n      swap1\n      dup2\n      iszero\n      mul\n      swap1\n      mload(0x40)\n      0x00\n      mload(0x40)\n      dup1\n      dup4\n      sub\n      dup2\n      dup6\n      dup9\n      dup9\n      call\n      swap4\n      pop\n      pop\n      pop\n      pop\n      iszero\n      dup1\n      iszero\n      tag_92\n      jumpi\n      returndatasize\n      0x00\n      dup1\n      returndatacopy\n      revert(0x00, returndatasize)\n    tag_92:\n      pop\n        /* \"contracts/crowdfunding/crowdfunding.sol\":3963:3970  projeto */\n      dup3\n        /* \"contracts/crowdfunding/crowdfunding.sol\":3963:3982  projeto.donoProjeto */\n      0x06\n      add\n      0x01\n      swap1\n      sload\n      swap1\n      0x0100\n      exp\n      swap1\n      div\n      0xffffffffffffffffffffffffffffffffffffffff\n      and\n        /* \"contracts/crowdfunding/crowdfunding.sol\":3955:3992  payable(projeto.donoProjeto).transfer */\n      0xffffffffffffffffffffffffffffffffffffffff\n      and\n        /* \"contracts/crowdfunding/crowdfunding.sol\":3955:4010  payable(projeto.donoProjeto).transfer(valorDonoProjeto) */\n      0x08fc\n        /* \"contracts/crowdfunding/crowdfunding.sol\":3993:4009  valorDonoProjeto */\n      dup3\n        /* \"contracts/crowdfunding/crowdfunding.sol\":3955:4010  payable(projeto.donoProjeto).transfer(valorDonoProjeto) */\n      swap1\n      dup2\n      iszero\n      mul\n      swap1\n      mload(0x40)\n      0x00\n      mload(0x40)\n      dup1\n      dup4\n      sub\n      dup2\n      dup6\n      dup9\n      dup9\n      call\n      swap4\n      pop\n      pop\n      pop\n      pop\n      iszero\n      dup1\n      iszero\n      tag_94\n      jumpi\n      returndatasize\n      0x00\n      dup1\n      returndatacopy\n      revert(0x00, returndatasize)\n    tag_94:\n      pop\n        /* \"contracts/crowdfunding/crowdfunding.sol\":4038:4042  true */\n      0x01\n        /* \"contracts/crowdfunding/crowdfunding.sol\":4021:4028  projeto */\n      dup4\n        /* \"contracts/crowdfunding/crowdfunding.sol\":4021:4035  projeto.status */\n      0x06\n      add\n      0x00\n        /* \"contracts/crowdfunding/crowdfunding.sol\":4021:4042  projeto.status = true */\n      0x0100\n      exp\n      dup2\n      sload\n      dup2\n      0xff\n      mul\n      not\n      and\n      swap1\n      dup4\n      iszero\n      iszero\n      mul\n      or\n      swap1\n      sstore\n      pop\n        /* \"contracts/crowdfunding/crowdfunding.sol\":3164:4049  {... */\n      pop\n      pop\n      pop\n        /* \"contracts/crowdfunding/crowdfunding.sol\":3114:4049  function finalizarProjeto(uint id) public payable {... */\n      pop\n      jump\t// out\n        /* \"contracts/crowdfunding/crowdfunding.sol\":4055:5050  function cadastrarMeta(uint idProjeto, string memory titulo, string memory descricao, uint valorMeta) public {... */\n    tag_28:\n        /* \"contracts/crowdfunding/crowdfunding.sol\":4174:4197  Projeto storage projeto */\n      0x00\n        /* \"contracts/crowdfunding/crowdfunding.sol\":4201:4209  projetos */\n      0x03\n        /* \"contracts/crowdfunding/crowdfunding.sol\":4201:4220  projetos[idProjeto] */\n      0x00\n        /* \"contracts/crowdfunding/crowdfunding.sol\":4210:4219  idProjeto */\n      dup7\n        /* \"contracts/crowdfunding/crowdfunding.sol\":4201:4220  projetos[idProjeto] */\n      dup2\n      mstore\n      0x20\n      add\n      swap1\n      dup2\n      mstore\n      0x20\n      add\n      0x00\n      keccak256\n        /* \"contracts/crowdfunding/crowdfunding.sol\":4174:4220  Projeto storage projeto =  projetos[idProjeto] */\n      swap1\n      pop\n        /* \"contracts/crowdfunding/crowdfunding.sol\":4269:4270  0 */\n      0x00\n        /* \"contracts/crowdfunding/crowdfunding.sol\":4238:4271  projeto.donoProjeto != address(0) */\n      0xffffffffffffffffffffffffffffffffffffffff\n      and\n        /* \"contracts/crowdfunding/crowdfunding.sol\":4238:4245  projeto */\n      dup2\n        /* \"contracts/crowdfunding/crowdfunding.sol\":4238:4257  projeto.donoProjeto */\n      0x06\n      add\n      0x01\n      swap1\n      sload\n      swap1\n      0x0100\n      exp\n      swap1\n      div\n      0xffffffffffffffffffffffffffffffffffffffff\n      and\n        /* \"contracts/crowdfunding/crowdfunding.sol\":4238:4271  projeto.donoProjeto != address(0) */\n      0xffffffffffffffffffffffffffffffffffffffff\n      and\n      sub\n        /* \"contracts/crowdfunding/crowdfunding.sol\":4230:4329  require(projeto.donoProjeto != address(0), \"Erro ID do projeto invalido ou projeto nao encontrado\") */\n      tag_96\n      jumpi\n      mload(0x40)\n      0x08c379a000000000000000000000000000000000000000000000000000000000\n      dup2\n      mstore\n      0x04\n      add\n      tag_97\n      swap1\n      tag_76\n      jump\t// in\n    tag_97:\n      mload(0x40)\n      dup1\n      swap2\n      sub\n      swap1\n      revert\n    tag_96:\n        /* \"contracts/crowdfunding/crowdfunding.sol\":4370:4380  msg.sender */\n      caller\n        /* \"contracts/crowdfunding/crowdfunding.sol\":4347:4380  projeto.donoProjeto == msg.sender */\n      0xffffffffffffffffffffffffffffffffffffffff\n      and\n        /* \"contracts/crowdfunding/crowdfunding.sol\":4347:4354  projeto */\n      dup2\n        /* \"contracts/crowdfunding/crowdfunding.sol\":4347:4366  projeto.donoProjeto */\n      0x06\n      add\n      0x01\n      swap1\n      sload\n      swap1\n      0x0100\n      exp\n      swap1\n      div\n      0xffffffffffffffffffffffffffffffffffffffff\n      and\n        /* \"contracts/crowdfunding/crowdfunding.sol\":4347:4380  projeto.donoProjeto == msg.sender */\n      0xffffffffffffffffffffffffffffffffffffffff\n      and\n      eq\n        /* \"contracts/crowdfunding/crowdfunding.sol\":4339:4436  require(projeto.donoProjeto == msg.sender, \"Erro Somente o dono do projeto pode adicionar metas\") */\n      tag_98\n      jumpi\n      mload(0x40)\n      0x08c379a000000000000000000000000000000000000000000000000000000000\n      dup2\n      mstore\n      0x04\n      add\n      tag_99\n      swap1\n      tag_100\n      jump\t// in\n    tag_99:\n      mload(0x40)\n      dup1\n      swap2\n      sub\n      swap1\n      revert\n    tag_98:\n        /* \"contracts/crowdfunding/crowdfunding.sol\":4455:4462  projeto */\n      dup1\n        /* \"contracts/crowdfunding/crowdfunding.sol\":4455:4469  projeto.status */\n      0x06\n      add\n      0x00\n      swap1\n      sload\n      swap1\n      0x0100\n      exp\n      swap1\n      div\n      0xff\n      and\n        /* \"contracts/crowdfunding/crowdfunding.sol\":4454:4469  !projeto.status */\n      iszero\n        /* \"contracts/crowdfunding/crowdfunding.sol\":4446:4533  require(!projeto.status, \"Erro Nao e possivel adicionar metas a um projeto finalizado\") */\n      tag_101\n      jumpi\n      mload(0x40)\n      0x08c379a000000000000000000000000000000000000000000000000000000000\n      dup2\n      mstore\n      0x04\n      add\n      tag_102\n      swap1\n      tag_103\n      jump\t// in\n    tag_102:\n      mload(0x40)\n      dup1\n      swap2\n      sub\n      swap1\n      revert\n    tag_101:\n        /* \"contracts/crowdfunding/crowdfunding.sol\":4569:4576  projeto */\n      dup1\n        /* \"contracts/crowdfunding/crowdfunding.sol\":4569:4592  projeto.dataFinalizacao */\n      0x03\n      add\n      sload\n        /* \"contracts/crowdfunding/crowdfunding.sol\":4551:4566  block.timestamp */\n      timestamp\n        /* \"contracts/crowdfunding/crowdfunding.sol\":4551:4592  block.timestamp < projeto.dataFinalizacao */\n      lt\n        /* \"contracts/crowdfunding/crowdfunding.sol\":4543:4650  require(block.timestamp < projeto.dataFinalizacao, \"Erro Metas so podem ser adicionadas a projetos ativos\") */\n      tag_104\n      jumpi\n      mload(0x40)\n      0x08c379a000000000000000000000000000000000000000000000000000000000\n      dup2\n      mstore\n      0x04\n      add\n      tag_105\n      swap1\n      tag_106\n      jump\t// in\n    tag_105:\n      mload(0x40)\n      dup1\n      swap2\n      sub\n      swap1\n      revert\n    tag_104:\n        /* \"contracts/crowdfunding/crowdfunding.sol\":4681:4688  projeto */\n      dup1\n        /* \"contracts/crowdfunding/crowdfunding.sol\":4681:4703  projeto.metaFinanceira */\n      0x04\n      add\n      sload\n        /* \"contracts/crowdfunding/crowdfunding.sol\":4668:4677  valorMeta */\n      dup3\n        /* \"contracts/crowdfunding/crowdfunding.sol\":4668:4703  valorMeta <= projeto.metaFinanceira */\n      gt\n      iszero\n        /* \"contracts/crowdfunding/crowdfunding.sol\":4660:4778  require(valorMeta <= projeto.metaFinanceira, \"Erro Valor da meta nao pode exceder a meta financeira total do projeto\") */\n      tag_107\n      jumpi\n      mload(0x40)\n      0x08c379a000000000000000000000000000000000000000000000000000000000\n      dup2\n      mstore\n      0x04\n      add\n      tag_108\n      swap1\n      tag_109\n      jump\t// in\n    tag_108:\n      mload(0x40)\n      dup1\n      swap2\n      sub\n      swap1\n      revert\n    tag_107:\n        /* \"contracts/crowdfunding/crowdfunding.sol\":4788:4809  Meta storage novaMeta */\n      0x00\n        /* \"contracts/crowdfunding/crowdfunding.sol\":4812:4819  projeto */\n      dup2\n        /* \"contracts/crowdfunding/crowdfunding.sol\":4812:4825  projeto.metas */\n      0x09\n      add\n        /* \"contracts/crowdfunding/crowdfunding.sol\":4812:4848  projeto.metas[projeto.contadorMetas] */\n      0x00\n        /* \"contracts/crowdfunding/crowdfunding.sol\":4826:4833  projeto */\n      dup4\n        /* \"contracts/crowdfunding/crowdfunding.sol\":4826:4847  projeto.contadorMetas */\n      0x08\n      add\n      sload\n        /* \"contracts/crowdfunding/crowdfunding.sol\":4812:4848  projeto.metas[projeto.contadorMetas] */\n      dup2\n      mstore\n      0x20\n      add\n      swap1\n      dup2\n      mstore\n      0x20\n      add\n      0x00\n      keccak256\n        /* \"contracts/crowdfunding/crowdfunding.sol\":4788:4848  Meta storage novaMeta = projeto.metas[projeto.contadorMetas] */\n      swap1\n      pop\n        /* \"contracts/crowdfunding/crowdfunding.sol\":4872:4879  projeto */\n      dup2\n        /* \"contracts/crowdfunding/crowdfunding.sol\":4872:4893  projeto.contadorMetas */\n      0x08\n      add\n      sload\n        /* \"contracts/crowdfunding/crowdfunding.sol\":4858:4866  novaMeta */\n      dup2\n        /* \"contracts/crowdfunding/crowdfunding.sol\":4858:4869  novaMeta.id */\n      0x00\n      add\n        /* \"contracts/crowdfunding/crowdfunding.sol\":4858:4893  novaMeta.id = projeto.contadorMetas */\n      dup2\n      swap1\n      sstore\n      pop\n        /* \"contracts/crowdfunding/crowdfunding.sol\":4921:4927  titulo */\n      dup5\n        /* \"contracts/crowdfunding/crowdfunding.sol\":4903:4911  novaMeta */\n      dup2\n        /* \"contracts/crowdfunding/crowdfunding.sol\":4903:4918  novaMeta.titulo */\n      0x01\n      add\n        /* \"contracts/crowdfunding/crowdfunding.sol\":4903:4927  novaMeta.titulo = titulo */\n      swap1\n      dup2\n      tag_110\n      swap2\n      swap1\n      tag_69\n      jump\t// in\n    tag_110:\n      pop\n        /* \"contracts/crowdfunding/crowdfunding.sol\":4958:4967  descricao */\n      dup4\n        /* \"contracts/crowdfunding/crowdfunding.sol\":4937:4945  novaMeta */\n      dup2\n        /* \"contracts/crowdfunding/crowdfunding.sol\":4937:4955  novaMeta.descricao */\n      0x02\n      add\n        /* \"contracts/crowdfunding/crowdfunding.sol\":4937:4967  novaMeta.descricao = descricao */\n      swap1\n      dup2\n      tag_111\n      swap2\n      swap1\n      tag_69\n      jump\t// in\n    tag_111:\n      pop\n        /* \"contracts/crowdfunding/crowdfunding.sol\":4998:5007  valorMeta */\n      dup3\n        /* \"contracts/crowdfunding/crowdfunding.sol\":4977:4985  novaMeta */\n      dup2\n        /* \"contracts/crowdfunding/crowdfunding.sol\":4977:4995  novaMeta.valorMeta */\n      0x03\n      add\n        /* \"contracts/crowdfunding/crowdfunding.sol\":4977:5007  novaMeta.valorMeta = valorMeta */\n      dup2\n      swap1\n      sstore\n      pop\n        /* \"contracts/crowdfunding/crowdfunding.sol\":5042:5043  1 */\n      0x01\n        /* \"contracts/crowdfunding/crowdfunding.sol\":5017:5024  projeto */\n      dup3\n        /* \"contracts/crowdfunding/crowdfunding.sol\":5017:5038  projeto.contadorMetas */\n      0x08\n      add\n      0x00\n        /* \"contracts/crowdfunding/crowdfunding.sol\":5017:5043  projeto.contadorMetas += 1 */\n      dup3\n      dup3\n      sload\n      tag_112\n      swap2\n      swap1\n      tag_113\n      jump\t// in\n    tag_112:\n      swap3\n      pop\n      pop\n      dup2\n      swap1\n      sstore\n      pop\n        /* \"contracts/crowdfunding/crowdfunding.sol\":4164:5050  {... */\n      pop\n      pop\n        /* \"contracts/crowdfunding/crowdfunding.sol\":4055:5050  function cadastrarMeta(uint idProjeto, string memory titulo, string memory descricao, uint valorMeta) public {... */\n      pop\n      pop\n      pop\n      pop\n      jump\t// out\n        /* \"contracts/crowdfunding/crowdfunding.sol\":5056:5993  function listarMetas(uint idProjeto) public view returns (uint256[] memory, string[] memory, string[] memory, uint256[] memory) {... */\n    tag_32:\n        /* \"contracts/crowdfunding/crowdfunding.sol\":5114:5130  uint256[] memory */\n      0x60\n        /* \"contracts/crowdfunding/crowdfunding.sol\":5132:5147  string[] memory */\n      dup1\n        /* \"contracts/crowdfunding/crowdfunding.sol\":5149:5164  string[] memory */\n      0x60\n        /* \"contracts/crowdfunding/crowdfunding.sol\":5166:5182  uint256[] memory */\n      dup1\n        /* \"contracts/crowdfunding/crowdfunding.sol\":5194:5217  Projeto storage projeto */\n      0x00\n        /* \"contracts/crowdfunding/crowdfunding.sol\":5221:5229  projetos */\n      0x03\n        /* \"contracts/crowdfunding/crowdfunding.sol\":5221:5240  projetos[idProjeto] */\n      0x00\n        /* \"contracts/crowdfunding/crowdfunding.sol\":5230:5239  idProjeto */\n      dup8\n        /* \"contracts/crowdfunding/crowdfunding.sol\":5221:5240  projetos[idProjeto] */\n      dup2\n      mstore\n      0x20\n      add\n      swap1\n      dup2\n      mstore\n      0x20\n      add\n      0x00\n      keccak256\n        /* \"contracts/crowdfunding/crowdfunding.sol\":5194:5240  Projeto storage projeto =  projetos[idProjeto] */\n      swap1\n      pop\n        /* \"contracts/crowdfunding/crowdfunding.sol\":5289:5290  0 */\n      0x00\n        /* \"contracts/crowdfunding/crowdfunding.sol\":5258:5291  projeto.donoProjeto != address(0) */\n      0xffffffffffffffffffffffffffffffffffffffff\n      and\n        /* \"contracts/crowdfunding/crowdfunding.sol\":5258:5265  projeto */\n      dup2\n        /* \"contracts/crowdfunding/crowdfunding.sol\":5258:5277  projeto.donoProjeto */\n      0x06\n      add\n      0x01\n      swap1\n      sload\n      swap1\n      0x0100\n      exp\n      swap1\n      div\n      0xffffffffffffffffffffffffffffffffffffffff\n      and\n        /* \"contracts/crowdfunding/crowdfunding.sol\":5258:5291  projeto.donoProjeto != address(0) */\n      0xffffffffffffffffffffffffffffffffffffffff\n      and\n      sub\n        /* \"contracts/crowdfunding/crowdfunding.sol\":5250:5349  require(projeto.donoProjeto != address(0), \"Erro ID do projeto invalido ou projeto nao encontrado\") */\n      tag_115\n      jumpi\n      mload(0x40)\n      0x08c379a000000000000000000000000000000000000000000000000000000000\n      dup2\n      mstore\n      0x04\n      add\n      tag_116\n      swap1\n      tag_76\n      jump\t// in\n    tag_116:\n      mload(0x40)\n      dup1\n      swap2\n      sub\n      swap1\n      revert\n    tag_115:\n        /* \"contracts/crowdfunding/crowdfunding.sol\":5359:5379  uint quantidadeMetas */\n      0x00\n        /* \"contracts/crowdfunding/crowdfunding.sol\":5382:5389  projeto */\n      dup2\n        /* \"contracts/crowdfunding/crowdfunding.sol\":5382:5403  projeto.contadorMetas */\n      0x08\n      add\n      sload\n        /* \"contracts/crowdfunding/crowdfunding.sol\":5359:5403  uint quantidadeMetas = projeto.contadorMetas */\n      swap1\n      pop\n        /* \"contracts/crowdfunding/crowdfunding.sol\":5413:5433  uint256[] memory ids */\n      0x00\n        /* \"contracts/crowdfunding/crowdfunding.sol\":5450:5465  quantidadeMetas */\n      dup2\n        /* \"contracts/crowdfunding/crowdfunding.sol\":5436:5466  new uint256[](quantidadeMetas) */\n      0xffffffffffffffff\n      dup2\n      gt\n      iszero\n      tag_117\n      jumpi\n      tag_118\n      tag_47\n      jump\t// in\n    tag_118:\n    tag_117:\n      mload(0x40)\n      swap1\n      dup1\n      dup3\n      mstore\n      dup1\n      0x20\n      mul\n      0x20\n      add\n      dup3\n      add\n      0x40\n      mstore\n      dup1\n      iszero\n      tag_119\n      jumpi\n      dup2\n      0x20\n      add\n      0x20\n      dup3\n      mul\n      dup1\n      calldatasize\n      dup4\n      calldatacopy\n      dup1\n      dup3\n      add\n      swap2\n      pop\n      pop\n      swap1\n      pop\n    tag_119:\n      pop\n        /* \"contracts/crowdfunding/crowdfunding.sol\":5413:5466  uint256[] memory ids = new uint256[](quantidadeMetas) */\n      swap1\n      pop\n        /* \"contracts/crowdfunding/crowdfunding.sol\":5476:5499  string[] memory titulos */\n      0x00\n        /* \"contracts/crowdfunding/crowdfunding.sol\":5515:5530  quantidadeMetas */\n      dup3\n        /* \"contracts/crowdfunding/crowdfunding.sol\":5502:5531  new string[](quantidadeMetas) */\n      0xffffffffffffffff\n      dup2\n      gt\n      iszero\n      tag_120\n      jumpi\n      tag_121\n      tag_47\n      jump\t// in\n    tag_121:\n    tag_120:\n      mload(0x40)\n      swap1\n      dup1\n      dup3\n      mstore\n      dup1\n      0x20\n      mul\n      0x20\n      add\n      dup3\n      add\n      0x40\n      mstore\n      dup1\n      iszero\n      tag_122\n      jumpi\n      dup2\n      0x20\n      add\n    tag_123:\n      0x60\n      dup2\n      mstore\n      0x20\n      add\n      swap1\n      0x01\n      swap1\n      sub\n      swap1\n      dup2\n      tag_123\n      jumpi\n      swap1\n      pop\n    tag_122:\n      pop\n        /* \"contracts/crowdfunding/crowdfunding.sol\":5476:5531  string[] memory titulos = new string[](quantidadeMetas) */\n      swap1\n      pop\n        /* \"contracts/crowdfunding/crowdfunding.sol\":5541:5567  string[] memory descricoes */\n      0x00\n        /* \"contracts/crowdfunding/crowdfunding.sol\":5583:5598  quantidadeMetas */\n      dup4\n        /* \"contracts/crowdfunding/crowdfunding.sol\":5570:5599  new string[](quantidadeMetas) */\n      0xffffffffffffffff\n      dup2\n      gt\n      iszero\n      tag_124\n      jumpi\n      tag_125\n      tag_47\n      jump\t// in\n    tag_125:\n    tag_124:\n      mload(0x40)\n      swap1\n      dup1\n      dup3\n      mstore\n      dup1\n      0x20\n      mul\n      0x20\n      add\n      dup3\n      add\n      0x40\n      mstore\n      dup1\n      iszero\n      tag_126\n      jumpi\n      dup2\n      0x20\n      add\n    tag_127:\n      0x60\n      dup2\n      mstore\n      0x20\n      add\n      swap1\n      0x01\n      swap1\n      sub\n      swap1\n      dup2\n      tag_127\n      jumpi\n      swap1\n      pop\n    tag_126:\n      pop\n        /* \"contracts/crowdfunding/crowdfunding.sol\":5541:5599  string[] memory descricoes = new string[](quantidadeMetas) */\n      swap1\n      pop\n        /* \"contracts/crowdfunding/crowdfunding.sol\":5609:5633  uint256[] memory valores */\n      0x00\n        /* \"contracts/crowdfunding/crowdfunding.sol\":5650:5665  quantidadeMetas */\n      dup5\n        /* \"contracts/crowdfunding/crowdfunding.sol\":5636:5666  new uint256[](quantidadeMetas) */\n      0xffffffffffffffff\n      dup2\n      gt\n      iszero\n      tag_128\n      jumpi\n      tag_129\n      tag_47\n      jump\t// in\n    tag_129:\n    tag_128:\n      mload(0x40)\n      swap1\n      dup1\n      dup3\n      mstore\n      dup1\n      0x20\n      mul\n      0x20\n      add\n      dup3\n      add\n      0x40\n      mstore\n      dup1\n      iszero\n      tag_130\n      jumpi\n      dup2\n      0x20\n      add\n      0x20\n      dup3\n      mul\n      dup1\n      calldatasize\n      dup4\n      calldatacopy\n      dup1\n      dup3\n      add\n      swap2\n      pop\n      pop\n      swap1\n      pop\n    tag_130:\n      pop\n        /* \"contracts/crowdfunding/crowdfunding.sol\":5609:5666  uint256[] memory valores = new uint256[](quantidadeMetas) */\n      swap1\n      pop\n        /* \"contracts/crowdfunding/crowdfunding.sol\":5682:5688  uint i */\n      0x00\n        /* \"contracts/crowdfunding/crowdfunding.sol\":5677:5934  for (uint i = 0; i < quantidadeMetas; i++) {... */\n    tag_131:\n        /* \"contracts/crowdfunding/crowdfunding.sol\":5698:5713  quantidadeMetas */\n      dup6\n        /* \"contracts/crowdfunding/crowdfunding.sol\":5694:5695  i */\n      dup2\n        /* \"contracts/crowdfunding/crowdfunding.sol\":5694:5713  i < quantidadeMetas */\n      lt\n        /* \"contracts/crowdfunding/crowdfunding.sol\":5677:5934  for (uint i = 0; i < quantidadeMetas; i++) {... */\n      iszero\n      tag_132\n      jumpi\n        /* \"contracts/crowdfunding/crowdfunding.sol\":5734:5751  Meta storage meta */\n      0x00\n        /* \"contracts/crowdfunding/crowdfunding.sol\":5754:5761  projeto */\n      dup8\n        /* \"contracts/crowdfunding/crowdfunding.sol\":5754:5767  projeto.metas */\n      0x09\n      add\n        /* \"contracts/crowdfunding/crowdfunding.sol\":5754:5770  projeto.metas[i] */\n      0x00\n        /* \"contracts/crowdfunding/crowdfunding.sol\":5768:5769  i */\n      dup4\n        /* \"contracts/crowdfunding/crowdfunding.sol\":5754:5770  projeto.metas[i] */\n      dup2\n      mstore\n      0x20\n      add\n      swap1\n      dup2\n      mstore\n      0x20\n      add\n      0x00\n      keccak256\n        /* \"contracts/crowdfunding/crowdfunding.sol\":5734:5770  Meta storage meta = projeto.metas[i] */\n      swap1\n      pop\n        /* \"contracts/crowdfunding/crowdfunding.sol\":5793:5797  meta */\n      dup1\n        /* \"contracts/crowdfunding/crowdfunding.sol\":5793:5800  meta.id */\n      0x00\n      add\n      sload\n        /* \"contracts/crowdfunding/crowdfunding.sol\":5784:5787  ids */\n      dup7\n        /* \"contracts/crowdfunding/crowdfunding.sol\":5788:5789  i */\n      dup4\n        /* \"contracts/crowdfunding/crowdfunding.sol\":5784:5790  ids[i] */\n      dup2\n      mload\n      dup2\n      lt\n      tag_134\n      jumpi\n      tag_135\n      tag_58\n      jump\t// in\n    tag_135:\n    tag_134:\n      0x20\n      mul\n      0x20\n      add\n      add\n        /* \"contracts/crowdfunding/crowdfunding.sol\":5784:5800  ids[i] = meta.id */\n      dup2\n      dup2\n      mstore\n      pop\n      pop\n        /* \"contracts/crowdfunding/crowdfunding.sol\":5827:5831  meta */\n      dup1\n        /* \"contracts/crowdfunding/crowdfunding.sol\":5827:5838  meta.titulo */\n      0x01\n      add\n        /* \"contracts/crowdfunding/crowdfunding.sol\":5814:5838  titulos[i] = meta.titulo */\n      dup1\n      sload\n      tag_136\n      swap1\n      tag_60\n      jump\t// in\n    tag_136:\n      dup1\n      0x1f\n      add\n      0x20\n      dup1\n      swap2\n      div\n      mul\n      0x20\n      add\n      mload(0x40)\n      swap1\n      dup2\n      add\n      0x40\n      mstore\n      dup1\n      swap3\n      swap2\n      swap1\n      dup2\n      dup2\n      mstore\n      0x20\n      add\n      dup3\n      dup1\n      sload\n      tag_137\n      swap1\n      tag_60\n      jump\t// in\n    tag_137:\n      dup1\n      iszero\n      tag_138\n      jumpi\n      dup1\n      0x1f\n      lt\n      tag_139\n      jumpi\n      0x0100\n      dup1\n      dup4\n      sload\n      div\n      mul\n      dup4\n      mstore\n      swap2\n      0x20\n      add\n      swap2\n      jump(tag_138)\n    tag_139:\n      dup3\n      add\n      swap2\n      swap1\n      0x00\n      mstore\n      keccak256(0x00, 0x20)\n      swap1\n    tag_140:\n      dup2\n      sload\n      dup2\n      mstore\n      swap1\n      0x01\n      add\n      swap1\n      0x20\n      add\n      dup1\n      dup4\n      gt\n      tag_140\n      jumpi\n      dup3\n      swap1\n      sub\n      0x1f\n      and\n      dup3\n      add\n      swap2\n    tag_138:\n      pop\n      pop\n      pop\n      pop\n      pop\n        /* \"contracts/crowdfunding/crowdfunding.sol\":5814:5821  titulos */\n      dup6\n        /* \"contracts/crowdfunding/crowdfunding.sol\":5822:5823  i */\n      dup4\n        /* \"contracts/crowdfunding/crowdfunding.sol\":5814:5824  titulos[i] */\n      dup2\n      mload\n      dup2\n      lt\n      tag_141\n      jumpi\n      tag_142\n      tag_58\n      jump\t// in\n    tag_142:\n    tag_141:\n      0x20\n      mul\n      0x20\n      add\n      add\n        /* \"contracts/crowdfunding/crowdfunding.sol\":5814:5838  titulos[i] = meta.titulo */\n      dup2\n      swap1\n      mstore\n      pop\n        /* \"contracts/crowdfunding/crowdfunding.sol\":5868:5872  meta */\n      dup1\n        /* \"contracts/crowdfunding/crowdfunding.sol\":5868:5882  meta.descricao */\n      0x02\n      add\n        /* \"contracts/crowdfunding/crowdfunding.sol\":5852:5882  descricoes[i] = meta.descricao */\n      dup1\n      sload\n      tag_143\n      swap1\n      tag_60\n      jump\t// in\n    tag_143:\n      dup1\n      0x1f\n      add\n      0x20\n      dup1\n      swap2\n      div\n      mul\n      0x20\n      add\n      mload(0x40)\n      swap1\n      dup2\n      add\n      0x40\n      mstore\n      dup1\n      swap3\n      swap2\n      swap1\n      dup2\n      dup2\n      mstore\n      0x20\n      add\n      dup3\n      dup1\n      sload\n      tag_144\n      swap1\n      tag_60\n      jump\t// in\n    tag_144:\n      dup1\n      iszero\n      tag_145\n      jumpi\n      dup1\n      0x1f\n      lt\n      tag_146\n      jumpi\n      0x0100\n      dup1\n      dup4\n      sload\n      div\n      mul\n      dup4\n      mstore\n      swap2\n      0x20\n      add\n      swap2\n      jump(tag_145)\n    tag_146:\n      dup3\n      add\n      swap2\n      swap1\n      0x00\n      mstore\n      keccak256(0x00, 0x20)\n      swap1\n    tag_147:\n      dup2\n      sload\n      dup2\n      mstore\n      swap1\n      0x01\n      add\n      swap1\n      0x20\n      add\n      dup1\n      dup4\n      gt\n      tag_147\n      jumpi\n      dup3\n      swap1\n      sub\n      0x1f\n      and\n      dup3\n      add\n      swap2\n    tag_145:\n      pop\n      pop\n      pop\n      pop\n      pop\n        /* \"contracts/crowdfunding/crowdfunding.sol\":5852:5862  descricoes */\n      dup5\n        /* \"contracts/crowdfunding/crowdfunding.sol\":5863:5864  i */\n      dup4\n        /* \"contracts/crowdfunding/crowdfunding.sol\":5852:5865  descricoes[i] */\n      dup2\n      mload\n      dup2\n      lt\n      tag_148\n      jumpi\n      tag_149\n      tag_58\n      jump\t// in\n    tag_149:\n    tag_148:\n      0x20\n      mul\n      0x20\n      add\n      add\n        /* \"contracts/crowdfunding/crowdfunding.sol\":5852:5882  descricoes[i] = meta.descricao */\n      dup2\n      swap1\n      mstore\n      pop\n        /* \"contracts/crowdfunding/crowdfunding.sol\":5909:5913  meta */\n      dup1\n        /* \"contracts/crowdfunding/crowdfunding.sol\":5909:5923  meta.valorMeta */\n      0x03\n      add\n      sload\n        /* \"contracts/crowdfunding/crowdfunding.sol\":5896:5903  valores */\n      dup4\n        /* \"contracts/crowdfunding/crowdfunding.sol\":5904:5905  i */\n      dup4\n        /* \"contracts/crowdfunding/crowdfunding.sol\":5896:5906  valores[i] */\n      dup2\n      mload\n      dup2\n      lt\n      tag_150\n      jumpi\n      tag_151\n      tag_58\n      jump\t// in\n    tag_151:\n    tag_150:\n      0x20\n      mul\n      0x20\n      add\n      add\n        /* \"contracts/crowdfunding/crowdfunding.sol\":5896:5923  valores[i] = meta.valorMeta */\n      dup2\n      dup2\n      mstore\n      pop\n      pop\n        /* \"contracts/crowdfunding/crowdfunding.sol\":5720:5934  {... */\n      pop\n        /* \"contracts/crowdfunding/crowdfunding.sol\":5715:5718  i++ */\n      dup1\n      dup1\n      0x01\n      add\n      swap2\n      pop\n      pop\n        /* \"contracts/crowdfunding/crowdfunding.sol\":5677:5934  for (uint i = 0; i < quantidadeMetas; i++) {... */\n      jump(tag_131)\n    tag_132:\n      pop\n        /* \"contracts/crowdfunding/crowdfunding.sol\":5952:5955  ids */\n      dup4\n        /* \"contracts/crowdfunding/crowdfunding.sol\":5957:5964  titulos */\n      dup4\n        /* \"contracts/crowdfunding/crowdfunding.sol\":5966:5976  descricoes */\n      dup4\n        /* \"contracts/crowdfunding/crowdfunding.sol\":5978:5985  valores */\n      dup4\n        /* \"contracts/crowdfunding/crowdfunding.sol\":5944:5986  return (ids, titulos, descricoes, valores) */\n      swap10\n      pop\n      swap10\n      pop\n      swap10\n      pop\n      swap10\n      pop\n      pop\n      pop\n      pop\n      pop\n      pop\n      pop\n        /* \"contracts/crowdfunding/crowdfunding.sol\":5056:5993  function listarMetas(uint idProjeto) public view returns (uint256[] memory, string[] memory, string[] memory, uint256[] memory) {... */\n      swap2\n      swap4\n      pop\n      swap2\n      swap4\n      jump\t// out\n        /* \"contracts/crowdfunding/crowdfunding.sol\":1946:2605  function detalharProjeto(uint id) public view returns (uint _id, string memory _nome, string memory _descricao, uint _dataFinalizacao, uint _metaFinanceira, uint _totalArrecadado, bool _status, address _donoProjeto) {... */\n    tag_38:\n        /* \"contracts/crowdfunding/crowdfunding.sol\":2001:2009  uint _id */\n      0x00\n        /* \"contracts/crowdfunding/crowdfunding.sol\":2011:2030  string memory _nome */\n      0x60\n        /* \"contracts/crowdfunding/crowdfunding.sol\":2032:2056  string memory _descricao */\n      dup1\n        /* \"contracts/crowdfunding/crowdfunding.sol\":2058:2079  uint _dataFinalizacao */\n      0x00\n        /* \"contracts/crowdfunding/crowdfunding.sol\":2081:2101  uint _metaFinanceira */\n      dup1\n        /* \"contracts/crowdfunding/crowdfunding.sol\":2103:2124  uint _totalArrecadado */\n      0x00\n        /* \"contracts/crowdfunding/crowdfunding.sol\":2126:2138  bool _status */\n      dup1\n        /* \"contracts/crowdfunding/crowdfunding.sol\":2140:2160  address _donoProjeto */\n      0x00\n        /* \"contracts/crowdfunding/crowdfunding.sol\":2172:2195  Projeto storage projeto */\n      dup1\n        /* \"contracts/crowdfunding/crowdfunding.sol\":2198:2206  projetos */\n      0x03\n        /* \"contracts/crowdfunding/crowdfunding.sol\":2198:2210  projetos[id] */\n      0x00\n        /* \"contracts/crowdfunding/crowdfunding.sol\":2207:2209  id */\n      dup12\n        /* \"contracts/crowdfunding/crowdfunding.sol\":2198:2210  projetos[id] */\n      dup2\n      mstore\n      0x20\n      add\n      swap1\n      dup2\n      mstore\n      0x20\n      add\n      0x00\n      keccak256\n        /* \"contracts/crowdfunding/crowdfunding.sol\":2172:2210  Projeto storage projeto = projetos[id] */\n      swap1\n      pop\n        /* \"contracts/crowdfunding/crowdfunding.sol\":2259:2260  0 */\n      0x00\n        /* \"contracts/crowdfunding/crowdfunding.sol\":2228:2261  projeto.donoProjeto != address(0) */\n      0xffffffffffffffffffffffffffffffffffffffff\n      and\n        /* \"contracts/crowdfunding/crowdfunding.sol\":2228:2235  projeto */\n      dup2\n        /* \"contracts/crowdfunding/crowdfunding.sol\":2228:2247  projeto.donoProjeto */\n      0x06\n      add\n      0x01\n      swap1\n      sload\n      swap1\n      0x0100\n      exp\n      swap1\n      div\n      0xffffffffffffffffffffffffffffffffffffffff\n      and\n        /* \"contracts/crowdfunding/crowdfunding.sol\":2228:2261  projeto.donoProjeto != address(0) */\n      0xffffffffffffffffffffffffffffffffffffffff\n      and\n      sub\n        /* \"contracts/crowdfunding/crowdfunding.sol\":2220:2319  require(projeto.donoProjeto != address(0), \"Erro ID do projeto invalido ou projeto nao encontrado\") */\n      tag_153\n      jumpi\n      mload(0x40)\n      0x08c379a000000000000000000000000000000000000000000000000000000000\n      dup2\n      mstore\n      0x04\n      add\n      tag_154\n      swap1\n      tag_76\n      jump\t// in\n    tag_154:\n      mload(0x40)\n      dup1\n      swap2\n      sub\n      swap1\n      revert\n    tag_153:\n        /* \"contracts/crowdfunding/crowdfunding.sol\":2350:2357  projeto */\n      dup1\n        /* \"contracts/crowdfunding/crowdfunding.sol\":2350:2360  projeto.id */\n      0x00\n      add\n      sload\n        /* \"contracts/crowdfunding/crowdfunding.sol\":2374:2381  projeto */\n      dup2\n        /* \"contracts/crowdfunding/crowdfunding.sol\":2374:2386  projeto.nome */\n      0x01\n      add\n        /* \"contracts/crowdfunding/crowdfunding.sol\":2400:2407  projeto */\n      dup3\n        /* \"contracts/crowdfunding/crowdfunding.sol\":2400:2417  projeto.descricao */\n      0x02\n      add\n        /* \"contracts/crowdfunding/crowdfunding.sol\":2431:2438  projeto */\n      dup4\n        /* \"contracts/crowdfunding/crowdfunding.sol\":2431:2454  projeto.dataFinalizacao */\n      0x03\n      add\n      sload\n        /* \"contracts/crowdfunding/crowdfunding.sol\":2468:2475  projeto */\n      dup5\n        /* \"contracts/crowdfunding/crowdfunding.sol\":2468:2490  projeto.metaFinanceira */\n      0x04\n      add\n      sload\n        /* \"contracts/crowdfunding/crowdfunding.sol\":2504:2511  projeto */\n      dup6\n        /* \"contracts/crowdfunding/crowdfunding.sol\":2504:2527  projeto.totalArrecadado */\n      0x05\n      add\n      sload\n        /* \"contracts/crowdfunding/crowdfunding.sol\":2541:2548  projeto */\n      dup7\n        /* \"contracts/crowdfunding/crowdfunding.sol\":2541:2555  projeto.status */\n      0x06\n      add\n      0x00\n      swap1\n      sload\n      swap1\n      0x0100\n      exp\n      swap1\n      div\n      0xff\n      and\n        /* \"contracts/crowdfunding/crowdfunding.sol\":2569:2576  projeto */\n      dup8\n        /* \"contracts/crowdfunding/crowdfunding.sol\":2569:2588  projeto.donoProjeto */\n      0x06\n      add\n      0x01\n      swap1\n      sload\n      swap1\n      0x0100\n      exp\n      swap1\n      div\n      0xffffffffffffffffffffffffffffffffffffffff\n      and\n        /* \"contracts/crowdfunding/crowdfunding.sol\":2329:2598  return (... */\n      dup7\n      dup1\n      sload\n      tag_155\n      swap1\n      tag_60\n      jump\t// in\n    tag_155:\n      dup1\n      0x1f\n      add\n      0x20\n      dup1\n      swap2\n      div\n      mul\n      0x20\n      add\n      mload(0x40)\n      swap1\n      dup2\n      add\n      0x40\n      mstore\n      dup1\n      swap3\n      swap2\n      swap1\n      dup2\n      dup2\n      mstore\n      0x20\n      add\n      dup3\n      dup1\n      sload\n      tag_156\n      swap1\n      tag_60\n      jump\t// in\n    tag_156:\n      dup1\n      iszero\n      tag_157\n      jumpi\n      dup1\n      0x1f\n      lt\n      tag_158\n      jumpi\n      0x0100\n      dup1\n      dup4\n      sload\n      div\n      mul\n      dup4\n      mstore\n      swap2\n      0x20\n      add\n      swap2\n      jump(tag_157)\n    tag_158:\n      dup3\n      add\n      swap2\n      swap1\n      0x00\n      mstore\n      keccak256(0x00, 0x20)\n      swap1\n    tag_159:\n      dup2\n      sload\n      dup2\n      mstore\n      swap1\n      0x01\n      add\n      swap1\n      0x20\n      add\n      dup1\n      dup4\n      gt\n      tag_159\n      jumpi\n      dup3\n      swap1\n      sub\n      0x1f\n      and\n      dup3\n      add\n      swap2\n    tag_157:\n      pop\n      pop\n      pop\n      pop\n      pop\n      swap7\n      pop\n      dup6\n      dup1\n      sload\n      tag_160\n      swap1\n      tag_60\n      jump\t// in\n    tag_160:\n      dup1\n      0x1f\n      add\n      0x20\n      dup1\n      swap2\n      div\n      mul\n      0x20\n      add\n      mload(0x40)\n      swap1\n      dup2\n      add\n      0x40\n      mstore\n      dup1\n      swap3\n      swap2\n      swap1\n      dup2\n      dup2\n      mstore\n      0x20\n      add\n      dup3\n      dup1\n      sload\n      tag_161\n      swap1\n      tag_60\n      jump\t// in\n    tag_161:\n      dup1\n      iszero\n      tag_162\n      jumpi\n      dup1\n      0x1f\n      lt\n      tag_163\n      jumpi\n      0x0100\n      dup1\n      dup4\n      sload\n      div\n      mul\n      dup4\n      mstore\n      swap2\n      0x20\n      add\n      swap2\n      jump(tag_162)\n    tag_163:\n      dup3\n      add\n      swap2\n      swap1\n      0x00\n      mstore\n      keccak256(0x00, 0x20)\n      swap1\n    tag_164:\n      dup2\n      sload\n      dup2\n      mstore\n      swap1\n      0x01\n      add\n      swap1\n      0x20\n      add\n      dup1\n      dup4\n      gt\n      tag_164\n      jumpi\n      dup3\n      swap1\n      sub\n      0x1f\n      and\n      dup3\n      add\n      swap2\n    tag_162:\n      pop\n      pop\n      pop\n      pop\n      pop\n      swap6\n      pop\n      swap9\n      pop\n      swap9\n      pop\n      swap9\n      pop\n      swap9\n      pop\n      swap9\n      pop\n      swap9\n      pop\n      swap9\n      pop\n      swap9\n      pop\n      pop\n        /* \"contracts/crowdfunding/crowdfunding.sol\":1946:2605  function detalharProjeto(uint id) public view returns (uint _id, string memory _nome, string memory _descricao, uint _dataFinalizacao, uint _metaFinanceira, uint _totalArrecadado, bool _status, address _donoProjeto) {... */\n      swap2\n      swap4\n      swap6\n      swap8\n      pop\n      swap2\n      swap4\n      swap6\n      swap8\n      jump\t// out\n        /* \"contracts/crowdfunding/crowdfunding.sol\":2611:3108  function apoiar(uint id) public payable {... */\n    tag_43:\n        /* \"contracts/crowdfunding/crowdfunding.sol\":2661:2684  Projeto storage projeto */\n      0x00\n        /* \"contracts/crowdfunding/crowdfunding.sol\":2687:2695  projetos */\n      0x03\n        /* \"contracts/crowdfunding/crowdfunding.sol\":2687:2699  projetos[id] */\n      0x00\n        /* \"contracts/crowdfunding/crowdfunding.sol\":2696:2698  id */\n      dup4\n        /* \"contracts/crowdfunding/crowdfunding.sol\":2687:2699  projetos[id] */\n      dup2\n      mstore\n      0x20\n      add\n      swap1\n      dup2\n      mstore\n      0x20\n      add\n      0x00\n      keccak256\n        /* \"contracts/crowdfunding/crowdfunding.sol\":2661:2699  Projeto storage projeto = projetos[id] */\n      swap1\n      pop\n        /* \"contracts/crowdfunding/crowdfunding.sol\":2748:2749  0 */\n      0x00\n        /* \"contracts/crowdfunding/crowdfunding.sol\":2717:2750  projeto.donoProjeto != address(0) */\n      0xffffffffffffffffffffffffffffffffffffffff\n      and\n        /* \"contracts/crowdfunding/crowdfunding.sol\":2717:2724  projeto */\n      dup2\n        /* \"contracts/crowdfunding/crowdfunding.sol\":2717:2736  projeto.donoProjeto */\n      0x06\n      add\n      0x01\n      swap1\n      sload\n      swap1\n      0x0100\n      exp\n      swap1\n      div\n      0xffffffffffffffffffffffffffffffffffffffff\n      and\n        /* \"contracts/crowdfunding/crowdfunding.sol\":2717:2750  projeto.donoProjeto != address(0) */\n      0xffffffffffffffffffffffffffffffffffffffff\n      and\n      sub\n        /* \"contracts/crowdfunding/crowdfunding.sol\":2709:2808  require(projeto.donoProjeto != address(0), \"Erro ID do projeto invalido ou projeto nao encontrado\") */\n      tag_166\n      jumpi\n      mload(0x40)\n      0x08c379a000000000000000000000000000000000000000000000000000000000\n      dup2\n      mstore\n      0x04\n      add\n      tag_167\n      swap1\n      tag_76\n      jump\t// in\n    tag_167:\n      mload(0x40)\n      dup1\n      swap2\n      sub\n      swap1\n      revert\n    tag_166:\n        /* \"contracts/crowdfunding/crowdfunding.sol\":2827:2834  projeto */\n      dup1\n        /* \"contracts/crowdfunding/crowdfunding.sol\":2827:2841  projeto.status */\n      0x06\n      add\n      0x00\n      swap1\n      sload\n      swap1\n      0x0100\n      exp\n      swap1\n      div\n      0xff\n      and\n        /* \"contracts/crowdfunding/crowdfunding.sol\":2826:2841  !projeto.status */\n      iszero\n        /* \"contracts/crowdfunding/crowdfunding.sol\":2818:2895  require(!projeto.status, \"Erro Nao eh possivel apoiar um projeto finalizado\") */\n      tag_168\n      jumpi\n      mload(0x40)\n      0x08c379a000000000000000000000000000000000000000000000000000000000\n      dup2\n      mstore\n      0x04\n      add\n      tag_169\n      swap1\n      tag_170\n      jump\t// in\n    tag_169:\n      mload(0x40)\n      dup1\n      swap2\n      sub\n      swap1\n      revert\n    tag_168:\n        /* \"contracts/crowdfunding/crowdfunding.sol\":2931:2938  projeto */\n      dup1\n        /* \"contracts/crowdfunding/crowdfunding.sol\":2931:2954  projeto.dataFinalizacao */\n      0x03\n      add\n      sload\n        /* \"contracts/crowdfunding/crowdfunding.sol\":2913:2928  block.timestamp */\n      timestamp\n        /* \"contracts/crowdfunding/crowdfunding.sol\":2913:2954  block.timestamp < projeto.dataFinalizacao */\n      lt\n        /* \"contracts/crowdfunding/crowdfunding.sol\":2905:3001  require(block.timestamp < projeto.dataFinalizacao, \"Erro So eh possivel apoiar projetos ativos\") */\n      tag_171\n      jumpi\n      mload(0x40)\n      0x08c379a000000000000000000000000000000000000000000000000000000000\n      dup2\n      mstore\n      0x04\n      add\n      tag_172\n      swap1\n      tag_173\n      jump\t// in\n    tag_172:\n      mload(0x40)\n      dup1\n      swap2\n      sub\n      swap1\n      revert\n    tag_171:\n        /* \"contracts/crowdfunding/crowdfunding.sol\":3039:3048  msg.value */\n      callvalue\n        /* \"contracts/crowdfunding/crowdfunding.sol\":3012:3019  projeto */\n      dup2\n        /* \"contracts/crowdfunding/crowdfunding.sol\":3012:3035  projeto.totalArrecadado */\n      0x05\n      add\n      0x00\n        /* \"contracts/crowdfunding/crowdfunding.sol\":3012:3048  projeto.totalArrecadado += msg.value */\n      dup3\n      dup3\n      sload\n      tag_174\n      swap2\n      swap1\n      tag_113\n      jump\t// in\n    tag_174:\n      swap3\n      pop\n      pop\n      dup2\n      swap1\n      sstore\n      pop\n        /* \"contracts/crowdfunding/crowdfunding.sol\":3092:3101  msg.value */\n      callvalue\n        /* \"contracts/crowdfunding/crowdfunding.sol\":3058:3065  projeto */\n      dup2\n        /* \"contracts/crowdfunding/crowdfunding.sol\":3058:3076  projeto.apoiadores */\n      0x07\n      add\n        /* \"contracts/crowdfunding/crowdfunding.sol\":3058:3088  projeto.apoiadores[msg.sender] */\n      0x00\n        /* \"contracts/crowdfunding/crowdfunding.sol\":3077:3087  msg.sender */\n      caller\n        /* \"contracts/crowdfunding/crowdfunding.sol\":3058:3088  projeto.apoiadores[msg.sender] */\n      0xffffffffffffffffffffffffffffffffffffffff\n      and\n      0xffffffffffffffffffffffffffffffffffffffff\n      and\n      dup2\n      mstore\n      0x20\n      add\n      swap1\n      dup2\n      mstore\n      0x20\n      add\n      0x00\n      keccak256\n      0x00\n        /* \"contracts/crowdfunding/crowdfunding.sol\":3058:3101  projeto.apoiadores[msg.sender] += msg.value */\n      dup3\n      dup3\n      sload\n      tag_175\n      swap2\n      swap1\n      tag_113\n      jump\t// in\n    tag_175:\n      swap3\n      pop\n      pop\n      dup2\n      swap1\n      sstore\n      pop\n        /* \"contracts/crowdfunding/crowdfunding.sol\":2651:3108  {... */\n      pop\n        /* \"contracts/crowdfunding/crowdfunding.sol\":2611:3108  function apoiar(uint id) public payable {... */\n      pop\n      jump\t// out\n        /* \"#utility.yul\":7:121   */\n    tag_176:\n        /* \"#utility.yul\":74:80   */\n      0x00\n        /* \"#utility.yul\":108:113   */\n      dup2\n        /* \"#utility.yul\":102:114   */\n      mload\n        /* \"#utility.yul\":92:114   */\n      swap1\n      pop\n        /* \"#utility.yul\":7:121   */\n      swap2\n      swap1\n      pop\n      jump\t// out\n        /* \"#utility.yul\":127:311   */\n    tag_177:\n        /* \"#utility.yul\":226:237   */\n      0x00\n        /* \"#utility.yul\":260:266   */\n      dup3\n        /* \"#utility.yul\":255:258   */\n      dup3\n        /* \"#utility.yul\":248:267   */\n      mstore\n        /* \"#utility.yul\":300:304   */\n      0x20\n        /* \"#utility.yul\":295:298   */\n      dup3\n        /* \"#utility.yul\":291:305   */\n      add\n        /* \"#utility.yul\":276:305   */\n      swap1\n      pop\n        /* \"#utility.yul\":127:311   */\n      swap3\n      swap2\n      pop\n      pop\n      jump\t// out\n        /* \"#utility.yul\":317:449   */\n    tag_178:\n        /* \"#utility.yul\":384:388   */\n      0x00\n        /* \"#utility.yul\":407:410   */\n      dup2\n        /* \"#utility.yul\":399:410   */\n      swap1\n      pop\n        /* \"#utility.yul\":437:441   */\n      0x20\n        /* \"#utility.yul\":432:435   */\n      dup3\n        /* \"#utility.yul\":428:442   */\n      add\n        /* \"#utility.yul\":420:442   */\n      swap1\n      pop\n        /* \"#utility.yul\":317:449   */\n      swap2\n      swap1\n      pop\n      jump\t// out\n        /* \"#utility.yul\":455:532   */\n    tag_179:\n        /* \"#utility.yul\":492:499   */\n      0x00\n        /* \"#utility.yul\":521:526   */\n      dup2\n        /* \"#utility.yul\":510:526   */\n      swap1\n      pop\n        /* \"#utility.yul\":455:532   */\n      swap2\n      swap1\n      pop\n      jump\t// out\n        /* \"#utility.yul\":538:646   */\n    tag_180:\n        /* \"#utility.yul\":615:639   */\n      tag_260\n        /* \"#utility.yul\":633:638   */\n      dup2\n        /* \"#utility.yul\":615:639   */\n      tag_179\n      jump\t// in\n    tag_260:\n        /* \"#utility.yul\":610:613   */\n      dup3\n        /* \"#utility.yul\":603:640   */\n      mstore\n        /* \"#utility.yul\":538:646   */\n      pop\n      pop\n      jump\t// out\n        /* \"#utility.yul\":652:831   */\n    tag_181:\n        /* \"#utility.yul\":721:731   */\n      0x00\n        /* \"#utility.yul\":742:788   */\n      tag_262\n        /* \"#utility.yul\":784:787   */\n      dup4\n        /* \"#utility.yul\":776:782   */\n      dup4\n        /* \"#utility.yul\":742:788   */\n      tag_180\n      jump\t// in\n    tag_262:\n        /* \"#utility.yul\":820:824   */\n      0x20\n        /* \"#utility.yul\":815:818   */\n      dup4\n        /* \"#utility.yul\":811:825   */\n      add\n        /* \"#utility.yul\":797:825   */\n      swap1\n      pop\n        /* \"#utility.yul\":652:831   */\n      swap3\n      swap2\n      pop\n      pop\n      jump\t// out\n        /* \"#utility.yul\":837:950   */\n    tag_182:\n        /* \"#utility.yul\":907:911   */\n      0x00\n        /* \"#utility.yul\":939:943   */\n      0x20\n        /* \"#utility.yul\":934:937   */\n      dup3\n        /* \"#utility.yul\":930:944   */\n      add\n        /* \"#utility.yul\":922:944   */\n      swap1\n      pop\n        /* \"#utility.yul\":837:950   */\n      swap2\n      swap1\n      pop\n      jump\t// out\n        /* \"#utility.yul\":986:1718   */\n    tag_183:\n        /* \"#utility.yul\":1105:1108   */\n      0x00\n        /* \"#utility.yul\":1134:1188   */\n      tag_265\n        /* \"#utility.yul\":1182:1187   */\n      dup3\n        /* \"#utility.yul\":1134:1188   */\n      tag_176\n      jump\t// in\n    tag_265:\n        /* \"#utility.yul\":1204:1290   */\n      tag_266\n        /* \"#utility.yul\":1283:1289   */\n      dup2\n        /* \"#utility.yul\":1278:1281   */\n      dup6\n        /* \"#utility.yul\":1204:1290   */\n      tag_177\n      jump\t// in\n    tag_266:\n        /* \"#utility.yul\":1197:1290   */\n      swap4\n      pop\n        /* \"#utility.yul\":1314:1370   */\n      tag_267\n        /* \"#utility.yul\":1364:1369   */\n      dup4\n        /* \"#utility.yul\":1314:1370   */\n      tag_178\n      jump\t// in\n    tag_267:\n        /* \"#utility.yul\":1393:1400   */\n      dup1\n        /* \"#utility.yul\":1424:1425   */\n      0x00\n        /* \"#utility.yul\":1409:1693   */\n    tag_268:\n        /* \"#utility.yul\":1434:1440   */\n      dup4\n        /* \"#utility.yul\":1431:1432   */\n      dup2\n        /* \"#utility.yul\":1428:1441   */\n      lt\n        /* \"#utility.yul\":1409:1693   */\n      iszero\n      tag_270\n      jumpi\n        /* \"#utility.yul\":1510:1516   */\n      dup2\n        /* \"#utility.yul\":1504:1517   */\n      mload\n        /* \"#utility.yul\":1537:1600   */\n      tag_271\n        /* \"#utility.yul\":1596:1599   */\n      dup9\n        /* \"#utility.yul\":1581:1594   */\n      dup3\n        /* \"#utility.yul\":1537:1600   */\n      tag_181\n      jump\t// in\n    tag_271:\n        /* \"#utility.yul\":1530:1600   */\n      swap8\n      pop\n        /* \"#utility.yul\":1623:1683   */\n      tag_272\n        /* \"#utility.yul\":1676:1682   */\n      dup4\n        /* \"#utility.yul\":1623:1683   */\n      tag_182\n      jump\t// in\n    tag_272:\n        /* \"#utility.yul\":1613:1683   */\n      swap3\n      pop\n        /* \"#utility.yul\":1469:1693   */\n      pop\n        /* \"#utility.yul\":1456:1457   */\n      0x01\n        /* \"#utility.yul\":1453:1454   */\n      dup2\n        /* \"#utility.yul\":1449:1458   */\n      add\n        /* \"#utility.yul\":1444:1458   */\n      swap1\n      pop\n        /* \"#utility.yul\":1409:1693   */\n      jump(tag_268)\n    tag_270:\n        /* \"#utility.yul\":1413:1427   */\n      pop\n        /* \"#utility.yul\":1709:1712   */\n      dup6\n        /* \"#utility.yul\":1702:1712   */\n      swap4\n      pop\n        /* \"#utility.yul\":1110:1718   */\n      pop\n      pop\n      pop\n        /* \"#utility.yul\":986:1718   */\n      swap3\n      swap2\n      pop\n      pop\n      jump\t// out\n        /* \"#utility.yul\":1724:1848   */\n    tag_184:\n        /* \"#utility.yul\":1801:1807   */\n      0x00\n        /* \"#utility.yul\":1835:1840   */\n      dup2\n        /* \"#utility.yul\":1829:1841   */\n      mload\n        /* \"#utility.yul\":1819:1841   */\n      swap1\n      pop\n        /* \"#utility.yul\":1724:1848   */\n      swap2\n      swap1\n      pop\n      jump\t// out\n        /* \"#utility.yul\":1854:2048   */\n    tag_185:\n        /* \"#utility.yul\":1963:1974   */\n      0x00\n        /* \"#utility.yul\":1997:2003   */\n      dup3\n        /* \"#utility.yul\":1992:1995   */\n      dup3\n        /* \"#utility.yul\":1985:2004   */\n      mstore\n        /* \"#utility.yul\":2037:2041   */\n      0x20\n        /* \"#utility.yul\":2032:2035   */\n      dup3\n        /* \"#utility.yul\":2028:2042   */\n      add\n        /* \"#utility.yul\":2013:2042   */\n      swap1\n      pop\n        /* \"#utility.yul\":1854:2048   */\n      swap3\n      swap2\n      pop\n      pop\n      jump\t// out\n        /* \"#utility.yul\":2054:2196   */\n    tag_186:\n        /* \"#utility.yul\":2131:2135   */\n      0x00\n        /* \"#utility.yul\":2154:2157   */\n      dup2\n        /* \"#utility.yul\":2146:2157   */\n      swap1\n      pop\n        /* \"#utility.yul\":2184:2188   */\n      0x20\n        /* \"#utility.yul\":2179:2182   */\n      dup3\n        /* \"#utility.yul\":2175:2189   */\n      add\n        /* \"#utility.yul\":2167:2189   */\n      swap1\n      pop\n        /* \"#utility.yul\":2054:2196   */\n      swap2\n      swap1\n      pop\n      jump\t// out\n        /* \"#utility.yul\":2202:2301   */\n    tag_187:\n        /* \"#utility.yul\":2254:2260   */\n      0x00\n        /* \"#utility.yul\":2288:2293   */\n      dup2\n        /* \"#utility.yul\":2282:2294   */\n      mload\n        /* \"#utility.yul\":2272:2294   */\n      swap1\n      pop\n        /* \"#utility.yul\":2202:2301   */\n      swap2\n      swap1\n      pop\n      jump\t// out\n        /* \"#utility.yul\":2307:2466   */\n    tag_188:\n        /* \"#utility.yul\":2381:2392   */\n      0x00\n        /* \"#utility.yul\":2415:2421   */\n      dup3\n        /* \"#utility.yul\":2410:2413   */\n      dup3\n        /* \"#utility.yul\":2403:2422   */\n      mstore\n        /* \"#utility.yul\":2455:2459   */\n      0x20\n        /* \"#utility.yul\":2450:2453   */\n      dup3\n        /* \"#utility.yul\":2446:2460   */\n      add\n        /* \"#utility.yul\":2431:2460   */\n      swap1\n      pop\n        /* \"#utility.yul\":2307:2466   */\n      swap3\n      swap2\n      pop\n      pop\n      jump\t// out\n        /* \"#utility.yul\":2472:2718   */\n    tag_189:\n        /* \"#utility.yul\":2553:2554   */\n      0x00\n        /* \"#utility.yul\":2563:2676   */\n    tag_279:\n        /* \"#utility.yul\":2577:2583   */\n      dup4\n        /* \"#utility.yul\":2574:2575   */\n      dup2\n        /* \"#utility.yul\":2571:2584   */\n      lt\n        /* \"#utility.yul\":2563:2676   */\n      iszero\n      tag_281\n      jumpi\n        /* \"#utility.yul\":2662:2663   */\n      dup1\n        /* \"#utility.yul\":2657:2660   */\n      dup3\n        /* \"#utility.yul\":2653:2664   */\n      add\n        /* \"#utility.yul\":2647:2665   */\n      mload\n        /* \"#utility.yul\":2643:2644   */\n      dup2\n        /* \"#utility.yul\":2638:2641   */\n      dup5\n        /* \"#utility.yul\":2634:2645   */\n      add\n        /* \"#utility.yul\":2627:2666   */\n      mstore\n        /* \"#utility.yul\":2599:2601   */\n      0x20\n        /* \"#utility.yul\":2596:2597   */\n      dup2\n        /* \"#utility.yul\":2592:2602   */\n      add\n        /* \"#utility.yul\":2587:2602   */\n      swap1\n      pop\n        /* \"#utility.yul\":2563:2676   */\n      jump(tag_279)\n    tag_281:\n        /* \"#utility.yul\":2710:2711   */\n      0x00\n        /* \"#utility.yul\":2701:2707   */\n      dup5\n        /* \"#utility.yul\":2696:2699   */\n      dup5\n        /* \"#utility.yul\":2692:2708   */\n      add\n        /* \"#utility.yul\":2685:2712   */\n      mstore\n        /* \"#utility.yul\":2534:2718   */\n      pop\n        /* \"#utility.yul\":2472:2718   */\n      pop\n      pop\n      pop\n      jump\t// out\n        /* \"#utility.yul\":2724:2826   */\n    tag_190:\n        /* \"#utility.yul\":2765:2771   */\n      0x00\n        /* \"#utility.yul\":2816:2818   */\n      0x1f\n        /* \"#utility.yul\":2812:2819   */\n      not\n        /* \"#utility.yul\":2807:2809   */\n      0x1f\n        /* \"#utility.yul\":2800:2805   */\n      dup4\n        /* \"#utility.yul\":2796:2810   */\n      add\n        /* \"#utility.yul\":2792:2820   */\n      and\n        /* \"#utility.yul\":2782:2820   */\n      swap1\n      pop\n        /* \"#utility.yul\":2724:2826   */\n      swap2\n      swap1\n      pop\n      jump\t// out\n        /* \"#utility.yul\":2832:3189   */\n    tag_191:\n        /* \"#utility.yul\":2910:2913   */\n      0x00\n        /* \"#utility.yul\":2938:2977   */\n      tag_284\n        /* \"#utility.yul\":2971:2976   */\n      dup3\n        /* \"#utility.yul\":2938:2977   */\n      tag_187\n      jump\t// in\n    tag_284:\n        /* \"#utility.yul\":2993:3054   */\n      tag_285\n        /* \"#utility.yul\":3047:3053   */\n      dup2\n        /* \"#utility.yul\":3042:3045   */\n      dup6\n        /* \"#utility.yul\":2993:3054   */\n      tag_188\n      jump\t// in\n    tag_285:\n        /* \"#utility.yul\":2986:3054   */\n      swap4\n      pop\n        /* \"#utility.yul\":3063:3128   */\n      tag_286\n        /* \"#utility.yul\":3121:3127   */\n      dup2\n        /* \"#utility.yul\":3116:3119   */\n      dup6\n        /* \"#utility.yul\":3109:3113   */\n      0x20\n        /* \"#utility.yul\":3102:3107   */\n      dup7\n        /* \"#utility.yul\":3098:3114   */\n      add\n        /* \"#utility.yul\":3063:3128   */\n      tag_189\n      jump\t// in\n    tag_286:\n        /* \"#utility.yul\":3153:3182   */\n      tag_287\n        /* \"#utility.yul\":3175:3181   */\n      dup2\n        /* \"#utility.yul\":3153:3182   */\n      tag_190\n      jump\t// in\n    tag_287:\n        /* \"#utility.yul\":3148:3151   */\n      dup5\n        /* \"#utility.yul\":3144:3183   */\n      add\n        /* \"#utility.yul\":3137:3183   */\n      swap2\n      pop\n        /* \"#utility.yul\":2914:3189   */\n      pop\n        /* \"#utility.yul\":2832:3189   */\n      swap3\n      swap2\n      pop\n      pop\n      jump\t// out\n        /* \"#utility.yul\":3195:3391   */\n    tag_192:\n        /* \"#utility.yul\":3284:3294   */\n      0x00\n        /* \"#utility.yul\":3319:3385   */\n      tag_289\n        /* \"#utility.yul\":3381:3384   */\n      dup4\n        /* \"#utility.yul\":3373:3379   */\n      dup4\n        /* \"#utility.yul\":3319:3385   */\n      tag_191\n      jump\t// in\n    tag_289:\n        /* \"#utility.yul\":3305:3385   */\n      swap1\n      pop\n        /* \"#utility.yul\":3195:3391   */\n      swap3\n      swap2\n      pop\n      pop\n      jump\t// out\n        /* \"#utility.yul\":3397:3520   */\n    tag_193:\n        /* \"#utility.yul\":3477:3481   */\n      0x00\n        /* \"#utility.yul\":3509:3513   */\n      0x20\n        /* \"#utility.yul\":3504:3507   */\n      dup3\n        /* \"#utility.yul\":3500:3514   */\n      add\n        /* \"#utility.yul\":3492:3514   */\n      swap1\n      pop\n        /* \"#utility.yul\":3397:3520   */\n      swap2\n      swap1\n      pop\n      jump\t// out\n        /* \"#utility.yul\":3554:4545   */\n    tag_194:\n        /* \"#utility.yul\":3693:3696   */\n      0x00\n        /* \"#utility.yul\":3722:3786   */\n      tag_292\n        /* \"#utility.yul\":3780:3785   */\n      dup3\n        /* \"#utility.yul\":3722:3786   */\n      tag_184\n      jump\t// in\n    tag_292:\n        /* \"#utility.yul\":3802:3898   */\n      tag_293\n        /* \"#utility.yul\":3891:3897   */\n      dup2\n        /* \"#utility.yul\":3886:3889   */\n      dup6\n        /* \"#utility.yul\":3802:3898   */\n      tag_185\n      jump\t// in\n    tag_293:\n        /* \"#utility.yul\":3795:3898   */\n      swap4\n      pop\n        /* \"#utility.yul\":3924:3927   */\n      dup4\n        /* \"#utility.yul\":3969:3973   */\n      0x20\n        /* \"#utility.yul\":3961:3967   */\n      dup3\n        /* \"#utility.yul\":3957:3974   */\n      mul\n        /* \"#utility.yul\":3952:3955   */\n      dup6\n        /* \"#utility.yul\":3948:3975   */\n      add\n        /* \"#utility.yul\":3999:4065   */\n      tag_294\n        /* \"#utility.yul\":4059:4064   */\n      dup6\n        /* \"#utility.yul\":3999:4065   */\n      tag_186\n      jump\t// in\n    tag_294:\n        /* \"#utility.yul\":4088:4095   */\n      dup1\n        /* \"#utility.yul\":4119:4120   */\n      0x00\n        /* \"#utility.yul\":4104:4500   */\n    tag_295:\n        /* \"#utility.yul\":4129:4135   */\n      dup6\n        /* \"#utility.yul\":4126:4127   */\n      dup2\n        /* \"#utility.yul\":4123:4136   */\n      lt\n        /* \"#utility.yul\":4104:4500   */\n      iszero\n      tag_297\n      jumpi\n        /* \"#utility.yul\":4200:4209   */\n      dup5\n        /* \"#utility.yul\":4194:4198   */\n      dup5\n        /* \"#utility.yul\":4190:4210   */\n      sub\n        /* \"#utility.yul\":4185:4188   */\n      dup10\n        /* \"#utility.yul\":4178:4211   */\n      mstore\n        /* \"#utility.yul\":4251:4257   */\n      dup2\n        /* \"#utility.yul\":4245:4258   */\n      mload\n        /* \"#utility.yul\":4279:4363   */\n      tag_298\n        /* \"#utility.yul\":4358:4362   */\n      dup6\n        /* \"#utility.yul\":4343:4356   */\n      dup3\n        /* \"#utility.yul\":4279:4363   */\n      tag_192\n      jump\t// in\n    tag_298:\n        /* \"#utility.yul\":4271:4363   */\n      swap5\n      pop\n        /* \"#utility.yul\":4386:4456   */\n      tag_299\n        /* \"#utility.yul\":4449:4455   */\n      dup4\n        /* \"#utility.yul\":4386:4456   */\n      tag_193\n      jump\t// in\n    tag_299:\n        /* \"#utility.yul\":4376:4456   */\n      swap3\n      pop\n        /* \"#utility.yul\":4485:4489   */\n      0x20\n        /* \"#utility.yul\":4480:4483   */\n      dup11\n        /* \"#utility.yul\":4476:4490   */\n      add\n        /* \"#utility.yul\":4469:4490   */\n      swap10\n      pop\n        /* \"#utility.yul\":4164:4500   */\n      pop\n        /* \"#utility.yul\":4151:4152   */\n      0x01\n        /* \"#utility.yul\":4148:4149   */\n      dup2\n        /* \"#utility.yul\":4144:4153   */\n      add\n        /* \"#utility.yul\":4139:4153   */\n      swap1\n      pop\n        /* \"#utility.yul\":4104:4500   */\n      jump(tag_295)\n    tag_297:\n        /* \"#utility.yul\":4108:4122   */\n      pop\n        /* \"#utility.yul\":4516:4520   */\n      dup3\n        /* \"#utility.yul\":4509:4520   */\n      swap8\n      pop\n        /* \"#utility.yul\":4536:4539   */\n      dup8\n        /* \"#utility.yul\":4529:4539   */\n      swap6\n      pop\n        /* \"#utility.yul\":3698:4545   */\n      pop\n      pop\n      pop\n      pop\n      pop\n        /* \"#utility.yul\":3554:4545   */\n      swap3\n      swap2\n      pop\n      pop\n      jump\t// out\n        /* \"#utility.yul\":4551:5225   */\n    tag_14:\n        /* \"#utility.yul\":4792:4796   */\n      0x00\n        /* \"#utility.yul\":4830:4832   */\n      0x40\n        /* \"#utility.yul\":4819:4828   */\n      dup3\n        /* \"#utility.yul\":4815:4833   */\n      add\n        /* \"#utility.yul\":4807:4833   */\n      swap1\n      pop\n        /* \"#utility.yul\":4879:4888   */\n      dup2\n        /* \"#utility.yul\":4873:4877   */\n      dup2\n        /* \"#utility.yul\":4869:4889   */\n      sub\n        /* \"#utility.yul\":4865:4866   */\n      0x00\n        /* \"#utility.yul\":4854:4863   */\n      dup4\n        /* \"#utility.yul\":4850:4867   */\n      add\n        /* \"#utility.yul\":4843:4890   */\n      mstore\n        /* \"#utility.yul\":4907:5015   */\n      tag_301\n        /* \"#utility.yul\":5010:5014   */\n      dup2\n        /* \"#utility.yul\":5001:5007   */\n      dup6\n        /* \"#utility.yul\":4907:5015   */\n      tag_183\n      jump\t// in\n    tag_301:\n        /* \"#utility.yul\":4899:5015   */\n      swap1\n      pop\n        /* \"#utility.yul\":5062:5071   */\n      dup2\n        /* \"#utility.yul\":5056:5060   */\n      dup2\n        /* \"#utility.yul\":5052:5072   */\n      sub\n        /* \"#utility.yul\":5047:5049   */\n      0x20\n        /* \"#utility.yul\":5036:5045   */\n      dup4\n        /* \"#utility.yul\":5032:5050   */\n      add\n        /* \"#utility.yul\":5025:5073   */\n      mstore\n        /* \"#utility.yul\":5090:5218   */\n      tag_302\n        /* \"#utility.yul\":5213:5217   */\n      dup2\n        /* \"#utility.yul\":5204:5210   */\n      dup5\n        /* \"#utility.yul\":5090:5218   */\n      tag_194\n      jump\t// in\n    tag_302:\n        /* \"#utility.yul\":5082:5218   */\n      swap1\n      pop\n        /* \"#utility.yul\":4551:5225   */\n      swap4\n      swap3\n      pop\n      pop\n      pop\n      jump\t// out\n        /* \"#utility.yul\":5231:5306   */\n    tag_195:\n        /* \"#utility.yul\":5264:5270   */\n      0x00\n        /* \"#utility.yul\":5297:5299   */\n      0x40\n        /* \"#utility.yul\":5291:5300   */\n      mload\n        /* \"#utility.yul\":5281:5300   */\n      swap1\n      pop\n        /* \"#utility.yul\":5231:5306   */\n      swap1\n      jump\t// out\n        /* \"#utility.yul\":5312:5429   */\n    tag_196:\n        /* \"#utility.yul\":5421:5422   */\n      0x00\n        /* \"#utility.yul\":5418:5419   */\n      dup1\n        /* \"#utility.yul\":5411:5423   */\n      revert\n        /* \"#utility.yul\":5435:5552   */\n    tag_197:\n        /* \"#utility.yul\":5544:5545   */\n      0x00\n        /* \"#utility.yul\":5541:5542   */\n      dup1\n        /* \"#utility.yul\":5534:5546   */\n      revert\n        /* \"#utility.yul\":5558:5675   */\n    tag_198:\n        /* \"#utility.yul\":5667:5668   */\n      0x00\n        /* \"#utility.yul\":5664:5665   */\n      dup1\n        /* \"#utility.yul\":5657:5669   */\n      revert\n        /* \"#utility.yul\":5681:5798   */\n    tag_199:\n        /* \"#utility.yul\":5790:5791   */\n      0x00\n        /* \"#utility.yul\":5787:5788   */\n      dup1\n        /* \"#utility.yul\":5780:5792   */\n      revert\n        /* \"#utility.yul\":5804:5984   */\n    tag_47:\n        /* \"#utility.yul\":5852:5929   */\n      0x4e487b7100000000000000000000000000000000000000000000000000000000\n        /* \"#utility.yul\":5849:5850   */\n      0x00\n        /* \"#utility.yul\":5842:5930   */\n      mstore\n        /* \"#utility.yul\":5949:5953   */\n      0x41\n        /* \"#utility.yul\":5946:5947   */\n      0x04\n        /* \"#utility.yul\":5939:5954   */\n      mstore\n        /* \"#utility.yul\":5973:5977   */\n      0x24\n        /* \"#utility.yul\":5970:5971   */\n      0x00\n        /* \"#utility.yul\":5963:5978   */\n      revert\n        /* \"#utility.yul\":5990:6271   */\n    tag_200:\n        /* \"#utility.yul\":6073:6100   */\n      tag_310\n        /* \"#utility.yul\":6095:6099   */\n      dup3\n        /* \"#utility.yul\":6073:6100   */\n      tag_190\n      jump\t// in\n    tag_310:\n        /* \"#utility.yul\":6065:6071   */\n      dup2\n        /* \"#utility.yul\":6061:6101   */\n      add\n        /* \"#utility.yul\":6203:6209   */\n      dup2\n        /* \"#utility.yul\":6191:6201   */\n      dup2\n        /* \"#utility.yul\":6188:6210   */\n      lt\n        /* \"#utility.yul\":6167:6185   */\n      0xffffffffffffffff\n        /* \"#utility.yul\":6155:6165   */\n      dup3\n        /* \"#utility.yul\":6152:6186   */\n      gt\n        /* \"#utility.yul\":6149:6211   */\n      or\n        /* \"#utility.yul\":6146:6234   */\n      iszero\n      tag_311\n      jumpi\n        /* \"#utility.yul\":6214:6232   */\n      tag_312\n      tag_47\n      jump\t// in\n    tag_312:\n        /* \"#utility.yul\":6146:6234   */\n    tag_311:\n        /* \"#utility.yul\":6254:6264   */\n      dup1\n        /* \"#utility.yul\":6250:6252   */\n      0x40\n        /* \"#utility.yul\":6243:6265   */\n      mstore\n        /* \"#utility.yul\":6033:6271   */\n      pop\n        /* \"#utility.yul\":5990:6271   */\n      pop\n      pop\n      jump\t// out\n        /* \"#utility.yul\":6277:6406   */\n    tag_201:\n        /* \"#utility.yul\":6311:6317   */\n      0x00\n        /* \"#utility.yul\":6338:6358   */\n      tag_314\n      tag_195\n      jump\t// in\n    tag_314:\n        /* \"#utility.yul\":6328:6358   */\n      swap1\n      pop\n        /* \"#utility.yul\":6367:6400   */\n      tag_315\n        /* \"#utility.yul\":6395:6399   */\n      dup3\n        /* \"#utility.yul\":6387:6393   */\n      dup3\n        /* \"#utility.yul\":6367:6400   */\n      tag_200\n      jump\t// in\n    tag_315:\n        /* \"#utility.yul\":6277:6406   */\n      swap2\n      swap1\n      pop\n      jump\t// out\n        /* \"#utility.yul\":6412:6720   */\n    tag_202:\n        /* \"#utility.yul\":6474:6478   */\n      0x00\n        /* \"#utility.yul\":6564:6582   */\n      0xffffffffffffffff\n        /* \"#utility.yul\":6556:6562   */\n      dup3\n        /* \"#utility.yul\":6553:6583   */\n      gt\n        /* \"#utility.yul\":6550:6606   */\n      iszero\n      tag_317\n      jumpi\n        /* \"#utility.yul\":6586:6604   */\n      tag_318\n      tag_47\n      jump\t// in\n    tag_318:\n        /* \"#utility.yul\":6550:6606   */\n    tag_317:\n        /* \"#utility.yul\":6624:6653   */\n      tag_319\n        /* \"#utility.yul\":6646:6652   */\n      dup3\n        /* \"#utility.yul\":6624:6653   */\n      tag_190\n      jump\t// in\n    tag_319:\n        /* \"#utility.yul\":6616:6653   */\n      swap1\n      pop\n        /* \"#utility.yul\":6708:6712   */\n      0x20\n        /* \"#utility.yul\":6702:6706   */\n      dup2\n        /* \"#utility.yul\":6698:6713   */\n      add\n        /* \"#utility.yul\":6690:6713   */\n      swap1\n      pop\n        /* \"#utility.yul\":6412:6720   */\n      swap2\n      swap1\n      pop\n      jump\t// out\n        /* \"#utility.yul\":6726:6872   */\n    tag_203:\n        /* \"#utility.yul\":6823:6829   */\n      dup3\n        /* \"#utility.yul\":6818:6821   */\n      dup2\n        /* \"#utility.yul\":6813:6816   */\n      dup4\n        /* \"#utility.yul\":6800:6830   */\n      calldatacopy\n        /* \"#utility.yul\":6864:6865   */\n      0x00\n        /* \"#utility.yul\":6855:6861   */\n      dup4\n        /* \"#utility.yul\":6850:6853   */\n      dup4\n        /* \"#utility.yul\":6846:6862   */\n      add\n        /* \"#utility.yul\":6839:6866   */\n      mstore\n        /* \"#utility.yul\":6726:6872   */\n      pop\n      pop\n      pop\n      jump\t// out\n        /* \"#utility.yul\":6878:7303   */\n    tag_204:\n        /* \"#utility.yul\":6956:6961   */\n      0x00\n        /* \"#utility.yul\":6981:7047   */\n      tag_322\n        /* \"#utility.yul\":6997:7046   */\n      tag_323\n        /* \"#utility.yul\":7039:7045   */\n      dup5\n        /* \"#utility.yul\":6997:7046   */\n      tag_202\n      jump\t// in\n    tag_323:\n        /* \"#utility.yul\":6981:7047   */\n      tag_201\n      jump\t// in\n    tag_322:\n        /* \"#utility.yul\":6972:7047   */\n      swap1\n      pop\n        /* \"#utility.yul\":7070:7076   */\n      dup3\n        /* \"#utility.yul\":7063:7068   */\n      dup2\n        /* \"#utility.yul\":7056:7077   */\n      mstore\n        /* \"#utility.yul\":7108:7112   */\n      0x20\n        /* \"#utility.yul\":7101:7106   */\n      dup2\n        /* \"#utility.yul\":7097:7113   */\n      add\n        /* \"#utility.yul\":7146:7149   */\n      dup5\n        /* \"#utility.yul\":7137:7143   */\n      dup5\n        /* \"#utility.yul\":7132:7135   */\n      dup5\n        /* \"#utility.yul\":7128:7144   */\n      add\n        /* \"#utility.yul\":7125:7150   */\n      gt\n        /* \"#utility.yul\":7122:7234   */\n      iszero\n      tag_324\n      jumpi\n        /* \"#utility.yul\":7153:7232   */\n      tag_325\n      tag_199\n      jump\t// in\n    tag_325:\n        /* \"#utility.yul\":7122:7234   */\n    tag_324:\n        /* \"#utility.yul\":7243:7297   */\n      tag_326\n        /* \"#utility.yul\":7290:7296   */\n      dup5\n        /* \"#utility.yul\":7285:7288   */\n      dup3\n        /* \"#utility.yul\":7280:7283   */\n      dup6\n        /* \"#utility.yul\":7243:7297   */\n      tag_203\n      jump\t// in\n    tag_326:\n        /* \"#utility.yul\":6962:7303   */\n      pop\n        /* \"#utility.yul\":6878:7303   */\n      swap4\n      swap3\n      pop\n      pop\n      pop\n      jump\t// out\n        /* \"#utility.yul\":7323:7663   */\n    tag_205:\n        /* \"#utility.yul\":7379:7384   */\n      0x00\n        /* \"#utility.yul\":7428:7431   */\n      dup3\n        /* \"#utility.yul\":7421:7425   */\n      0x1f\n        /* \"#utility.yul\":7413:7419   */\n      dup4\n        /* \"#utility.yul\":7409:7426   */\n      add\n        /* \"#utility.yul\":7405:7432   */\n      slt\n        /* \"#utility.yul\":7395:7517   */\n      tag_328\n      jumpi\n        /* \"#utility.yul\":7436:7515   */\n      tag_329\n      tag_198\n      jump\t// in\n    tag_329:\n        /* \"#utility.yul\":7395:7517   */\n    tag_328:\n        /* \"#utility.yul\":7553:7559   */\n      dup2\n        /* \"#utility.yul\":7540:7560   */\n      calldataload\n        /* \"#utility.yul\":7578:7657   */\n      tag_330\n        /* \"#utility.yul\":7653:7656   */\n      dup5\n        /* \"#utility.yul\":7645:7651   */\n      dup3\n        /* \"#utility.yul\":7638:7642   */\n      0x20\n        /* \"#utility.yul\":7630:7636   */\n      dup7\n        /* \"#utility.yul\":7626:7643   */\n      add\n        /* \"#utility.yul\":7578:7657   */\n      tag_204\n      jump\t// in\n    tag_330:\n        /* \"#utility.yul\":7569:7657   */\n      swap2\n      pop\n        /* \"#utility.yul\":7385:7663   */\n      pop\n        /* \"#utility.yul\":7323:7663   */\n      swap3\n      swap2\n      pop\n      pop\n      jump\t// out\n        /* \"#utility.yul\":7669:7791   */\n    tag_206:\n        /* \"#utility.yul\":7742:7766   */\n      tag_332\n        /* \"#utility.yul\":7760:7765   */\n      dup2\n        /* \"#utility.yul\":7742:7766   */\n      tag_179\n      jump\t// in\n    tag_332:\n        /* \"#utility.yul\":7735:7740   */\n      dup2\n        /* \"#utility.yul\":7732:7767   */\n      eq\n        /* \"#utility.yul\":7722:7785   */\n      tag_333\n      jumpi\n        /* \"#utility.yul\":7781:7782   */\n      0x00\n        /* \"#utility.yul\":7778:7779   */\n      dup1\n        /* \"#utility.yul\":7771:7783   */\n      revert\n        /* \"#utility.yul\":7722:7785   */\n    tag_333:\n        /* \"#utility.yul\":7669:7791   */\n      pop\n      jump\t// out\n        /* \"#utility.yul\":7797:7936   */\n    tag_207:\n        /* \"#utility.yul\":7843:7848   */\n      0x00\n        /* \"#utility.yul\":7881:7887   */\n      dup2\n        /* \"#utility.yul\":7868:7888   */\n      calldataload\n        /* \"#utility.yul\":7859:7888   */\n      swap1\n      pop\n        /* \"#utility.yul\":7897:7930   */\n      tag_335\n        /* \"#utility.yul\":7924:7929   */\n      dup2\n        /* \"#utility.yul\":7897:7930   */\n      tag_206\n      jump\t// in\n    tag_335:\n        /* \"#utility.yul\":7797:7936   */\n      swap3\n      swap2\n      pop\n      pop\n      jump\t// out\n        /* \"#utility.yul\":7942:9067   */\n    tag_18:\n        /* \"#utility.yul\":8048:8054   */\n      0x00\n        /* \"#utility.yul\":8056:8062   */\n      dup1\n        /* \"#utility.yul\":8064:8070   */\n      0x00\n        /* \"#utility.yul\":8072:8078   */\n      dup1\n        /* \"#utility.yul\":8121:8124   */\n      0x80\n        /* \"#utility.yul\":8109:8118   */\n      dup6\n        /* \"#utility.yul\":8100:8107   */\n      dup8\n        /* \"#utility.yul\":8096:8119   */\n      sub\n        /* \"#utility.yul\":8092:8125   */\n      slt\n        /* \"#utility.yul\":8089:8209   */\n      iszero\n      tag_337\n      jumpi\n        /* \"#utility.yul\":8128:8207   */\n      tag_338\n      tag_196\n      jump\t// in\n    tag_338:\n        /* \"#utility.yul\":8089:8209   */\n    tag_337:\n        /* \"#utility.yul\":8276:8277   */\n      0x00\n        /* \"#utility.yul\":8265:8274   */\n      dup6\n        /* \"#utility.yul\":8261:8278   */\n      add\n        /* \"#utility.yul\":8248:8279   */\n      calldataload\n        /* \"#utility.yul\":8306:8324   */\n      0xffffffffffffffff\n        /* \"#utility.yul\":8298:8304   */\n      dup2\n        /* \"#utility.yul\":8295:8325   */\n      gt\n        /* \"#utility.yul\":8292:8409   */\n      iszero\n      tag_339\n      jumpi\n        /* \"#utility.yul\":8328:8407   */\n      tag_340\n      tag_197\n      jump\t// in\n    tag_340:\n        /* \"#utility.yul\":8292:8409   */\n    tag_339:\n        /* \"#utility.yul\":8433:8496   */\n      tag_341\n        /* \"#utility.yul\":8488:8495   */\n      dup8\n        /* \"#utility.yul\":8479:8485   */\n      dup3\n        /* \"#utility.yul\":8468:8477   */\n      dup9\n        /* \"#utility.yul\":8464:8486   */\n      add\n        /* \"#utility.yul\":8433:8496   */\n      tag_205\n      jump\t// in\n    tag_341:\n        /* \"#utility.yul\":8423:8496   */\n      swap5\n      pop\n        /* \"#utility.yul\":8219:8506   */\n      pop\n        /* \"#utility.yul\":8573:8575   */\n      0x20\n        /* \"#utility.yul\":8562:8571   */\n      dup6\n        /* \"#utility.yul\":8558:8576   */\n      add\n        /* \"#utility.yul\":8545:8577   */\n      calldataload\n        /* \"#utility.yul\":8604:8622   */\n      0xffffffffffffffff\n        /* \"#utility.yul\":8596:8602   */\n      dup2\n        /* \"#utility.yul\":8593:8623   */\n      gt\n        /* \"#utility.yul\":8590:8707   */\n      iszero\n      tag_342\n      jumpi\n        /* \"#utility.yul\":8626:8705   */\n      tag_343\n      tag_197\n      jump\t// in\n    tag_343:\n        /* \"#utility.yul\":8590:8707   */\n    tag_342:\n        /* \"#utility.yul\":8731:8794   */\n      tag_344\n        /* \"#utility.yul\":8786:8793   */\n      dup8\n        /* \"#utility.yul\":8777:8783   */\n      dup3\n        /* \"#utility.yul\":8766:8775   */\n      dup9\n        /* \"#utility.yul\":8762:8784   */\n      add\n        /* \"#utility.yul\":8731:8794   */\n      tag_205\n      jump\t// in\n    tag_344:\n        /* \"#utility.yul\":8721:8794   */\n      swap4\n      pop\n        /* \"#utility.yul\":8516:8804   */\n      pop\n        /* \"#utility.yul\":8843:8845   */\n      0x40\n        /* \"#utility.yul\":8869:8922   */\n      tag_345\n        /* \"#utility.yul\":8914:8921   */\n      dup8\n        /* \"#utility.yul\":8905:8911   */\n      dup3\n        /* \"#utility.yul\":8894:8903   */\n      dup9\n        /* \"#utility.yul\":8890:8912   */\n      add\n        /* \"#utility.yul\":8869:8922   */\n      tag_207\n      jump\t// in\n    tag_345:\n        /* \"#utility.yul\":8859:8922   */\n      swap3\n      pop\n        /* \"#utility.yul\":8814:8932   */\n      pop\n        /* \"#utility.yul\":8971:8973   */\n      0x60\n        /* \"#utility.yul\":8997:9050   */\n      tag_346\n        /* \"#utility.yul\":9042:9049   */\n      dup8\n        /* \"#utility.yul\":9033:9039   */\n      dup3\n        /* \"#utility.yul\":9022:9031   */\n      dup9\n        /* \"#utility.yul\":9018:9040   */\n      add\n        /* \"#utility.yul\":8997:9050   */\n      tag_207\n      jump\t// in\n    tag_346:\n        /* \"#utility.yul\":8987:9050   */\n      swap2\n      pop\n        /* \"#utility.yul\":8942:9060   */\n      pop\n        /* \"#utility.yul\":7942:9067   */\n      swap3\n      swap6\n      swap2\n      swap5\n      pop\n      swap3\n      pop\n      jump\t// out\n        /* \"#utility.yul\":9073:9402   */\n    tag_22:\n        /* \"#utility.yul\":9132:9138   */\n      0x00\n        /* \"#utility.yul\":9181:9183   */\n      0x20\n        /* \"#utility.yul\":9169:9178   */\n      dup3\n        /* \"#utility.yul\":9160:9167   */\n      dup5\n        /* \"#utility.yul\":9156:9179   */\n      sub\n        /* \"#utility.yul\":9152:9184   */\n      slt\n        /* \"#utility.yul\":9149:9268   */\n      iszero\n      tag_348\n      jumpi\n        /* \"#utility.yul\":9187:9266   */\n      tag_349\n      tag_196\n      jump\t// in\n    tag_349:\n        /* \"#utility.yul\":9149:9268   */\n    tag_348:\n        /* \"#utility.yul\":9307:9308   */\n      0x00\n        /* \"#utility.yul\":9332:9385   */\n      tag_350\n        /* \"#utility.yul\":9377:9384   */\n      dup5\n        /* \"#utility.yul\":9368:9374   */\n      dup3\n        /* \"#utility.yul\":9357:9366   */\n      dup6\n        /* \"#utility.yul\":9353:9375   */\n      add\n        /* \"#utility.yul\":9332:9385   */\n      tag_207\n      jump\t// in\n    tag_350:\n        /* \"#utility.yul\":9322:9385   */\n      swap2\n      pop\n        /* \"#utility.yul\":9278:9395   */\n      pop\n        /* \"#utility.yul\":9073:9402   */\n      swap3\n      swap2\n      pop\n      pop\n      jump\t// out\n        /* \"#utility.yul\":9408:10533   */\n    tag_27:\n        /* \"#utility.yul\":9514:9520   */\n      0x00\n        /* \"#utility.yul\":9522:9528   */\n      dup1\n        /* \"#utility.yul\":9530:9536   */\n      0x00\n        /* \"#utility.yul\":9538:9544   */\n      dup1\n        /* \"#utility.yul\":9587:9590   */\n      0x80\n        /* \"#utility.yul\":9575:9584   */\n      dup6\n        /* \"#utility.yul\":9566:9573   */\n      dup8\n        /* \"#utility.yul\":9562:9585   */\n      sub\n        /* \"#utility.yul\":9558:9591   */\n      slt\n        /* \"#utility.yul\":9555:9675   */\n      iszero\n      tag_352\n      jumpi\n        /* \"#utility.yul\":9594:9673   */\n      tag_353\n      tag_196\n      jump\t// in\n    tag_353:\n        /* \"#utility.yul\":9555:9675   */\n    tag_352:\n        /* \"#utility.yul\":9714:9715   */\n      0x00\n        /* \"#utility.yul\":9739:9792   */\n      tag_354\n        /* \"#utility.yul\":9784:9791   */\n      dup8\n        /* \"#utility.yul\":9775:9781   */\n      dup3\n        /* \"#utility.yul\":9764:9773   */\n      dup9\n        /* \"#utility.yul\":9760:9782   */\n      add\n        /* \"#utility.yul\":9739:9792   */\n      tag_207\n      jump\t// in\n    tag_354:\n        /* \"#utility.yul\":9729:9792   */\n      swap5\n      pop\n        /* \"#utility.yul\":9685:9802   */\n      pop\n        /* \"#utility.yul\":9869:9871   */\n      0x20\n        /* \"#utility.yul\":9858:9867   */\n      dup6\n        /* \"#utility.yul\":9854:9872   */\n      add\n        /* \"#utility.yul\":9841:9873   */\n      calldataload\n        /* \"#utility.yul\":9900:9918   */\n      0xffffffffffffffff\n        /* \"#utility.yul\":9892:9898   */\n      dup2\n        /* \"#utility.yul\":9889:9919   */\n      gt\n        /* \"#utility.yul\":9886:10003   */\n      iszero\n      tag_355\n      jumpi\n        /* \"#utility.yul\":9922:10001   */\n      tag_356\n      tag_197\n      jump\t// in\n    tag_356:\n        /* \"#utility.yul\":9886:10003   */\n    tag_355:\n        /* \"#utility.yul\":10027:10090   */\n      tag_357\n        /* \"#utility.yul\":10082:10089   */\n      dup8\n        /* \"#utility.yul\":10073:10079   */\n      dup3\n        /* \"#utility.yul\":10062:10071   */\n      dup9\n        /* \"#utility.yul\":10058:10080   */\n      add\n        /* \"#utility.yul\":10027:10090   */\n      tag_205\n      jump\t// in\n    tag_357:\n        /* \"#utility.yul\":10017:10090   */\n      swap4\n      pop\n        /* \"#utility.yul\":9812:10100   */\n      pop\n        /* \"#utility.yul\":10167:10169   */\n      0x40\n        /* \"#utility.yul\":10156:10165   */\n      dup6\n        /* \"#utility.yul\":10152:10170   */\n      add\n        /* \"#utility.yul\":10139:10171   */\n      calldataload\n        /* \"#utility.yul\":10198:10216   */\n      0xffffffffffffffff\n        /* \"#utility.yul\":10190:10196   */\n      dup2\n        /* \"#utility.yul\":10187:10217   */\n      gt\n        /* \"#utility.yul\":10184:10301   */\n      iszero\n      tag_358\n      jumpi\n        /* \"#utility.yul\":10220:10299   */\n      tag_359\n      tag_197\n      jump\t// in\n    tag_359:\n        /* \"#utility.yul\":10184:10301   */\n    tag_358:\n        /* \"#utility.yul\":10325:10388   */\n      tag_360\n        /* \"#utility.yul\":10380:10387   */\n      dup8\n        /* \"#utility.yul\":10371:10377   */\n      dup3\n        /* \"#utility.yul\":10360:10369   */\n      dup9\n        /* \"#utility.yul\":10356:10378   */\n      add\n        /* \"#utility.yul\":10325:10388   */\n      tag_205\n      jump\t// in\n    tag_360:\n        /* \"#utility.yul\":10315:10388   */\n      swap3\n      pop\n        /* \"#utility.yul\":10110:10398   */\n      pop\n        /* \"#utility.yul\":10437:10439   */\n      0x60\n        /* \"#utility.yul\":10463:10516   */\n      tag_361\n        /* \"#utility.yul\":10508:10515   */\n      dup8\n        /* \"#utility.yul\":10499:10505   */\n      dup3\n        /* \"#utility.yul\":10488:10497   */\n      dup9\n        /* \"#utility.yul\":10484:10506   */\n      add\n        /* \"#utility.yul\":10463:10516   */\n      tag_207\n      jump\t// in\n    tag_361:\n        /* \"#utility.yul\":10453:10516   */\n      swap2\n      pop\n        /* \"#utility.yul\":10408:10526   */\n      pop\n        /* \"#utility.yul\":9408:10533   */\n      swap3\n      swap6\n      swap2\n      swap5\n      pop\n      swap3\n      pop\n      jump\t// out\n        /* \"#utility.yul\":10539:11776   */\n    tag_34:\n        /* \"#utility.yul\":10956:10960   */\n      0x00\n        /* \"#utility.yul\":10994:10997   */\n      0x80\n        /* \"#utility.yul\":10983:10992   */\n      dup3\n        /* \"#utility.yul\":10979:10998   */\n      add\n        /* \"#utility.yul\":10971:10998   */\n      swap1\n      pop\n        /* \"#utility.yul\":11044:11053   */\n      dup2\n        /* \"#utility.yul\":11038:11042   */\n      dup2\n        /* \"#utility.yul\":11034:11054   */\n      sub\n        /* \"#utility.yul\":11030:11031   */\n      0x00\n        /* \"#utility.yul\":11019:11028   */\n      dup4\n        /* \"#utility.yul\":11015:11032   */\n      add\n        /* \"#utility.yul\":11008:11055   */\n      mstore\n        /* \"#utility.yul\":11072:11180   */\n      tag_363\n        /* \"#utility.yul\":11175:11179   */\n      dup2\n        /* \"#utility.yul\":11166:11172   */\n      dup8\n        /* \"#utility.yul\":11072:11180   */\n      tag_183\n      jump\t// in\n    tag_363:\n        /* \"#utility.yul\":11064:11180   */\n      swap1\n      pop\n        /* \"#utility.yul\":11227:11236   */\n      dup2\n        /* \"#utility.yul\":11221:11225   */\n      dup2\n        /* \"#utility.yul\":11217:11237   */\n      sub\n        /* \"#utility.yul\":11212:11214   */\n      0x20\n        /* \"#utility.yul\":11201:11210   */\n      dup4\n        /* \"#utility.yul\":11197:11215   */\n      add\n        /* \"#utility.yul\":11190:11238   */\n      mstore\n        /* \"#utility.yul\":11255:11383   */\n      tag_364\n        /* \"#utility.yul\":11378:11382   */\n      dup2\n        /* \"#utility.yul\":11369:11375   */\n      dup7\n        /* \"#utility.yul\":11255:11383   */\n      tag_194\n      jump\t// in\n    tag_364:\n        /* \"#utility.yul\":11247:11383   */\n      swap1\n      pop\n        /* \"#utility.yul\":11430:11439   */\n      dup2\n        /* \"#utility.yul\":11424:11428   */\n      dup2\n        /* \"#utility.yul\":11420:11440   */\n      sub\n        /* \"#utility.yul\":11415:11417   */\n      0x40\n        /* \"#utility.yul\":11404:11413   */\n      dup4\n        /* \"#utility.yul\":11400:11418   */\n      add\n        /* \"#utility.yul\":11393:11441   */\n      mstore\n        /* \"#utility.yul\":11458:11586   */\n      tag_365\n        /* \"#utility.yul\":11581:11585   */\n      dup2\n        /* \"#utility.yul\":11572:11578   */\n      dup6\n        /* \"#utility.yul\":11458:11586   */\n      tag_194\n      jump\t// in\n    tag_365:\n        /* \"#utility.yul\":11450:11586   */\n      swap1\n      pop\n        /* \"#utility.yul\":11633:11642   */\n      dup2\n        /* \"#utility.yul\":11627:11631   */\n      dup2\n        /* \"#utility.yul\":11623:11643   */\n      sub\n        /* \"#utility.yul\":11618:11620   */\n      0x60\n        /* \"#utility.yul\":11607:11616   */\n      dup4\n        /* \"#utility.yul\":11603:11621   */\n      add\n        /* \"#utility.yul\":11596:11644   */\n      mstore\n        /* \"#utility.yul\":11661:11769   */\n      tag_366\n        /* \"#utility.yul\":11764:11768   */\n      dup2\n        /* \"#utility.yul\":11755:11761   */\n      dup5\n        /* \"#utility.yul\":11661:11769   */\n      tag_183\n      jump\t// in\n    tag_366:\n        /* \"#utility.yul\":11653:11769   */\n      swap1\n      pop\n        /* \"#utility.yul\":10539:11776   */\n      swap6\n      swap5\n      pop\n      pop\n      pop\n      pop\n      pop\n      jump\t// out\n        /* \"#utility.yul\":11782:11900   */\n    tag_208:\n        /* \"#utility.yul\":11869:11893   */\n      tag_368\n        /* \"#utility.yul\":11887:11892   */\n      dup2\n        /* \"#utility.yul\":11869:11893   */\n      tag_179\n      jump\t// in\n    tag_368:\n        /* \"#utility.yul\":11864:11867   */\n      dup3\n        /* \"#utility.yul\":11857:11894   */\n      mstore\n        /* \"#utility.yul\":11782:11900   */\n      pop\n      pop\n      jump\t// out\n        /* \"#utility.yul\":11906:12075   */\n    tag_209:\n        /* \"#utility.yul\":11990:12001   */\n      0x00\n        /* \"#utility.yul\":12024:12030   */\n      dup3\n        /* \"#utility.yul\":12019:12022   */\n      dup3\n        /* \"#utility.yul\":12012:12031   */\n      mstore\n        /* \"#utility.yul\":12064:12068   */\n      0x20\n        /* \"#utility.yul\":12059:12062   */\n      dup3\n        /* \"#utility.yul\":12055:12069   */\n      add\n        /* \"#utility.yul\":12040:12069   */\n      swap1\n      pop\n        /* \"#utility.yul\":11906:12075   */\n      swap3\n      swap2\n      pop\n      pop\n      jump\t// out\n        /* \"#utility.yul\":12081:12458   */\n    tag_210:\n        /* \"#utility.yul\":12169:12172   */\n      0x00\n        /* \"#utility.yul\":12197:12236   */\n      tag_371\n        /* \"#utility.yul\":12230:12235   */\n      dup3\n        /* \"#utility.yul\":12197:12236   */\n      tag_187\n      jump\t// in\n    tag_371:\n        /* \"#utility.yul\":12252:12323   */\n      tag_372\n        /* \"#utility.yul\":12316:12322   */\n      dup2\n        /* \"#utility.yul\":12311:12314   */\n      dup6\n        /* \"#utility.yul\":12252:12323   */\n      tag_209\n      jump\t// in\n    tag_372:\n        /* \"#utility.yul\":12245:12323   */\n      swap4\n      pop\n        /* \"#utility.yul\":12332:12397   */\n      tag_373\n        /* \"#utility.yul\":12390:12396   */\n      dup2\n        /* \"#utility.yul\":12385:12388   */\n      dup6\n        /* \"#utility.yul\":12378:12382   */\n      0x20\n        /* \"#utility.yul\":12371:12376   */\n      dup7\n        /* \"#utility.yul\":12367:12383   */\n      add\n        /* \"#utility.yul\":12332:12397   */\n      tag_189\n      jump\t// in\n    tag_373:\n        /* \"#utility.yul\":12422:12451   */\n      tag_374\n        /* \"#utility.yul\":12444:12450   */\n      dup2\n        /* \"#utility.yul\":12422:12451   */\n      tag_190\n      jump\t// in\n    tag_374:\n        /* \"#utility.yul\":12417:12420   */\n      dup5\n        /* \"#utility.yul\":12413:12452   */\n      add\n        /* \"#utility.yul\":12406:12452   */\n      swap2\n      pop\n        /* \"#utility.yul\":12173:12458   */\n      pop\n        /* \"#utility.yul\":12081:12458   */\n      swap3\n      swap2\n      pop\n      pop\n      jump\t// out\n        /* \"#utility.yul\":12464:12554   */\n    tag_211:\n        /* \"#utility.yul\":12498:12505   */\n      0x00\n        /* \"#utility.yul\":12541:12546   */\n      dup2\n        /* \"#utility.yul\":12534:12547   */\n      iszero\n        /* \"#utility.yul\":12527:12548   */\n      iszero\n        /* \"#utility.yul\":12516:12548   */\n      swap1\n      pop\n        /* \"#utility.yul\":12464:12554   */\n      swap2\n      swap1\n      pop\n      jump\t// out\n        /* \"#utility.yul\":12560:12669   */\n    tag_212:\n        /* \"#utility.yul\":12641:12662   */\n      tag_377\n        /* \"#utility.yul\":12656:12661   */\n      dup2\n        /* \"#utility.yul\":12641:12662   */\n      tag_211\n      jump\t// in\n    tag_377:\n        /* \"#utility.yul\":12636:12639   */\n      dup3\n        /* \"#utility.yul\":12629:12663   */\n      mstore\n        /* \"#utility.yul\":12560:12669   */\n      pop\n      pop\n      jump\t// out\n        /* \"#utility.yul\":12675:12801   */\n    tag_213:\n        /* \"#utility.yul\":12712:12719   */\n      0x00\n        /* \"#utility.yul\":12752:12794   */\n      0xffffffffffffffffffffffffffffffffffffffff\n        /* \"#utility.yul\":12745:12750   */\n      dup3\n        /* \"#utility.yul\":12741:12795   */\n      and\n        /* \"#utility.yul\":12730:12795   */\n      swap1\n      pop\n        /* \"#utility.yul\":12675:12801   */\n      swap2\n      swap1\n      pop\n      jump\t// out\n        /* \"#utility.yul\":12807:12903   */\n    tag_214:\n        /* \"#utility.yul\":12844:12851   */\n      0x00\n        /* \"#utility.yul\":12873:12897   */\n      tag_380\n        /* \"#utility.yul\":12891:12896   */\n      dup3\n        /* \"#utility.yul\":12873:12897   */\n      tag_213\n      jump\t// in\n    tag_380:\n        /* \"#utility.yul\":12862:12897   */\n      swap1\n      pop\n        /* \"#utility.yul\":12807:12903   */\n      swap2\n      swap1\n      pop\n      jump\t// out\n        /* \"#utility.yul\":12909:13027   */\n    tag_215:\n        /* \"#utility.yul\":12996:13020   */\n      tag_382\n        /* \"#utility.yul\":13014:13019   */\n      dup2\n        /* \"#utility.yul\":12996:13020   */\n      tag_214\n      jump\t// in\n    tag_382:\n        /* \"#utility.yul\":12991:12994   */\n      dup3\n        /* \"#utility.yul\":12984:13021   */\n      mstore\n        /* \"#utility.yul\":12909:13027   */\n      pop\n      pop\n      jump\t// out\n        /* \"#utility.yul\":13033:14200   */\n    tag_40:\n        /* \"#utility.yul\":13356:13360   */\n      0x00\n        /* \"#utility.yul\":13394:13397   */\n      0x0100\n        /* \"#utility.yul\":13383:13392   */\n      dup3\n        /* \"#utility.yul\":13379:13398   */\n      add\n        /* \"#utility.yul\":13371:13398   */\n      swap1\n      pop\n        /* \"#utility.yul\":13408:13479   */\n      tag_384\n        /* \"#utility.yul\":13476:13477   */\n      0x00\n        /* \"#utility.yul\":13465:13474   */\n      dup4\n        /* \"#utility.yul\":13461:13478   */\n      add\n        /* \"#utility.yul\":13452:13458   */\n      dup12\n        /* \"#utility.yul\":13408:13479   */\n      tag_208\n      jump\t// in\n    tag_384:\n        /* \"#utility.yul\":13526:13535   */\n      dup2\n        /* \"#utility.yul\":13520:13524   */\n      dup2\n        /* \"#utility.yul\":13516:13536   */\n      sub\n        /* \"#utility.yul\":13511:13513   */\n      0x20\n        /* \"#utility.yul\":13500:13509   */\n      dup4\n        /* \"#utility.yul\":13496:13514   */\n      add\n        /* \"#utility.yul\":13489:13537   */\n      mstore\n        /* \"#utility.yul\":13554:13632   */\n      tag_385\n        /* \"#utility.yul\":13627:13631   */\n      dup2\n        /* \"#utility.yul\":13618:13624   */\n      dup11\n        /* \"#utility.yul\":13554:13632   */\n      tag_210\n      jump\t// in\n    tag_385:\n        /* \"#utility.yul\":13546:13632   */\n      swap1\n      pop\n        /* \"#utility.yul\":13679:13688   */\n      dup2\n        /* \"#utility.yul\":13673:13677   */\n      dup2\n        /* \"#utility.yul\":13669:13689   */\n      sub\n        /* \"#utility.yul\":13664:13666   */\n      0x40\n        /* \"#utility.yul\":13653:13662   */\n      dup4\n        /* \"#utility.yul\":13649:13667   */\n      add\n        /* \"#utility.yul\":13642:13690   */\n      mstore\n        /* \"#utility.yul\":13707:13785   */\n      tag_386\n        /* \"#utility.yul\":13780:13784   */\n      dup2\n        /* \"#utility.yul\":13771:13777   */\n      dup10\n        /* \"#utility.yul\":13707:13785   */\n      tag_210\n      jump\t// in\n    tag_386:\n        /* \"#utility.yul\":13699:13785   */\n      swap1\n      pop\n        /* \"#utility.yul\":13795:13867   */\n      tag_387\n        /* \"#utility.yul\":13863:13865   */\n      0x60\n        /* \"#utility.yul\":13852:13861   */\n      dup4\n        /* \"#utility.yul\":13848:13866   */\n      add\n        /* \"#utility.yul\":13839:13845   */\n      dup9\n        /* \"#utility.yul\":13795:13867   */\n      tag_208\n      jump\t// in\n    tag_387:\n        /* \"#utility.yul\":13877:13950   */\n      tag_388\n        /* \"#utility.yul\":13945:13948   */\n      0x80\n        /* \"#utility.yul\":13934:13943   */\n      dup4\n        /* \"#utility.yul\":13930:13949   */\n      add\n        /* \"#utility.yul\":13921:13927   */\n      dup8\n        /* \"#utility.yul\":13877:13950   */\n      tag_208\n      jump\t// in\n    tag_388:\n        /* \"#utility.yul\":13960:14033   */\n      tag_389\n        /* \"#utility.yul\":14028:14031   */\n      0xa0\n        /* \"#utility.yul\":14017:14026   */\n      dup4\n        /* \"#utility.yul\":14013:14032   */\n      add\n        /* \"#utility.yul\":14004:14010   */\n      dup7\n        /* \"#utility.yul\":13960:14033   */\n      tag_208\n      jump\t// in\n    tag_389:\n        /* \"#utility.yul\":14043:14110   */\n      tag_390\n        /* \"#utility.yul\":14105:14108   */\n      0xc0\n        /* \"#utility.yul\":14094:14103   */\n      dup4\n        /* \"#utility.yul\":14090:14109   */\n      add\n        /* \"#utility.yul\":14081:14087   */\n      dup6\n        /* \"#utility.yul\":14043:14110   */\n      tag_212\n      jump\t// in\n    tag_390:\n        /* \"#utility.yul\":14120:14193   */\n      tag_391\n        /* \"#utility.yul\":14188:14191   */\n      0xe0\n        /* \"#utility.yul\":14177:14186   */\n      dup4\n        /* \"#utility.yul\":14173:14192   */\n      add\n        /* \"#utility.yul\":14164:14170   */\n      dup5\n        /* \"#utility.yul\":14120:14193   */\n      tag_215\n      jump\t// in\n    tag_391:\n        /* \"#utility.yul\":13033:14200   */\n      swap10\n      swap9\n      pop\n      pop\n      pop\n      pop\n      pop\n      pop\n      pop\n      pop\n      pop\n      jump\t// out\n        /* \"#utility.yul\":14206:14386   */\n    tag_58:\n        /* \"#utility.yul\":14254:14331   */\n      0x4e487b7100000000000000000000000000000000000000000000000000000000\n        /* \"#utility.yul\":14251:14252   */\n      0x00\n        /* \"#utility.yul\":14244:14332   */\n      mstore\n        /* \"#utility.yul\":14351:14355   */\n      0x32\n        /* \"#utility.yul\":14348:14349   */\n      0x04\n        /* \"#utility.yul\":14341:14356   */\n      mstore\n        /* \"#utility.yul\":14375:14379   */\n      0x24\n        /* \"#utility.yul\":14372:14373   */\n      0x00\n        /* \"#utility.yul\":14365:14380   */\n      revert\n        /* \"#utility.yul\":14392:14572   */\n    tag_216:\n        /* \"#utility.yul\":14440:14517   */\n      0x4e487b7100000000000000000000000000000000000000000000000000000000\n        /* \"#utility.yul\":14437:14438   */\n      0x00\n        /* \"#utility.yul\":14430:14518   */\n      mstore\n        /* \"#utility.yul\":14537:14541   */\n      0x22\n        /* \"#utility.yul\":14534:14535   */\n      0x04\n        /* \"#utility.yul\":14527:14542   */\n      mstore\n        /* \"#utility.yul\":14561:14565   */\n      0x24\n        /* \"#utility.yul\":14558:14559   */\n      0x00\n        /* \"#utility.yul\":14551:14566   */\n      revert\n        /* \"#utility.yul\":14578:14898   */\n    tag_60:\n        /* \"#utility.yul\":14622:14628   */\n      0x00\n        /* \"#utility.yul\":14659:14660   */\n      0x02\n        /* \"#utility.yul\":14653:14657   */\n      dup3\n        /* \"#utility.yul\":14649:14661   */\n      div\n        /* \"#utility.yul\":14639:14661   */\n      swap1\n      pop\n        /* \"#utility.yul\":14706:14707   */\n      0x01\n        /* \"#utility.yul\":14700:14704   */\n      dup3\n        /* \"#utility.yul\":14696:14708   */\n      and\n        /* \"#utility.yul\":14727:14745   */\n      dup1\n        /* \"#utility.yul\":14717:14798   */\n      tag_395\n      jumpi\n        /* \"#utility.yul\":14783:14787   */\n      0x7f\n        /* \"#utility.yul\":14775:14781   */\n      dup3\n        /* \"#utility.yul\":14771:14788   */\n      and\n        /* \"#utility.yul\":14761:14788   */\n      swap2\n      pop\n        /* \"#utility.yul\":14717:14798   */\n    tag_395:\n        /* \"#utility.yul\":14845:14847   */\n      0x20\n        /* \"#utility.yul\":14837:14843   */\n      dup3\n        /* \"#utility.yul\":14834:14848   */\n      lt\n        /* \"#utility.yul\":14814:14832   */\n      dup2\n        /* \"#utility.yul\":14811:14849   */\n      sub\n        /* \"#utility.yul\":14808:14892   */\n      tag_396\n      jumpi\n        /* \"#utility.yul\":14864:14882   */\n      tag_397\n      tag_216\n      jump\t// in\n    tag_397:\n        /* \"#utility.yul\":14808:14892   */\n    tag_396:\n        /* \"#utility.yul\":14629:14898   */\n      pop\n        /* \"#utility.yul\":14578:14898   */\n      swap2\n      swap1\n      pop\n      jump\t// out\n        /* \"#utility.yul\":14904:15045   */\n    tag_217:\n        /* \"#utility.yul\":14953:14957   */\n      0x00\n        /* \"#utility.yul\":14976:14979   */\n      dup2\n        /* \"#utility.yul\":14968:14979   */\n      swap1\n      pop\n        /* \"#utility.yul\":14999:15002   */\n      dup2\n        /* \"#utility.yul\":14996:14997   */\n      0x00\n        /* \"#utility.yul\":14989:15003   */\n      mstore\n        /* \"#utility.yul\":15033:15037   */\n      0x20\n        /* \"#utility.yul\":15030:15031   */\n      0x00\n        /* \"#utility.yul\":15020:15038   */\n      keccak256\n        /* \"#utility.yul\":15012:15038   */\n      swap1\n      pop\n        /* \"#utility.yul\":14904:15045   */\n      swap2\n      swap1\n      pop\n      jump\t// out\n        /* \"#utility.yul\":15051:15144   */\n    tag_218:\n        /* \"#utility.yul\":15088:15094   */\n      0x00\n        /* \"#utility.yul\":15135:15137   */\n      0x20\n        /* \"#utility.yul\":15130:15132   */\n      0x1f\n        /* \"#utility.yul\":15123:15128   */\n      dup4\n        /* \"#utility.yul\":15119:15133   */\n      add\n        /* \"#utility.yul\":15115:15138   */\n      div\n        /* \"#utility.yul\":15105:15138   */\n      swap1\n      pop\n        /* \"#utility.yul\":15051:15144   */\n      swap2\n      swap1\n      pop\n      jump\t// out\n        /* \"#utility.yul\":15150:15257   */\n    tag_219:\n        /* \"#utility.yul\":15194:15202   */\n      0x00\n        /* \"#utility.yul\":15244:15249   */\n      dup3\n        /* \"#utility.yul\":15238:15242   */\n      dup3\n        /* \"#utility.yul\":15234:15250   */\n      shl\n        /* \"#utility.yul\":15213:15250   */\n      swap1\n      pop\n        /* \"#utility.yul\":15150:15257   */\n      swap3\n      swap2\n      pop\n      pop\n      jump\t// out\n        /* \"#utility.yul\":15263:15656   */\n    tag_220:\n        /* \"#utility.yul\":15332:15338   */\n      0x00\n        /* \"#utility.yul\":15382:15383   */\n      0x08\n        /* \"#utility.yul\":15370:15380   */\n      dup4\n        /* \"#utility.yul\":15366:15384   */\n      mul\n        /* \"#utility.yul\":15405:15502   */\n      tag_402\n        /* \"#utility.yul\":15435:15501   */\n      0xffffffffffffffffffffffffffffffffffffffffffffffffffffffffffffffff\n        /* \"#utility.yul\":15424:15433   */\n      dup3\n        /* \"#utility.yul\":15405:15502   */\n      tag_219\n      jump\t// in\n    tag_402:\n        /* \"#utility.yul\":15523:15562   */\n      tag_403\n        /* \"#utility.yul\":15553:15561   */\n      dup7\n        /* \"#utility.yul\":15542:15551   */\n      dup4\n        /* \"#utility.yul\":15523:15562   */\n      tag_219\n      jump\t// in\n    tag_403:\n        /* \"#utility.yul\":15511:15562   */\n      swap6\n      pop\n        /* \"#utility.yul\":15595:15599   */\n      dup1\n        /* \"#utility.yul\":15591:15600   */\n      not\n        /* \"#utility.yul\":15584:15589   */\n      dup5\n        /* \"#utility.yul\":15580:15601   */\n      and\n        /* \"#utility.yul\":15571:15601   */\n      swap4\n      pop\n        /* \"#utility.yul\":15644:15648   */\n      dup1\n        /* \"#utility.yul\":15634:15642   */\n      dup7\n        /* \"#utility.yul\":15630:15649   */\n      and\n        /* \"#utility.yul\":15623:15628   */\n      dup5\n        /* \"#utility.yul\":15620:15650   */\n      or\n        /* \"#utility.yul\":15610:15650   */\n      swap3\n      pop\n        /* \"#utility.yul\":15339:15656   */\n      pop\n      pop\n        /* \"#utility.yul\":15263:15656   */\n      swap4\n      swap3\n      pop\n      pop\n      pop\n      jump\t// out\n        /* \"#utility.yul\":15662:15722   */\n    tag_221:\n        /* \"#utility.yul\":15690:15693   */\n      0x00\n        /* \"#utility.yul\":15711:15716   */\n      dup2\n        /* \"#utility.yul\":15704:15716   */\n      swap1\n      pop\n        /* \"#utility.yul\":15662:15722   */\n      swap2\n      swap1\n      pop\n      jump\t// out\n        /* \"#utility.yul\":15728:15870   */\n    tag_222:\n        /* \"#utility.yul\":15778:15787   */\n      0x00\n        /* \"#utility.yul\":15811:15864   */\n      tag_406\n        /* \"#utility.yul\":15829:15863   */\n      tag_407\n        /* \"#utility.yul\":15838:15862   */\n      tag_408\n        /* \"#utility.yul\":15856:15861   */\n      dup5\n        /* \"#utility.yul\":15838:15862   */\n      tag_179\n      jump\t// in\n    tag_408:\n        /* \"#utility.yul\":15829:15863   */\n      tag_221\n      jump\t// in\n    tag_407:\n        /* \"#utility.yul\":15811:15864   */\n      tag_179\n      jump\t// in\n    tag_406:\n        /* \"#utility.yul\":15798:15864   */\n      swap1\n      pop\n        /* \"#utility.yul\":15728:15870   */\n      swap2\n      swap1\n      pop\n      jump\t// out\n        /* \"#utility.yul\":15876:15951   */\n    tag_223:\n        /* \"#utility.yul\":15919:15922   */\n      0x00\n        /* \"#utility.yul\":15940:15945   */\n      dup2\n        /* \"#utility.yul\":15933:15945   */\n      swap1\n      pop\n        /* \"#utility.yul\":15876:15951   */\n      swap2\n      swap1\n      pop\n      jump\t// out\n        /* \"#utility.yul\":15957:16226   */\n    tag_224:\n        /* \"#utility.yul\":16067:16106   */\n      tag_411\n        /* \"#utility.yul\":16098:16105   */\n      dup4\n        /* \"#utility.yul\":16067:16106   */\n      tag_222\n      jump\t// in\n    tag_411:\n        /* \"#utility.yul\":16128:16219   */\n      tag_412\n        /* \"#utility.yul\":16177:16218   */\n      tag_413\n        /* \"#utility.yul\":16201:16217   */\n      dup3\n        /* \"#utility.yul\":16177:16218   */\n      tag_223\n      jump\t// in\n    tag_413:\n        /* \"#utility.yul\":16169:16175   */\n      dup5\n        /* \"#utility.yul\":16162:16166   */\n      dup5\n        /* \"#utility.yul\":16156:16167   */\n      sload\n        /* \"#utility.yul\":16128:16219   */\n      tag_220\n      jump\t// in\n    tag_412:\n        /* \"#utility.yul\":16122:16126   */\n      dup3\n        /* \"#utility.yul\":16115:16220   */\n      sstore\n        /* \"#utility.yul\":16033:16226   */\n      pop\n        /* \"#utility.yul\":15957:16226   */\n      pop\n      pop\n      pop\n      jump\t// out\n        /* \"#utility.yul\":16232:16305   */\n    tag_225:\n        /* \"#utility.yul\":16277:16280   */\n      0x00\n        /* \"#utility.yul\":16232:16305   */\n      swap1\n      jump\t// out\n        /* \"#utility.yul\":16311:16500   */\n    tag_226:\n        /* \"#utility.yul\":16388:16420   */\n      tag_416\n      tag_225\n      jump\t// in\n    tag_416:\n        /* \"#utility.yul\":16429:16494   */\n      tag_417\n        /* \"#utility.yul\":16487:16493   */\n      dup2\n        /* \"#utility.yul\":16479:16485   */\n      dup5\n        /* \"#utility.yul\":16473:16477   */\n      dup5\n        /* \"#utility.yul\":16429:16494   */\n      tag_224\n      jump\t// in\n    tag_417:\n        /* \"#utility.yul\":16364:16500   */\n      pop\n        /* \"#utility.yul\":16311:16500   */\n      pop\n      pop\n      jump\t// out\n        /* \"#utility.yul\":16506:16692   */\n    tag_227:\n        /* \"#utility.yul\":16566:16686   */\n    tag_419:\n        /* \"#utility.yul\":16583:16586   */\n      dup2\n        /* \"#utility.yul\":16576:16581   */\n      dup2\n        /* \"#utility.yul\":16573:16587   */\n      lt\n        /* \"#utility.yul\":16566:16686   */\n      iszero\n      tag_421\n      jumpi\n        /* \"#utility.yul\":16637:16676   */\n      tag_422\n        /* \"#utility.yul\":16674:16675   */\n      0x00\n        /* \"#utility.yul\":16667:16672   */\n      dup3\n        /* \"#utility.yul\":16637:16676   */\n      tag_226\n      jump\t// in\n    tag_422:\n        /* \"#utility.yul\":16610:16611   */\n      0x01\n        /* \"#utility.yul\":16603:16608   */\n      dup2\n        /* \"#utility.yul\":16599:16612   */\n      add\n        /* \"#utility.yul\":16590:16612   */\n      swap1\n      pop\n        /* \"#utility.yul\":16566:16686   */\n      jump(tag_419)\n    tag_421:\n        /* \"#utility.yul\":16506:16692   */\n      pop\n      pop\n      jump\t// out\n        /* \"#utility.yul\":16698:17241   */\n    tag_228:\n        /* \"#utility.yul\":16799:16801   */\n      0x1f\n        /* \"#utility.yul\":16794:16797   */\n      dup3\n        /* \"#utility.yul\":16791:16802   */\n      gt\n        /* \"#utility.yul\":16788:17234   */\n      iszero\n      tag_424\n      jumpi\n        /* \"#utility.yul\":16833:16871   */\n      tag_425\n        /* \"#utility.yul\":16865:16870   */\n      dup2\n        /* \"#utility.yul\":16833:16871   */\n      tag_217\n      jump\t// in\n    tag_425:\n        /* \"#utility.yul\":16917:16946   */\n      tag_426\n        /* \"#utility.yul\":16935:16945   */\n      dup5\n        /* \"#utility.yul\":16917:16946   */\n      tag_218\n      jump\t// in\n    tag_426:\n        /* \"#utility.yul\":16907:16915   */\n      dup2\n        /* \"#utility.yul\":16903:16947   */\n      add\n        /* \"#utility.yul\":17100:17102   */\n      0x20\n        /* \"#utility.yul\":17088:17098   */\n      dup6\n        /* \"#utility.yul\":17085:17103   */\n      lt\n        /* \"#utility.yul\":17082:17131   */\n      iszero\n      tag_427\n      jumpi\n        /* \"#utility.yul\":17121:17129   */\n      dup2\n        /* \"#utility.yul\":17106:17129   */\n      swap1\n      pop\n        /* \"#utility.yul\":17082:17131   */\n    tag_427:\n        /* \"#utility.yul\":17144:17224   */\n      tag_428\n        /* \"#utility.yul\":17200:17222   */\n      tag_429\n        /* \"#utility.yul\":17218:17221   */\n      dup6\n        /* \"#utility.yul\":17200:17222   */\n      tag_218\n      jump\t// in\n    tag_429:\n        /* \"#utility.yul\":17190:17198   */\n      dup4\n        /* \"#utility.yul\":17186:17223   */\n      add\n        /* \"#utility.yul\":17173:17184   */\n      dup3\n        /* \"#utility.yul\":17144:17224   */\n      tag_227\n      jump\t// in\n    tag_428:\n        /* \"#utility.yul\":16803:17234   */\n      pop\n      pop\n        /* \"#utility.yul\":16788:17234   */\n    tag_424:\n        /* \"#utility.yul\":16698:17241   */\n      pop\n      pop\n      pop\n      jump\t// out\n        /* \"#utility.yul\":17247:17364   */\n    tag_229:\n        /* \"#utility.yul\":17301:17309   */\n      0x00\n        /* \"#utility.yul\":17351:17356   */\n      dup3\n        /* \"#utility.yul\":17345:17349   */\n      dup3\n        /* \"#utility.yul\":17341:17357   */\n      shr\n        /* \"#utility.yul\":17320:17357   */\n      swap1\n      pop\n        /* \"#utility.yul\":17247:17364   */\n      swap3\n      swap2\n      pop\n      pop\n      jump\t// out\n        /* \"#utility.yul\":17370:17539   */\n    tag_230:\n        /* \"#utility.yul\":17414:17420   */\n      0x00\n        /* \"#utility.yul\":17447:17498   */\n      tag_432\n        /* \"#utility.yul\":17495:17496   */\n      0x00\n        /* \"#utility.yul\":17491:17497   */\n      not\n        /* \"#utility.yul\":17483:17488   */\n      dup5\n        /* \"#utility.yul\":17480:17481   */\n      0x08\n        /* \"#utility.yul\":17476:17489   */\n      mul\n        /* \"#utility.yul\":17447:17498   */\n      tag_229\n      jump\t// in\n    tag_432:\n        /* \"#utility.yul\":17443:17499   */\n      not\n        /* \"#utility.yul\":17528:17532   */\n      dup1\n        /* \"#utility.yul\":17522:17526   */\n      dup4\n        /* \"#utility.yul\":17518:17533   */\n      and\n        /* \"#utility.yul\":17508:17533   */\n      swap2\n      pop\n        /* \"#utility.yul\":17421:17539   */\n      pop\n        /* \"#utility.yul\":17370:17539   */\n      swap3\n      swap2\n      pop\n      pop\n      jump\t// out\n        /* \"#utility.yul\":17544:17839   */\n    tag_231:\n        /* \"#utility.yul\":17620:17624   */\n      0x00\n        /* \"#utility.yul\":17766:17795   */\n      tag_434\n        /* \"#utility.yul\":17791:17794   */\n      dup4\n        /* \"#utility.yul\":17785:17789   */\n      dup4\n        /* \"#utility.yul\":17766:17795   */\n      tag_230\n      jump\t// in\n    tag_434:\n        /* \"#utility.yul\":17758:17795   */\n      swap2\n      pop\n        /* \"#utility.yul\":17828:17831   */\n      dup3\n        /* \"#utility.yul\":17825:17826   */\n      0x02\n        /* \"#utility.yul\":17821:17832   */\n      mul\n        /* \"#utility.yul\":17815:17819   */\n      dup3\n        /* \"#utility.yul\":17812:17833   */\n      or\n        /* \"#utility.yul\":17804:17833   */\n      swap1\n      pop\n        /* \"#utility.yul\":17544:17839   */\n      swap3\n      swap2\n      pop\n      pop\n      jump\t// out\n        /* \"#utility.yul\":17844:19239   */\n    tag_69:\n        /* \"#utility.yul\":17961:17998   */\n      tag_436\n        /* \"#utility.yul\":17994:17997   */\n      dup3\n        /* \"#utility.yul\":17961:17998   */\n      tag_187\n      jump\t// in\n    tag_436:\n        /* \"#utility.yul\":18063:18081   */\n      0xffffffffffffffff\n        /* \"#utility.yul\":18055:18061   */\n      dup2\n        /* \"#utility.yul\":18052:18082   */\n      gt\n        /* \"#utility.yul\":18049:18105   */\n      iszero\n      tag_437\n      jumpi\n        /* \"#utility.yul\":18085:18103   */\n      tag_438\n      tag_47\n      jump\t// in\n    tag_438:\n        /* \"#utility.yul\":18049:18105   */\n    tag_437:\n        /* \"#utility.yul\":18129:18167   */\n      tag_439\n        /* \"#utility.yul\":18161:18165   */\n      dup3\n        /* \"#utility.yul\":18155:18166   */\n      sload\n        /* \"#utility.yul\":18129:18167   */\n      tag_60\n      jump\t// in\n    tag_439:\n        /* \"#utility.yul\":18214:18281   */\n      tag_440\n        /* \"#utility.yul\":18274:18280   */\n      dup3\n        /* \"#utility.yul\":18266:18272   */\n      dup3\n        /* \"#utility.yul\":18260:18264   */\n      dup6\n        /* \"#utility.yul\":18214:18281   */\n      tag_228\n      jump\t// in\n    tag_440:\n        /* \"#utility.yul\":18308:18309   */\n      0x00\n        /* \"#utility.yul\":18332:18336   */\n      0x20\n        /* \"#utility.yul\":18319:18336   */\n      swap1\n      pop\n        /* \"#utility.yul\":18364:18366   */\n      0x1f\n        /* \"#utility.yul\":18356:18362   */\n      dup4\n        /* \"#utility.yul\":18353:18367   */\n      gt\n        /* \"#utility.yul\":18381:18382   */\n      0x01\n        /* \"#utility.yul\":18376:18994   */\n      dup2\n      eq\n      tag_442\n      jumpi\n        /* \"#utility.yul\":19038:19039   */\n      0x00\n        /* \"#utility.yul\":19055:19061   */\n      dup5\n        /* \"#utility.yul\":19052:19129   */\n      iszero\n      tag_443\n      jumpi\n        /* \"#utility.yul\":19104:19113   */\n      dup3\n        /* \"#utility.yul\":19099:19102   */\n      dup8\n        /* \"#utility.yul\":19095:19114   */\n      add\n        /* \"#utility.yul\":19089:19115   */\n      mload\n        /* \"#utility.yul\":19080:19115   */\n      swap1\n      pop\n        /* \"#utility.yul\":19052:19129   */\n    tag_443:\n        /* \"#utility.yul\":19155:19222   */\n      tag_444\n        /* \"#utility.yul\":19215:19221   */\n      dup6\n        /* \"#utility.yul\":19208:19213   */\n      dup3\n        /* \"#utility.yul\":19155:19222   */\n      tag_231\n      jump\t// in\n    tag_444:\n        /* \"#utility.yul\":19149:19153   */\n      dup7\n        /* \"#utility.yul\":19142:19223   */\n      sstore\n        /* \"#utility.yul\":19011:19233   */\n      pop\n        /* \"#utility.yul\":18346:19233   */\n      jump(tag_441)\n        /* \"#utility.yul\":18376:18994   */\n    tag_442:\n        /* \"#utility.yul\":18428:18432   */\n      0x1f\n        /* \"#utility.yul\":18424:18433   */\n      not\n        /* \"#utility.yul\":18416:18422   */\n      dup5\n        /* \"#utility.yul\":18412:18434   */\n      and\n        /* \"#utility.yul\":18462:18499   */\n      tag_445\n        /* \"#utility.yul\":18494:18498   */\n      dup7\n        /* \"#utility.yul\":18462:18499   */\n      tag_217\n      jump\t// in\n    tag_445:\n        /* \"#utility.yul\":18521:18522   */\n      0x00\n        /* \"#utility.yul\":18535:18743   */\n    tag_446:\n        /* \"#utility.yul\":18549:18556   */\n      dup3\n        /* \"#utility.yul\":18546:18547   */\n      dup2\n        /* \"#utility.yul\":18543:18557   */\n      lt\n        /* \"#utility.yul\":18535:18743   */\n      iszero\n      tag_448\n      jumpi\n        /* \"#utility.yul\":18628:18637   */\n      dup5\n        /* \"#utility.yul\":18623:18626   */\n      dup10\n        /* \"#utility.yul\":18619:18638   */\n      add\n        /* \"#utility.yul\":18613:18639   */\n      mload\n        /* \"#utility.yul\":18605:18611   */\n      dup3\n        /* \"#utility.yul\":18598:18640   */\n      sstore\n        /* \"#utility.yul\":18679:18680   */\n      0x01\n        /* \"#utility.yul\":18671:18677   */\n      dup3\n        /* \"#utility.yul\":18667:18681   */\n      add\n        /* \"#utility.yul\":18657:18681   */\n      swap2\n      pop\n        /* \"#utility.yul\":18726:18728   */\n      0x20\n        /* \"#utility.yul\":18715:18724   */\n      dup6\n        /* \"#utility.yul\":18711:18729   */\n      add\n        /* \"#utility.yul\":18698:18729   */\n      swap5\n      pop\n        /* \"#utility.yul\":18572:18576   */\n      0x20\n        /* \"#utility.yul\":18569:18570   */\n      dup2\n        /* \"#utility.yul\":18565:18577   */\n      add\n        /* \"#utility.yul\":18560:18577   */\n      swap1\n      pop\n        /* \"#utility.yul\":18535:18743   */\n      jump(tag_446)\n    tag_448:\n        /* \"#utility.yul\":18771:18777   */\n      dup7\n        /* \"#utility.yul\":18762:18769   */\n      dup4\n        /* \"#utility.yul\":18759:18778   */\n      lt\n        /* \"#utility.yul\":18756:18935   */\n      iszero\n      tag_449\n      jumpi\n        /* \"#utility.yul\":18829:18838   */\n      dup5\n        /* \"#utility.yul\":18824:18827   */\n      dup10\n        /* \"#utility.yul\":18820:18839   */\n      add\n        /* \"#utility.yul\":18814:18840   */\n      mload\n        /* \"#utility.yul\":18872:18920   */\n      tag_450\n        /* \"#utility.yul\":18914:18918   */\n      0x1f\n        /* \"#utility.yul\":18906:18912   */\n      dup10\n        /* \"#utility.yul\":18902:18919   */\n      and\n        /* \"#utility.yul\":18891:18900   */\n      dup3\n        /* \"#utility.yul\":18872:18920   */\n      tag_230\n      jump\t// in\n    tag_450:\n        /* \"#utility.yul\":18864:18870   */\n      dup4\n        /* \"#utility.yul\":18857:18921   */\n      sstore\n        /* \"#utility.yul\":18779:18935   */\n      pop\n        /* \"#utility.yul\":18756:18935   */\n    tag_449:\n        /* \"#utility.yul\":18981:18982   */\n      0x01\n        /* \"#utility.yul\":18977:18978   */\n      0x02\n        /* \"#utility.yul\":18969:18975   */\n      dup9\n        /* \"#utility.yul\":18965:18979   */\n      mul\n        /* \"#utility.yul\":18961:18983   */\n      add\n        /* \"#utility.yul\":18955:18959   */\n      dup9\n        /* \"#utility.yul\":18948:18984   */\n      sstore\n        /* \"#utility.yul\":18383:18994   */\n      pop\n      pop\n      pop\n        /* \"#utility.yul\":18346:19233   */\n    tag_441:\n      pop\n        /* \"#utility.yul\":17936:19239   */\n      pop\n      pop\n      pop\n        /* \"#utility.yul\":17844:19239   */\n      pop\n      pop\n      jump\t// out\n        /* \"#utility.yul\":19245:19425   */\n    tag_232:\n        /* \"#utility.yul\":19293:19370   */\n      0x4e487b7100000000000000000000000000000000000000000000000000000000\n        /* \"#utility.yul\":19290:19291   */\n      0x00\n        /* \"#utility.yul\":19283:19371   */\n      mstore\n        /* \"#utility.yul\":19390:19394   */\n      0x11\n        /* \"#utility.yul\":19387:19388   */\n      0x04\n        /* \"#utility.yul\":19380:19395   */\n      mstore\n        /* \"#utility.yul\":19414:19418   */\n      0x24\n        /* \"#utility.yul\":19411:19412   */\n      0x00\n        /* \"#utility.yul\":19404:19419   */\n      revert\n        /* \"#utility.yul\":19431:19664   */\n    tag_72:\n        /* \"#utility.yul\":19470:19473   */\n      0x00\n        /* \"#utility.yul\":19493:19517   */\n      tag_453\n        /* \"#utility.yul\":19511:19516   */\n      dup3\n        /* \"#utility.yul\":19493:19517   */\n      tag_179\n      jump\t// in\n    tag_453:\n        /* \"#utility.yul\":19484:19517   */\n      swap2\n      pop\n        /* \"#utility.yul\":19539:19605   */\n      0xffffffffffffffffffffffffffffffffffffffffffffffffffffffffffffffff\n        /* \"#utility.yul\":19532:19537   */\n      dup3\n        /* \"#utility.yul\":19529:19606   */\n      sub\n        /* \"#utility.yul\":19526:19629   */\n      tag_454\n      jumpi\n        /* \"#utility.yul\":19609:19627   */\n      tag_455\n      tag_232\n      jump\t// in\n    tag_455:\n        /* \"#utility.yul\":19526:19629   */\n    tag_454:\n        /* \"#utility.yul\":19656:19657   */\n      0x01\n        /* \"#utility.yul\":19649:19654   */\n      dup3\n        /* \"#utility.yul\":19645:19658   */\n      add\n        /* \"#utility.yul\":19638:19658   */\n      swap1\n      pop\n        /* \"#utility.yul\":19431:19664   */\n      swap2\n      swap1\n      pop\n      jump\t// out\n        /* \"#utility.yul\":19670:19910   */\n    tag_233:\n        /* \"#utility.yul\":19810:19844   */\n      0x4572726f20494420646f2070726f6a65746f20696e76616c69646f206f752070\n        /* \"#utility.yul\":19806:19807   */\n      0x00\n        /* \"#utility.yul\":19798:19804   */\n      dup3\n        /* \"#utility.yul\":19794:19808   */\n      add\n        /* \"#utility.yul\":19787:19845   */\n      mstore\n        /* \"#utility.yul\":19879:19902   */\n      0x726f6a65746f206e616f20656e636f6e747261646f0000000000000000000000\n        /* \"#utility.yul\":19874:19876   */\n      0x20\n        /* \"#utility.yul\":19866:19872   */\n      dup3\n        /* \"#utility.yul\":19862:19877   */\n      add\n        /* \"#utility.yul\":19855:19903   */\n      mstore\n        /* \"#utility.yul\":19670:19910   */\n      pop\n      jump\t// out\n        /* \"#utility.yul\":19916:20282   */\n    tag_234:\n        /* \"#utility.yul\":20058:20061   */\n      0x00\n        /* \"#utility.yul\":20079:20146   */\n      tag_458\n        /* \"#utility.yul\":20143:20145   */\n      0x35\n        /* \"#utility.yul\":20138:20141   */\n      dup4\n        /* \"#utility.yul\":20079:20146   */\n      tag_209\n      jump\t// in\n    tag_458:\n        /* \"#utility.yul\":20072:20146   */\n      swap2\n      pop\n        /* \"#utility.yul\":20155:20248   */\n      tag_459\n        /* \"#utility.yul\":20244:20247   */\n      dup3\n        /* \"#utility.yul\":20155:20248   */\n      tag_233\n      jump\t// in\n    tag_459:\n        /* \"#utility.yul\":20273:20275   */\n      0x40\n        /* \"#utility.yul\":20268:20271   */\n      dup3\n        /* \"#utility.yul\":20264:20276   */\n      add\n        /* \"#utility.yul\":20257:20276   */\n      swap1\n      pop\n        /* \"#utility.yul\":19916:20282   */\n      swap2\n      swap1\n      pop\n      jump\t// out\n        /* \"#utility.yul\":20288:20707   */\n    tag_76:\n        /* \"#utility.yul\":20454:20458   */\n      0x00\n        /* \"#utility.yul\":20492:20494   */\n      0x20\n        /* \"#utility.yul\":20481:20490   */\n      dup3\n        /* \"#utility.yul\":20477:20495   */\n      add\n        /* \"#utility.yul\":20469:20495   */\n      swap1\n      pop\n        /* \"#utility.yul\":20541:20550   */\n      dup2\n        /* \"#utility.yul\":20535:20539   */\n      dup2\n        /* \"#utility.yul\":20531:20551   */\n      sub\n        /* \"#utility.yul\":20527:20528   */\n      0x00\n        /* \"#utility.yul\":20516:20525   */\n      dup4\n        /* \"#utility.yul\":20512:20529   */\n      add\n        /* \"#utility.yul\":20505:20552   */\n      mstore\n        /* \"#utility.yul\":20569:20700   */\n      tag_461\n        /* \"#utility.yul\":20695:20699   */\n      dup2\n        /* \"#utility.yul\":20569:20700   */\n      tag_234\n      jump\t// in\n    tag_461:\n        /* \"#utility.yul\":20561:20700   */\n      swap1\n      pop\n        /* \"#utility.yul\":20288:20707   */\n      swap2\n      swap1\n      pop\n      jump\t// out\n        /* \"#utility.yul\":20713:20955   */\n    tag_235:\n        /* \"#utility.yul\":20853:20887   */\n      0x4572726f20536f6d656e7465206f20646f6e6f20646f2070726f6a65746f2070\n        /* \"#utility.yul\":20849:20850   */\n      0x00\n        /* \"#utility.yul\":20841:20847   */\n      dup3\n        /* \"#utility.yul\":20837:20851   */\n      add\n        /* \"#utility.yul\":20830:20888   */\n      mstore\n        /* \"#utility.yul\":20922:20947   */\n      0x6f64652066696e616c697a6172206f2070726f6a65746f000000000000000000\n        /* \"#utility.yul\":20917:20919   */\n      0x20\n        /* \"#utility.yul\":20909:20915   */\n      dup3\n        /* \"#utility.yul\":20905:20920   */\n      add\n        /* \"#utility.yul\":20898:20948   */\n      mstore\n        /* \"#utility.yul\":20713:20955   */\n      pop\n      jump\t// out\n        /* \"#utility.yul\":20961:21327   */\n    tag_236:\n        /* \"#utility.yul\":21103:21106   */\n      0x00\n        /* \"#utility.yul\":21124:21191   */\n      tag_464\n        /* \"#utility.yul\":21188:21190   */\n      0x37\n        /* \"#utility.yul\":21183:21186   */\n      dup4\n        /* \"#utility.yul\":21124:21191   */\n      tag_209\n      jump\t// in\n    tag_464:\n        /* \"#utility.yul\":21117:21191   */\n      swap2\n      pop\n        /* \"#utility.yul\":21200:21293   */\n      tag_465\n        /* \"#utility.yul\":21289:21292   */\n      dup3\n        /* \"#utility.yul\":21200:21293   */\n      tag_235\n      jump\t// in\n    tag_465:\n        /* \"#utility.yul\":21318:21320   */\n      0x40\n        /* \"#utility.yul\":21313:21316   */\n      dup3\n        /* \"#utility.yul\":21309:21321   */\n      add\n        /* \"#utility.yul\":21302:21321   */\n      swap1\n      pop\n        /* \"#utility.yul\":20961:21327   */\n      swap2\n      swap1\n      pop\n      jump\t// out\n        /* \"#utility.yul\":21333:21752   */\n    tag_79:\n        /* \"#utility.yul\":21499:21503   */\n      0x00\n        /* \"#utility.yul\":21537:21539   */\n      0x20\n        /* \"#utility.yul\":21526:21535   */\n      dup3\n        /* \"#utility.yul\":21522:21540   */\n      add\n        /* \"#utility.yul\":21514:21540   */\n      swap1\n      pop\n        /* \"#utility.yul\":21586:21595   */\n      dup2\n        /* \"#utility.yul\":21580:21584   */\n      dup2\n        /* \"#utility.yul\":21576:21596   */\n      sub\n        /* \"#utility.yul\":21572:21573   */\n      0x00\n        /* \"#utility.yul\":21561:21570   */\n      dup4\n        /* \"#utility.yul\":21557:21574   */\n      add\n        /* \"#utility.yul\":21550:21597   */\n      mstore\n        /* \"#utility.yul\":21614:21745   */\n      tag_467\n        /* \"#utility.yul\":21740:21744   */\n      dup2\n        /* \"#utility.yul\":21614:21745   */\n      tag_236\n      jump\t// in\n    tag_467:\n        /* \"#utility.yul\":21606:21745   */\n      swap1\n      pop\n        /* \"#utility.yul\":21333:21752   */\n      swap2\n      swap1\n      pop\n      jump\t// out\n        /* \"#utility.yul\":21758:21980   */\n    tag_237:\n        /* \"#utility.yul\":21898:21932   */\n      0x4572726f20457374652070726f6a65746f206a6120666f692066696e616c697a\n        /* \"#utility.yul\":21894:21895   */\n      0x00\n        /* \"#utility.yul\":21886:21892   */\n      dup3\n        /* \"#utility.yul\":21882:21896   */\n      add\n        /* \"#utility.yul\":21875:21933   */\n      mstore\n        /* \"#utility.yul\":21967:21972   */\n      0x61646f0000000000000000000000000000000000000000000000000000000000\n        /* \"#utility.yul\":21962:21964   */\n      0x20\n        /* \"#utility.yul\":21954:21960   */\n      dup3\n        /* \"#utility.yul\":21950:21965   */\n      add\n        /* \"#utility.yul\":21943:21973   */\n      mstore\n        /* \"#utility.yul\":21758:21980   */\n      pop\n      jump\t// out\n        /* \"#utility.yul\":21986:22352   */\n    tag_238:\n        /* \"#utility.yul\":22128:22131   */\n      0x00\n        /* \"#utility.yul\":22149:22216   */\n      tag_470\n        /* \"#utility.yul\":22213:22215   */\n      0x23\n        /* \"#utility.yul\":22208:22211   */\n      dup4\n        /* \"#utility.yul\":22149:22216   */\n      tag_209\n      jump\t// in\n    tag_470:\n        /* \"#utility.yul\":22142:22216   */\n      swap2\n      pop\n        /* \"#utility.yul\":22225:22318   */\n      tag_471\n        /* \"#utility.yul\":22314:22317   */\n      dup3\n        /* \"#utility.yul\":22225:22318   */\n      tag_237\n      jump\t// in\n    tag_471:\n        /* \"#utility.yul\":22343:22345   */\n      0x40\n        /* \"#utility.yul\":22338:22341   */\n      dup3\n        /* \"#utility.yul\":22334:22346   */\n      add\n        /* \"#utility.yul\":22327:22346   */\n      swap1\n      pop\n        /* \"#utility.yul\":21986:22352   */\n      swap2\n      swap1\n      pop\n      jump\t// out\n        /* \"#utility.yul\":22358:22777   */\n    tag_82:\n        /* \"#utility.yul\":22524:22528   */\n      0x00\n        /* \"#utility.yul\":22562:22564   */\n      0x20\n        /* \"#utility.yul\":22551:22560   */\n      dup3\n        /* \"#utility.yul\":22547:22565   */\n      add\n        /* \"#utility.yul\":22539:22565   */\n      swap1\n      pop\n        /* \"#utility.yul\":22611:22620   */\n      dup2\n        /* \"#utility.yul\":22605:22609   */\n      dup2\n        /* \"#utility.yul\":22601:22621   */\n      sub\n        /* \"#utility.yul\":22597:22598   */\n      0x00\n        /* \"#utility.yul\":22586:22595   */\n      dup4\n        /* \"#utility.yul\":22582:22599   */\n      add\n        /* \"#utility.yul\":22575:22622   */\n      mstore\n        /* \"#utility.yul\":22639:22770   */\n      tag_473\n        /* \"#utility.yul\":22765:22769   */\n      dup2\n        /* \"#utility.yul\":22639:22770   */\n      tag_238\n      jump\t// in\n    tag_473:\n        /* \"#utility.yul\":22631:22770   */\n      swap1\n      pop\n        /* \"#utility.yul\":22358:22777   */\n      swap2\n      swap1\n      pop\n      jump\t// out\n        /* \"#utility.yul\":22783:23163   */\n    tag_239:\n        /* \"#utility.yul\":22923:22957   */\n      0x4572726f2050726f6a65746f206e616f20706f6465207365722066696e616c69\n        /* \"#utility.yul\":22919:22920   */\n      0x00\n        /* \"#utility.yul\":22911:22917   */\n      dup3\n        /* \"#utility.yul\":22907:22921   */\n      add\n        /* \"#utility.yul\":22900:22958   */\n      mstore\n        /* \"#utility.yul\":22992:23026   */\n      0x7a61646f20617465207175652061206d6574612066696e616e63656972612073\n        /* \"#utility.yul\":22987:22989   */\n      0x20\n        /* \"#utility.yul\":22979:22985   */\n      dup3\n        /* \"#utility.yul\":22975:22990   */\n      add\n        /* \"#utility.yul\":22968:23027   */\n      mstore\n        /* \"#utility.yul\":23061:23095   */\n      0x656a61206174696e67696461206f75206120646174612064652066696e616c69\n        /* \"#utility.yul\":23056:23058   */\n      0x40\n        /* \"#utility.yul\":23048:23054   */\n      dup3\n        /* \"#utility.yul\":23044:23059   */\n      add\n        /* \"#utility.yul\":23037:23096   */\n      mstore\n        /* \"#utility.yul\":23130:23155   */\n      0x7a6163616f2073656a6120756c74726170617373616461000000000000000000\n        /* \"#utility.yul\":23125:23127   */\n      0x60\n        /* \"#utility.yul\":23117:23123   */\n      dup3\n        /* \"#utility.yul\":23113:23128   */\n      add\n        /* \"#utility.yul\":23106:23156   */\n      mstore\n        /* \"#utility.yul\":22783:23163   */\n      pop\n      jump\t// out\n        /* \"#utility.yul\":23169:23537   */\n    tag_240:\n        /* \"#utility.yul\":23311:23314   */\n      0x00\n        /* \"#utility.yul\":23332:23400   */\n      tag_476\n        /* \"#utility.yul\":23396:23399   */\n      0x77\n        /* \"#utility.yul\":23391:23394   */\n      dup4\n        /* \"#utility.yul\":23332:23400   */\n      tag_209\n      jump\t// in\n    tag_476:\n        /* \"#utility.yul\":23325:23400   */\n      swap2\n      pop\n        /* \"#utility.yul\":23409:23502   */\n      tag_477\n        /* \"#utility.yul\":23498:23501   */\n      dup3\n        /* \"#utility.yul\":23409:23502   */\n      tag_239\n      jump\t// in\n    tag_477:\n        /* \"#utility.yul\":23527:23530   */\n      0x80\n        /* \"#utility.yul\":23522:23525   */\n      dup3\n        /* \"#utility.yul\":23518:23531   */\n      add\n        /* \"#utility.yul\":23511:23531   */\n      swap1\n      pop\n        /* \"#utility.yul\":23169:23537   */\n      swap2\n      swap1\n      pop\n      jump\t// out\n        /* \"#utility.yul\":23543:23962   */\n    tag_86:\n        /* \"#utility.yul\":23709:23713   */\n      0x00\n        /* \"#utility.yul\":23747:23749   */\n      0x20\n        /* \"#utility.yul\":23736:23745   */\n      dup3\n        /* \"#utility.yul\":23732:23750   */\n      add\n        /* \"#utility.yul\":23724:23750   */\n      swap1\n      pop\n        /* \"#utility.yul\":23796:23805   */\n      dup2\n        /* \"#utility.yul\":23790:23794   */\n      dup2\n        /* \"#utility.yul\":23786:23806   */\n      sub\n        /* \"#utility.yul\":23782:23783   */\n      0x00\n        /* \"#utility.yul\":23771:23780   */\n      dup4\n        /* \"#utility.yul\":23767:23784   */\n      add\n        /* \"#utility.yul\":23760:23807   */\n      mstore\n        /* \"#utility.yul\":23824:23955   */\n      tag_479\n        /* \"#utility.yul\":23950:23954   */\n      dup2\n        /* \"#utility.yul\":23824:23955   */\n      tag_240\n      jump\t// in\n    tag_479:\n        /* \"#utility.yul\":23816:23955   */\n      swap1\n      pop\n        /* \"#utility.yul\":23543:23962   */\n      swap2\n      swap1\n      pop\n      jump\t// out\n        /* \"#utility.yul\":23968:24148   */\n    tag_241:\n        /* \"#utility.yul\":24016:24093   */\n      0x4e487b7100000000000000000000000000000000000000000000000000000000\n        /* \"#utility.yul\":24013:24014   */\n      0x00\n        /* \"#utility.yul\":24006:24094   */\n      mstore\n        /* \"#utility.yul\":24113:24117   */\n      0x12\n        /* \"#utility.yul\":24110:24111   */\n      0x04\n        /* \"#utility.yul\":24103:24118   */\n      mstore\n        /* \"#utility.yul\":24137:24141   */\n      0x24\n        /* \"#utility.yul\":24134:24135   */\n      0x00\n        /* \"#utility.yul\":24127:24142   */\n      revert\n        /* \"#utility.yul\":24154:24339   */\n    tag_88:\n        /* \"#utility.yul\":24194:24195   */\n      0x00\n        /* \"#utility.yul\":24211:24231   */\n      tag_482\n        /* \"#utility.yul\":24229:24230   */\n      dup3\n        /* \"#utility.yul\":24211:24231   */\n      tag_179\n      jump\t// in\n    tag_482:\n        /* \"#utility.yul\":24206:24231   */\n      swap2\n      pop\n        /* \"#utility.yul\":24245:24265   */\n      tag_483\n        /* \"#utility.yul\":24263:24264   */\n      dup4\n        /* \"#utility.yul\":24245:24265   */\n      tag_179\n      jump\t// in\n    tag_483:\n        /* \"#utility.yul\":24240:24265   */\n      swap3\n      pop\n        /* \"#utility.yul\":24284:24285   */\n      dup3\n        /* \"#utility.yul\":24274:24309   */\n      tag_484\n      jumpi\n        /* \"#utility.yul\":24289:24307   */\n      tag_485\n      tag_241\n      jump\t// in\n    tag_485:\n        /* \"#utility.yul\":24274:24309   */\n    tag_484:\n        /* \"#utility.yul\":24331:24332   */\n      dup3\n        /* \"#utility.yul\":24328:24329   */\n      dup3\n        /* \"#utility.yul\":24324:24333   */\n      div\n        /* \"#utility.yul\":24319:24333   */\n      swap1\n      pop\n        /* \"#utility.yul\":24154:24339   */\n      swap3\n      swap2\n      pop\n      pop\n      jump\t// out\n        /* \"#utility.yul\":24345:24539   */\n    tag_90:\n        /* \"#utility.yul\":24385:24389   */\n      0x00\n        /* \"#utility.yul\":24405:24425   */\n      tag_487\n        /* \"#utility.yul\":24423:24424   */\n      dup3\n        /* \"#utility.yul\":24405:24425   */\n      tag_179\n      jump\t// in\n    tag_487:\n        /* \"#utility.yul\":24400:24425   */\n      swap2\n      pop\n        /* \"#utility.yul\":24439:24459   */\n      tag_488\n        /* \"#utility.yul\":24457:24458   */\n      dup4\n        /* \"#utility.yul\":24439:24459   */\n      tag_179\n      jump\t// in\n    tag_488:\n        /* \"#utility.yul\":24434:24459   */\n      swap3\n      pop\n        /* \"#utility.yul\":24483:24484   */\n      dup3\n        /* \"#utility.yul\":24480:24481   */\n      dup3\n        /* \"#utility.yul\":24476:24485   */\n      sub\n        /* \"#utility.yul\":24468:24485   */\n      swap1\n      pop\n        /* \"#utility.yul\":24507:24508   */\n      dup2\n        /* \"#utility.yul\":24501:24505   */\n      dup2\n        /* \"#utility.yul\":24498:24509   */\n      gt\n        /* \"#utility.yul\":24495:24532   */\n      iszero\n      tag_489\n      jumpi\n        /* \"#utility.yul\":24512:24530   */\n      tag_490\n      tag_232\n      jump\t// in\n    tag_490:\n        /* \"#utility.yul\":24495:24532   */\n    tag_489:\n        /* \"#utility.yul\":24345:24539   */\n      swap3\n      swap2\n      pop\n      pop\n      jump\t// out\n        /* \"#utility.yul\":24545:24783   */\n    tag_242:\n        /* \"#utility.yul\":24685:24719   */\n      0x4572726f20536f6d656e7465206f20646f6e6f20646f2070726f6a65746f2070\n        /* \"#utility.yul\":24681:24682   */\n      0x00\n        /* \"#utility.yul\":24673:24679   */\n      dup3\n        /* \"#utility.yul\":24669:24683   */\n      add\n        /* \"#utility.yul\":24662:24720   */\n      mstore\n        /* \"#utility.yul\":24754:24775   */\n      0x6f64652061646963696f6e6172206d6574617300000000000000000000000000\n        /* \"#utility.yul\":24749:24751   */\n      0x20\n        /* \"#utility.yul\":24741:24747   */\n      dup3\n        /* \"#utility.yul\":24737:24752   */\n      add\n        /* \"#utility.yul\":24730:24776   */\n      mstore\n        /* \"#utility.yul\":24545:24783   */\n      pop\n      jump\t// out\n        /* \"#utility.yul\":24789:25155   */\n    tag_243:\n        /* \"#utility.yul\":24931:24934   */\n      0x00\n        /* \"#utility.yul\":24952:25019   */\n      tag_493\n        /* \"#utility.yul\":25016:25018   */\n      0x33\n        /* \"#utility.yul\":25011:25014   */\n      dup4\n        /* \"#utility.yul\":24952:25019   */\n      tag_209\n      jump\t// in\n    tag_493:\n        /* \"#utility.yul\":24945:25019   */\n      swap2\n      pop\n        /* \"#utility.yul\":25028:25121   */\n      tag_494\n        /* \"#utility.yul\":25117:25120   */\n      dup3\n        /* \"#utility.yul\":25028:25121   */\n      tag_242\n      jump\t// in\n    tag_494:\n        /* \"#utility.yul\":25146:25148   */\n      0x40\n        /* \"#utility.yul\":25141:25144   */\n      dup3\n        /* \"#utility.yul\":25137:25149   */\n      add\n        /* \"#utility.yul\":25130:25149   */\n      swap1\n      pop\n        /* \"#utility.yul\":24789:25155   */\n      swap2\n      swap1\n      pop\n      jump\t// out\n        /* \"#utility.yul\":25161:25580   */\n    tag_100:\n        /* \"#utility.yul\":25327:25331   */\n      0x00\n        /* \"#utility.yul\":25365:25367   */\n      0x20\n        /* \"#utility.yul\":25354:25363   */\n      dup3\n        /* \"#utility.yul\":25350:25368   */\n      add\n        /* \"#utility.yul\":25342:25368   */\n      swap1\n      pop\n        /* \"#utility.yul\":25414:25423   */\n      dup2\n        /* \"#utility.yul\":25408:25412   */\n      dup2\n        /* \"#utility.yul\":25404:25424   */\n      sub\n        /* \"#utility.yul\":25400:25401   */\n      0x00\n        /* \"#utility.yul\":25389:25398   */\n      dup4\n        /* \"#utility.yul\":25385:25402   */\n      add\n        /* \"#utility.yul\":25378:25425   */\n      mstore\n        /* \"#utility.yul\":25442:25573   */\n      tag_496\n        /* \"#utility.yul\":25568:25572   */\n      dup2\n        /* \"#utility.yul\":25442:25573   */\n      tag_243\n      jump\t// in\n    tag_496:\n        /* \"#utility.yul\":25434:25573   */\n      swap1\n      pop\n        /* \"#utility.yul\":25161:25580   */\n      swap2\n      swap1\n      pop\n      jump\t// out\n        /* \"#utility.yul\":25586:25832   */\n    tag_244:\n        /* \"#utility.yul\":25726:25760   */\n      0x4572726f204e616f206520706f73736976656c2061646963696f6e6172206d65\n        /* \"#utility.yul\":25722:25723   */\n      0x00\n        /* \"#utility.yul\":25714:25720   */\n      dup3\n        /* \"#utility.yul\":25710:25724   */\n      add\n        /* \"#utility.yul\":25703:25761   */\n      mstore\n        /* \"#utility.yul\":25795:25824   */\n      0x746173206120756d2070726f6a65746f2066696e616c697a61646f0000000000\n        /* \"#utility.yul\":25790:25792   */\n      0x20\n        /* \"#utility.yul\":25782:25788   */\n      dup3\n        /* \"#utility.yul\":25778:25793   */\n      add\n        /* \"#utility.yul\":25771:25825   */\n      mstore\n        /* \"#utility.yul\":25586:25832   */\n      pop\n      jump\t// out\n        /* \"#utility.yul\":25838:26204   */\n    tag_245:\n        /* \"#utility.yul\":25980:25983   */\n      0x00\n        /* \"#utility.yul\":26001:26068   */\n      tag_499\n        /* \"#utility.yul\":26065:26067   */\n      0x3b\n        /* \"#utility.yul\":26060:26063   */\n      dup4\n        /* \"#utility.yul\":26001:26068   */\n      tag_209\n      jump\t// in\n    tag_499:\n        /* \"#utility.yul\":25994:26068   */\n      swap2\n      pop\n        /* \"#utility.yul\":26077:26170   */\n      tag_500\n        /* \"#utility.yul\":26166:26169   */\n      dup3\n        /* \"#utility.yul\":26077:26170   */\n      tag_244\n      jump\t// in\n    tag_500:\n        /* \"#utility.yul\":26195:26197   */\n      0x40\n        /* \"#utility.yul\":26190:26193   */\n      dup3\n        /* \"#utility.yul\":26186:26198   */\n      add\n        /* \"#utility.yul\":26179:26198   */\n      swap1\n      pop\n        /* \"#utility.yul\":25838:26204   */\n      swap2\n      swap1\n      pop\n      jump\t// out\n        /* \"#utility.yul\":26210:26629   */\n    tag_103:\n        /* \"#utility.yul\":26376:26380   */\n      0x00\n        /* \"#utility.yul\":26414:26416   */\n      0x20\n        /* \"#utility.yul\":26403:26412   */\n      dup3\n        /* \"#utility.yul\":26399:26417   */\n      add\n        /* \"#utility.yul\":26391:26417   */\n      swap1\n      pop\n        /* \"#utility.yul\":26463:26472   */\n      dup2\n        /* \"#utility.yul\":26457:26461   */\n      dup2\n        /* \"#utility.yul\":26453:26473   */\n      sub\n        /* \"#utility.yul\":26449:26450   */\n      0x00\n        /* \"#utility.yul\":26438:26447   */\n      dup4\n        /* \"#utility.yul\":26434:26451   */\n      add\n        /* \"#utility.yul\":26427:26474   */\n      mstore\n        /* \"#utility.yul\":26491:26622   */\n      tag_502\n        /* \"#utility.yul\":26617:26621   */\n      dup2\n        /* \"#utility.yul\":26491:26622   */\n      tag_245\n      jump\t// in\n    tag_502:\n        /* \"#utility.yul\":26483:26622   */\n      swap1\n      pop\n        /* \"#utility.yul\":26210:26629   */\n      swap2\n      swap1\n      pop\n      jump\t// out\n        /* \"#utility.yul\":26635:26875   */\n    tag_246:\n        /* \"#utility.yul\":26775:26809   */\n      0x4572726f204d6574617320736f20706f64656d207365722061646963696f6e61\n        /* \"#utility.yul\":26771:26772   */\n      0x00\n        /* \"#utility.yul\":26763:26769   */\n      dup3\n        /* \"#utility.yul\":26759:26773   */\n      add\n        /* \"#utility.yul\":26752:26810   */\n      mstore\n        /* \"#utility.yul\":26844:26867   */\n      0x64617320612070726f6a65746f7320617469766f730000000000000000000000\n        /* \"#utility.yul\":26839:26841   */\n      0x20\n        /* \"#utility.yul\":26831:26837   */\n      dup3\n        /* \"#utility.yul\":26827:26842   */\n      add\n        /* \"#utility.yul\":26820:26868   */\n      mstore\n        /* \"#utility.yul\":26635:26875   */\n      pop\n      jump\t// out\n        /* \"#utility.yul\":26881:27247   */\n    tag_247:\n        /* \"#utility.yul\":27023:27026   */\n      0x00\n        /* \"#utility.yul\":27044:27111   */\n      tag_505\n        /* \"#utility.yul\":27108:27110   */\n      0x35\n        /* \"#utility.yul\":27103:27106   */\n      dup4\n        /* \"#utility.yul\":27044:27111   */\n      tag_209\n      jump\t// in\n    tag_505:\n        /* \"#utility.yul\":27037:27111   */\n      swap2\n      pop\n        /* \"#utility.yul\":27120:27213   */\n      tag_506\n        /* \"#utility.yul\":27209:27212   */\n      dup3\n        /* \"#utility.yul\":27120:27213   */\n      tag_246\n      jump\t// in\n    tag_506:\n        /* \"#utility.yul\":27238:27240   */\n      0x40\n        /* \"#utility.yul\":27233:27236   */\n      dup3\n        /* \"#utility.yul\":27229:27241   */\n      add\n        /* \"#utility.yul\":27222:27241   */\n      swap1\n      pop\n        /* \"#utility.yul\":26881:27247   */\n      swap2\n      swap1\n      pop\n      jump\t// out\n        /* \"#utility.yul\":27253:27672   */\n    tag_106:\n        /* \"#utility.yul\":27419:27423   */\n      0x00\n        /* \"#utility.yul\":27457:27459   */\n      0x20\n        /* \"#utility.yul\":27446:27455   */\n      dup3\n        /* \"#utility.yul\":27442:27460   */\n      add\n        /* \"#utility.yul\":27434:27460   */\n      swap1\n      pop\n        /* \"#utility.yul\":27506:27515   */\n      dup2\n        /* \"#utility.yul\":27500:27504   */\n      dup2\n        /* \"#utility.yul\":27496:27516   */\n      sub\n        /* \"#utility.yul\":27492:27493   */\n      0x00\n        /* \"#utility.yul\":27481:27490   */\n      dup4\n        /* \"#utility.yul\":27477:27494   */\n      add\n        /* \"#utility.yul\":27470:27517   */\n      mstore\n        /* \"#utility.yul\":27534:27665   */\n      tag_508\n        /* \"#utility.yul\":27660:27664   */\n      dup2\n        /* \"#utility.yul\":27534:27665   */\n      tag_247\n      jump\t// in\n    tag_508:\n        /* \"#utility.yul\":27526:27665   */\n      swap1\n      pop\n        /* \"#utility.yul\":27253:27672   */\n      swap2\n      swap1\n      pop\n      jump\t// out\n        /* \"#utility.yul\":27678:27972   */\n    tag_248:\n        /* \"#utility.yul\":27818:27852   */\n      0x4572726f2056616c6f72206461206d657461206e616f20706f64652065786365\n        /* \"#utility.yul\":27814:27815   */\n      0x00\n        /* \"#utility.yul\":27806:27812   */\n      dup3\n        /* \"#utility.yul\":27802:27816   */\n      add\n        /* \"#utility.yul\":27795:27853   */\n      mstore\n        /* \"#utility.yul\":27887:27921   */\n      0x6465722061206d6574612066696e616e636569726120746f74616c20646f2070\n        /* \"#utility.yul\":27882:27884   */\n      0x20\n        /* \"#utility.yul\":27874:27880   */\n      dup3\n        /* \"#utility.yul\":27870:27885   */\n      add\n        /* \"#utility.yul\":27863:27922   */\n      mstore\n        /* \"#utility.yul\":27956:27964   */\n      0x726f6a65746f0000000000000000000000000000000000000000000000000000\n        /* \"#utility.yul\":27951:27953   */\n      0x40\n        /* \"#utility.yul\":27943:27949   */\n      dup3\n        /* \"#utility.yul\":27939:27954   */\n      add\n        /* \"#utility.yul\":27932:27965   */\n      mstore\n        /* \"#utility.yul\":27678:27972   */\n      pop\n      jump\t// out\n        /* \"#utility.yul\":27978:28344   */\n    tag_249:\n        /* \"#utility.yul\":28120:28123   */\n      0x00\n        /* \"#utility.yul\":28141:28208   */\n      tag_511\n        /* \"#utility.yul\":28205:28207   */\n      0x46\n        /* \"#utility.yul\":28200:28203   */\n      dup4\n        /* \"#utility.yul\":28141:28208   */\n      tag_209\n      jump\t// in\n    tag_511:\n        /* \"#utility.yul\":28134:28208   */\n      swap2\n      pop\n        /* \"#utility.yul\":28217:28310   */\n      tag_512\n        /* \"#utility.yul\":28306:28309   */\n      dup3\n        /* \"#utility.yul\":28217:28310   */\n      tag_248\n      jump\t// in\n    tag_512:\n        /* \"#utility.yul\":28335:28337   */\n      0x60\n        /* \"#utility.yul\":28330:28333   */\n      dup3\n        /* \"#utility.yul\":28326:28338   */\n      add\n        /* \"#utility.yul\":28319:28338   */\n      swap1\n      pop\n        /* \"#utility.yul\":27978:28344   */\n      swap2\n      swap1\n      pop\n      jump\t// out\n        /* \"#utility.yul\":28350:28769   */\n    tag_109:\n        /* \"#utility.yul\":28516:28520   */\n      0x00\n        /* \"#utility.yul\":28554:28556   */\n      0x20\n        /* \"#utility.yul\":28543:28552   */\n      dup3\n        /* \"#utility.yul\":28539:28557   */\n      add\n        /* \"#utility.yul\":28531:28557   */\n      swap1\n      pop\n        /* \"#utility.yul\":28603:28612   */\n      dup2\n        /* \"#utility.yul\":28597:28601   */\n      dup2\n        /* \"#utility.yul\":28593:28613   */\n      sub\n        /* \"#utility.yul\":28589:28590   */\n      0x00\n        /* \"#utility.yul\":28578:28587   */\n      dup4\n        /* \"#utility.yul\":28574:28591   */\n      add\n        /* \"#utility.yul\":28567:28614   */\n      mstore\n        /* \"#utility.yul\":28631:28762   */\n      tag_514\n        /* \"#utility.yul\":28757:28761   */\n      dup2\n        /* \"#utility.yul\":28631:28762   */\n      tag_249\n      jump\t// in\n    tag_514:\n        /* \"#utility.yul\":28623:28762   */\n      swap1\n      pop\n        /* \"#utility.yul\":28350:28769   */\n      swap2\n      swap1\n      pop\n      jump\t// out\n        /* \"#utility.yul\":28775:28966   */\n    tag_113:\n        /* \"#utility.yul\":28815:28818   */\n      0x00\n        /* \"#utility.yul\":28834:28854   */\n      tag_516\n        /* \"#utility.yul\":28852:28853   */\n      dup3\n        /* \"#utility.yul\":28834:28854   */\n      tag_179\n      jump\t// in\n    tag_516:\n        /* \"#utility.yul\":28829:28854   */\n      swap2\n      pop\n        /* \"#utility.yul\":28868:28888   */\n      tag_517\n        /* \"#utility.yul\":28886:28887   */\n      dup4\n        /* \"#utility.yul\":28868:28888   */\n      tag_179\n      jump\t// in\n    tag_517:\n        /* \"#utility.yul\":28863:28888   */\n      swap3\n      pop\n        /* \"#utility.yul\":28911:28912   */\n      dup3\n        /* \"#utility.yul\":28908:28909   */\n      dup3\n        /* \"#utility.yul\":28904:28913   */\n      add\n        /* \"#utility.yul\":28897:28913   */\n      swap1\n      pop\n        /* \"#utility.yul\":28932:28935   */\n      dup1\n        /* \"#utility.yul\":28929:28930   */\n      dup3\n        /* \"#utility.yul\":28926:28936   */\n      gt\n        /* \"#utility.yul\":28923:28959   */\n      iszero\n      tag_518\n      jumpi\n        /* \"#utility.yul\":28939:28957   */\n      tag_519\n      tag_232\n      jump\t// in\n    tag_519:\n        /* \"#utility.yul\":28923:28959   */\n    tag_518:\n        /* \"#utility.yul\":28775:28966   */\n      swap3\n      swap2\n      pop\n      pop\n      jump\t// out\n        /* \"#utility.yul\":28972:29208   */\n    tag_250:\n        /* \"#utility.yul\":29112:29146   */\n      0x4572726f204e616f20656820706f73736976656c2061706f69617220756d2070\n        /* \"#utility.yul\":29108:29109   */\n      0x00\n        /* \"#utility.yul\":29100:29106   */\n      dup3\n        /* \"#utility.yul\":29096:29110   */\n      add\n        /* \"#utility.yul\":29089:29147   */\n      mstore\n        /* \"#utility.yul\":29181:29200   */\n      0x726f6a65746f2066696e616c697a61646f000000000000000000000000000000\n        /* \"#utility.yul\":29176:29178   */\n      0x20\n        /* \"#utility.yul\":29168:29174   */\n      dup3\n        /* \"#utility.yul\":29164:29179   */\n      add\n        /* \"#utility.yul\":29157:29201   */\n      mstore\n        /* \"#utility.yul\":28972:29208   */\n      pop\n      jump\t// out\n        /* \"#utility.yul\":29214:29580   */\n    tag_251:\n        /* \"#utility.yul\":29356:29359   */\n      0x00\n        /* \"#utility.yul\":29377:29444   */\n      tag_522\n        /* \"#utility.yul\":29441:29443   */\n      0x31\n        /* \"#utility.yul\":29436:29439   */\n      dup4\n        /* \"#utility.yul\":29377:29444   */\n      tag_209\n      jump\t// in\n    tag_522:\n        /* \"#utility.yul\":29370:29444   */\n      swap2\n      pop\n        /* \"#utility.yul\":29453:29546   */\n      tag_523\n        /* \"#utility.yul\":29542:29545   */\n      dup3\n        /* \"#utility.yul\":29453:29546   */\n      tag_250\n      jump\t// in\n    tag_523:\n        /* \"#utility.yul\":29571:29573   */\n      0x40\n        /* \"#utility.yul\":29566:29569   */\n      dup3\n        /* \"#utility.yul\":29562:29574   */\n      add\n        /* \"#utility.yul\":29555:29574   */\n      swap1\n      pop\n        /* \"#utility.yul\":29214:29580   */\n      swap2\n      swap1\n      pop\n      jump\t// out\n        /* \"#utility.yul\":29586:30005   */\n    tag_170:\n        /* \"#utility.yul\":29752:29756   */\n      0x00\n        /* \"#utility.yul\":29790:29792   */\n      0x20\n        /* \"#utility.yul\":29779:29788   */\n      dup3\n        /* \"#utility.yul\":29775:29793   */\n      add\n        /* \"#utility.yul\":29767:29793   */\n      swap1\n      pop\n        /* \"#utility.yul\":29839:29848   */\n      dup2\n        /* \"#utility.yul\":29833:29837   */\n      dup2\n        /* \"#utility.yul\":29829:29849   */\n      sub\n        /* \"#utility.yul\":29825:29826   */\n      0x00\n        /* \"#utility.yul\":29814:29823   */\n      dup4\n        /* \"#utility.yul\":29810:29827   */\n      add\n        /* \"#utility.yul\":29803:29850   */\n      mstore\n        /* \"#utility.yul\":29867:29998   */\n      tag_525\n        /* \"#utility.yul\":29993:29997   */\n      dup2\n        /* \"#utility.yul\":29867:29998   */\n      tag_251\n      jump\t// in\n    tag_525:\n        /* \"#utility.yul\":29859:29998   */\n      swap1\n      pop\n        /* \"#utility.yul\":29586:30005   */\n      swap2\n      swap1\n      pop\n      jump\t// out\n        /* \"#utility.yul\":30011:30240   */\n    tag_252:\n        /* \"#utility.yul\":30151:30185   */\n      0x4572726f20536f20656820706f73736976656c2061706f6961722070726f6a65\n        /* \"#utility.yul\":30147:30148   */\n      0x00\n        /* \"#utility.yul\":30139:30145   */\n      dup3\n        /* \"#utility.yul\":30135:30149   */\n      add\n        /* \"#utility.yul\":30128:30186   */\n      mstore\n        /* \"#utility.yul\":30220:30232   */\n      0x746f7320617469766f7300000000000000000000000000000000000000000000\n        /* \"#utility.yul\":30215:30217   */\n      0x20\n        /* \"#utility.yul\":30207:30213   */\n      dup3\n        /* \"#utility.yul\":30203:30218   */\n      add\n        /* \"#utility.yul\":30196:30233   */\n      mstore\n        /* \"#utility.yul\":30011:30240   */\n      pop\n      jump\t// out\n        /* \"#utility.yul\":30246:30612   */\n    tag_253:\n        /* \"#utility.yul\":30388:30391   */\n      0x00\n        /* \"#utility.yul\":30409:30476   */\n      tag_528\n        /* \"#utility.yul\":30473:30475   */\n      0x2a\n        /* \"#utility.yul\":30468:30471   */\n      dup4\n        /* \"#utility.yul\":30409:30476   */\n      tag_209\n      jump\t// in\n    tag_528:\n        /* \"#utility.yul\":30402:30476   */\n      swap2\n      pop\n        /* \"#utility.yul\":30485:30578   */\n      tag_529\n        /* \"#utility.yul\":30574:30577   */\n      dup3\n        /* \"#utility.yul\":30485:30578   */\n      tag_252\n      jump\t// in\n    tag_529:\n        /* \"#utility.yul\":30603:30605   */\n      0x40\n        /* \"#utility.yul\":30598:30601   */\n      dup3\n        /* \"#utility.yul\":30594:30606   */\n      add\n        /* \"#utility.yul\":30587:30606   */\n      swap1\n      pop\n        /* \"#utility.yul\":30246:30612   */\n      swap2\n      swap1\n      pop\n      jump\t// out\n        /* \"#utility.yul\":30618:31037   */\n    tag_173:\n        /* \"#utility.yul\":30784:30788   */\n      0x00\n        /* \"#utility.yul\":30822:30824   */\n      0x20\n        /* \"#utility.yul\":30811:30820   */\n      dup3\n        /* \"#utility.yul\":30807:30825   */\n      add\n        /* \"#utility.yul\":30799:30825   */\n      swap1\n      pop\n        /* \"#utility.yul\":30871:30880   */\n      dup2\n        /* \"#utility.yul\":30865:30869   */\n      dup2\n        /* \"#utility.yul\":30861:30881   */\n      sub\n        /* \"#utility.yul\":30857:30858   */\n      0x00\n        /* \"#utility.yul\":30846:30855   */\n      dup4\n        /* \"#utility.yul\":30842:30859   */\n      add\n        /* \"#utility.yul\":30835:30882   */\n      mstore\n        /* \"#utility.yul\":30899:31030   */\n      tag_531\n        /* \"#utility.yul\":31025:31029   */\n      dup2\n        /* \"#utility.yul\":30899:31030   */\n      tag_253\n      jump\t// in\n    tag_531:\n        /* \"#utility.yul\":30891:31030   */\n      swap1\n      pop\n        /* \"#utility.yul\":30618:31037   */\n      swap2\n      swap1\n      pop\n      jump\t// out\n\n    auxdata: 0xa26469706673582212201533814db732410c2e8a0315b2ae7a04fe92e5015aad38ac0896e678e81723fa64736f6c63430008160033\n}\n",
				"bytecode": {
					"linkReferences": {},
					"object": "6080604052600a60015534801561001557600080fd5b50336000806101000a81548173ffffffffffffffffffffffffffffffffffffffff021916908373ffffffffffffffffffffffffffffffffffffffff16021790555061233e806100656000396000f3fe6080604052600436106100705760003560e01c80635f71abd81161004e5780635f71abd8146100e65780639540642f1461010f578063974a90a51461014f578063ae8f20191461019357610070565b80632ea373571461007557806359d14eea146100a15780635d950952146100ca575b600080fd5b34801561008157600080fd5b5061008a6101af565b6040516100989291906113dd565b60405180910390f35b3480156100ad57600080fd5b506100c860048036038101906100c39190611589565b610363565b005b6100e460048036038101906100df9190611628565b610450565b005b3480156100f257600080fd5b5061010d60048036038101906101089190611655565b610756565b005b34801561011b57600080fd5b5061013660048036038101906101319190611628565b6109ec565b60405161014694939291906116f4565b60405180910390f35b34801561015b57600080fd5b5061017660048036038101906101719190611628565b610dcd565b60405161018a98979695949392919061180a565b60405180910390f35b6101ad60048036038101906101a89190611628565b61100a565b005b606080600060025467ffffffffffffffff8111156101d0576101cf611432565b5b6040519080825280602002602001820160405280156101fe5781602001602082028036833780820191505090505b509050600060025467ffffffffffffffff81111561021f5761021e611432565b5b60405190808252806020026020018201604052801561025257816020015b606081526020019060019003908161023d5790505b50905060005b600254811015610356576000600360008381526020019081526020016000209050806000015484838151811061029157610290611896565b5b6020026020010181815250508060010180546102ac906118f4565b80601f01602080910402602001604051908101604052809291908181526020018280546102d8906118f4565b80156103255780601f106102fa57610100808354040283529160200191610325565b820191906000526020600020905b81548152906001019060200180831161030857829003601f168201915b505050505083838151811061033d5761033c611896565b5b6020026020010181905250508080600101915050610258565b5081819350935050509091565b600060036000600254815260200190815260200160002090506002548160000181905550848160010190816103989190611ad1565b50838160020190816103aa9190611ad1565b508281600301819055508181600401819055506000816005018190555060008160060160006101000a81548160ff021916908315150217905550338160060160016101000a81548173ffffffffffffffffffffffffffffffffffffffff021916908373ffffffffffffffffffffffffffffffffffffffff160217905550600081600801819055506002600081548092919061044490611bd2565b91905055505050505050565b6000600360008381526020019081526020016000209050600073ffffffffffffffffffffffffffffffffffffffff168160060160019054906101000a900473ffffffffffffffffffffffffffffffffffffffff1673ffffffffffffffffffffffffffffffffffffffff16036104fa576040517f08c379a00000000000000000000000000000000000000000000000000000000081526004016104f190611c8c565b60405180910390fd5b3373ffffffffffffffffffffffffffffffffffffffff168160060160019054906101000a900473ffffffffffffffffffffffffffffffffffffffff1673ffffffffffffffffffffffffffffffffffffffff161461058c576040517f08c379a000000000000000000000000000000000000000000000000000000000815260040161058390611d1e565b60405180910390fd5b8060060160009054906101000a900460ff16156105de576040517f08c379a00000000000000000000000000000000000000000000000000000000081526004016105d590611db0565b60405180910390fd5b806004015481600501541015806105f85750806003015442115b610637576040517f08c379a000000000000000000000000000000000000000000000000000000000815260040161062e90611e8e565b60405180910390fd5b6000600154826005015461064b9190611edd565b9050600081836005015461065f9190611f0e565b905060008054906101000a900473ffffffffffffffffffffffffffffffffffffffff1673ffffffffffffffffffffffffffffffffffffffff166108fc839081150290604051600060405180830381858888f193505050501580156106c7573d6000803e3d6000fd5b508260060160019054906101000a900473ffffffffffffffffffffffffffffffffffffffff1673ffffffffffffffffffffffffffffffffffffffff166108fc829081150290604051600060405180830381858888f19350505050158015610732573d6000803e3d6000fd5b5060018360060160006101000a81548160ff02191690831515021790555050505050565b6000600360008681526020019081526020016000209050600073ffffffffffffffffffffffffffffffffffffffff168160060160019054906101000a900473ffffffffffffffffffffffffffffffffffffffff1673ffffffffffffffffffffffffffffffffffffffff1603610800576040517f08c379a00000000000000000000000000000000000000000000000000000000081526004016107f790611c8c565b60405180910390fd5b3373ffffffffffffffffffffffffffffffffffffffff168160060160019054906101000a900473ffffffffffffffffffffffffffffffffffffffff1673ffffffffffffffffffffffffffffffffffffffff1614610892576040517f08c379a000000000000000000000000000000000000000000000000000000000815260040161088990611fb4565b60405180910390fd5b8060060160009054906101000a900460ff16156108e4576040517f08c379a00000000000000000000000000000000000000000000000000000000081526004016108db90612046565b60405180910390fd5b8060030154421061092a576040517f08c379a0000000000000000000000000000000000000000000000000000000008152600401610921906120d8565b60405180910390fd5b8060040154821115610971576040517f08c379a000000000000000000000000000000000000000000000000000000000815260040161096890612190565b60405180910390fd5b600081600901600083600801548152602001908152602001600020905081600801548160000181905550848160010190816109ac9190611ad1565b50838160020190816109be9190611ad1565b5082816003018190555060018260080160008282546109dd91906121b0565b92505081905550505050505050565b6060806060806000600360008781526020019081526020016000209050600073ffffffffffffffffffffffffffffffffffffffff168160060160019054906101000a900473ffffffffffffffffffffffffffffffffffffffff1673ffffffffffffffffffffffffffffffffffffffff1603610a9c576040517f08c379a0000000000000000000000000000000000000000000000000000000008152600401610a9390611c8c565b60405180910390fd5b60008160080154905060008167ffffffffffffffff811115610ac157610ac0611432565b5b604051908082528060200260200182016040528015610aef5781602001602082028036833780820191505090505b50905060008267ffffffffffffffff811115610b0e57610b0d611432565b5b604051908082528060200260200182016040528015610b4157816020015b6060815260200190600190039081610b2c5790505b50905060008367ffffffffffffffff811115610b6057610b5f611432565b5b604051908082528060200260200182016040528015610b9357816020015b6060815260200190600190039081610b7e5790505b50905060008467ffffffffffffffff811115610bb257610bb1611432565b5b604051908082528060200260200182016040528015610be05781602001602082028036833780820191505090505b50905060005b85811015610db357600087600901600083815260200190815260200160002090508060000154868381518110610c1f57610c1e611896565b5b602002602001018181525050806001018054610c3a906118f4565b80601f0160208091040260200160405190810160405280929190818152602001828054610c66906118f4565b8015610cb35780601f10610c8857610100808354040283529160200191610cb3565b820191906000526020600020905b815481529060010190602001808311610c9657829003601f168201915b5050505050858381518110610ccb57610cca611896565b5b6020026020010181905250806002018054610ce5906118f4565b80601f0160208091040260200160405190810160405280929190818152602001828054610d11906118f4565b8015610d5e5780601f10610d3357610100808354040283529160200191610d5e565b820191906000526020600020905b815481529060010190602001808311610d4157829003601f168201915b5050505050848381518110610d7657610d75611896565b5b60200260200101819052508060030154838381518110610d9957610d98611896565b5b602002602001018181525050508080600101915050610be6565b508383838399509950995099505050505050509193509193565b6000606080600080600080600080600360008b81526020019081526020016000209050600073ffffffffffffffffffffffffffffffffffffffff168160060160019054906101000a900473ffffffffffffffffffffffffffffffffffffffff1673ffffffffffffffffffffffffffffffffffffffff1603610e83576040517f08c379a0000000000000000000000000000000000000000000000000000000008152600401610e7a90611c8c565b60405180910390fd5b806000015481600101826002018360030154846004015485600501548660060160009054906101000a900460ff168760060160019054906101000a900473ffffffffffffffffffffffffffffffffffffffff16868054610ee2906118f4565b80601f0160208091040260200160405190810160405280929190818152602001828054610f0e906118f4565b8015610f5b5780601f10610f3057610100808354040283529160200191610f5b565b820191906000526020600020905b815481529060010190602001808311610f3e57829003601f168201915b50505050509650858054610f6e906118f4565b80601f0160208091040260200160405190810160405280929190818152602001828054610f9a906118f4565b8015610fe75780601f10610fbc57610100808354040283529160200191610fe7565b820191906000526020600020905b815481529060010190602001808311610fca57829003601f168201915b505050505095509850985098509850985098509850985050919395975091939597565b6000600360008381526020019081526020016000209050600073ffffffffffffffffffffffffffffffffffffffff168160060160019054906101000a900473ffffffffffffffffffffffffffffffffffffffff1673ffffffffffffffffffffffffffffffffffffffff16036110b4576040517f08c379a00000000000000000000000000000000000000000000000000000000081526004016110ab90611c8c565b60405180910390fd5b8060060160009054906101000a900460ff1615611106576040517f08c379a00000000000000000000000000000000000000000000000000000000081526004016110fd90612256565b60405180910390fd5b8060030154421061114c576040517f08c379a0000000000000000000000000000000000000000000000000000000008152600401611143906122e8565b60405180910390fd5b3481600501600082825461116091906121b0565b92505081905550348160070160003373ffffffffffffffffffffffffffffffffffffffff1673ffffffffffffffffffffffffffffffffffffffff16815260200190815260200160002060008282546111b891906121b0565b925050819055505050565b600081519050919050565b600082825260208201905092915050565b6000819050602082019050919050565b6000819050919050565b611202816111ef565b82525050565b600061121483836111f9565b60208301905092915050565b6000602082019050919050565b6000611238826111c3565b61124281856111ce565b935061124d836111df565b8060005b8381101561127e5781516112658882611208565b975061127083611220565b925050600181019050611251565b5085935050505092915050565b600081519050919050565b600082825260208201905092915050565b6000819050602082019050919050565b600081519050919050565b600082825260208201905092915050565b60005b838110156112f15780820151818401526020810190506112d6565b60008484015250505050565b6000601f19601f8301169050919050565b6000611319826112b7565b61132381856112c2565b93506113338185602086016112d3565b61133c816112fd565b840191505092915050565b6000611353838361130e565b905092915050565b6000602082019050919050565b60006113738261128b565b61137d8185611296565b93508360208202850161138f856112a7565b8060005b858110156113cb57848403895281516113ac8582611347565b94506113b78361135b565b925060208a01995050600181019050611393565b50829750879550505050505092915050565b600060408201905081810360008301526113f7818561122d565b9050818103602083015261140b8184611368565b90509392505050565b6000604051905090565b600080fd5b600080fd5b600080fd5b600080fd5b7f4e487b7100000000000000000000000000000000000000000000000000000000600052604160045260246000fd5b61146a826112fd565b810181811067ffffffffffffffff8211171561148957611488611432565b5b80604052505050565b600061149c611414565b90506114a88282611461565b919050565b600067ffffffffffffffff8211156114c8576114c7611432565b5b6114d1826112fd565b9050602081019050919050565b82818337600083830152505050565b60006115006114fb846114ad565b611492565b90508281526020810184848401111561151c5761151b61142d565b5b6115278482856114de565b509392505050565b600082601f83011261154457611543611428565b5b81356115548482602086016114ed565b91505092915050565b611566816111ef565b811461157157600080fd5b50565b6000813590506115838161155d565b92915050565b600080600080608085870312156115a3576115a261141e565b5b600085013567ffffffffffffffff8111156115c1576115c0611423565b5b6115cd8782880161152f565b945050602085013567ffffffffffffffff8111156115ee576115ed611423565b5b6115fa8782880161152f565b935050604061160b87828801611574565b925050606061161c87828801611574565b91505092959194509250565b60006020828403121561163e5761163d61141e565b5b600061164c84828501611574565b91505092915050565b6000806000806080858703121561166f5761166e61141e565b5b600061167d87828801611574565b945050602085013567ffffffffffffffff81111561169e5761169d611423565b5b6116aa8782880161152f565b935050604085013567ffffffffffffffff8111156116cb576116ca611423565b5b6116d78782880161152f565b92505060606116e887828801611574565b91505092959194509250565b6000608082019050818103600083015261170e818761122d565b905081810360208301526117228186611368565b905081810360408301526117368185611368565b9050818103606083015261174a818461122d565b905095945050505050565b61175e816111ef565b82525050565b600082825260208201905092915050565b6000611780826112b7565b61178a8185611764565b935061179a8185602086016112d3565b6117a3816112fd565b840191505092915050565b60008115159050919050565b6117c3816117ae565b82525050565b600073ffffffffffffffffffffffffffffffffffffffff82169050919050565b60006117f4826117c9565b9050919050565b611804816117e9565b82525050565b600061010082019050611820600083018b611755565b8181036020830152611832818a611775565b905081810360408301526118468189611775565b90506118556060830188611755565b6118626080830187611755565b61186f60a0830186611755565b61187c60c08301856117ba565b61188960e08301846117fb565b9998505050505050505050565b7f4e487b7100000000000000000000000000000000000000000000000000000000600052603260045260246000fd5b7f4e487b7100000000000000000000000000000000000000000000000000000000600052602260045260246000fd5b6000600282049050600182168061190c57607f821691505b60208210810361191f5761191e6118c5565b5b50919050565b60008190508160005260206000209050919050565b60006020601f8301049050919050565b600082821b905092915050565b6000600883026119877fffffffffffffffffffffffffffffffffffffffffffffffffffffffffffffffff8261194a565b611991868361194a565b95508019841693508086168417925050509392505050565b6000819050919050565b60006119ce6119c96119c4846111ef565b6119a9565b6111ef565b9050919050565b6000819050919050565b6119e8836119b3565b6119fc6119f4826119d5565b848454611957565b825550505050565b600090565b611a11611a04565b611a1c8184846119df565b505050565b5b81811015611a4057611a35600082611a09565b600181019050611a22565b5050565b601f821115611a8557611a5681611925565b611a5f8461193a565b81016020851015611a6e578190505b611a82611a7a8561193a565b830182611a21565b50505b505050565b600082821c905092915050565b6000611aa860001984600802611a8a565b1980831691505092915050565b6000611ac18383611a97565b9150826002028217905092915050565b611ada826112b7565b67ffffffffffffffff811115611af357611af2611432565b5b611afd82546118f4565b611b08828285611a44565b600060209050601f831160018114611b3b5760008415611b29578287015190505b611b338582611ab5565b865550611b9b565b601f198416611b4986611925565b60005b82811015611b7157848901518255600182019150602085019450602081019050611b4c565b86831015611b8e5784890151611b8a601f891682611a97565b8355505b6001600288020188555050505b505050505050565b7f4e487b7100000000000000000000000000000000000000000000000000000000600052601160045260246000fd5b6000611bdd826111ef565b91507fffffffffffffffffffffffffffffffffffffffffffffffffffffffffffffffff8203611c0f57611c0e611ba3565b5b600182019050919050565b7f4572726f20494420646f2070726f6a65746f20696e76616c69646f206f75207060008201527f726f6a65746f206e616f20656e636f6e747261646f0000000000000000000000602082015250565b6000611c76603583611764565b9150611c8182611c1a565b604082019050919050565b60006020820190508181036000830152611ca581611c69565b9050919050565b7f4572726f20536f6d656e7465206f20646f6e6f20646f2070726f6a65746f207060008201527f6f64652066696e616c697a6172206f2070726f6a65746f000000000000000000602082015250565b6000611d08603783611764565b9150611d1382611cac565b604082019050919050565b60006020820190508181036000830152611d3781611cfb565b9050919050565b7f4572726f20457374652070726f6a65746f206a6120666f692066696e616c697a60008201527f61646f0000000000000000000000000000000000000000000000000000000000602082015250565b6000611d9a602383611764565b9150611da582611d3e565b604082019050919050565b60006020820190508181036000830152611dc981611d8d565b9050919050565b7f4572726f2050726f6a65746f206e616f20706f6465207365722066696e616c6960008201527f7a61646f20617465207175652061206d6574612066696e616e6365697261207360208201527f656a61206174696e67696461206f75206120646174612064652066696e616c6960408201527f7a6163616f2073656a6120756c74726170617373616461000000000000000000606082015250565b6000611e78607783611764565b9150611e8382611dd0565b608082019050919050565b60006020820190508181036000830152611ea781611e6b565b9050919050565b7f4e487b7100000000000000000000000000000000000000000000000000000000600052601260045260246000fd5b6000611ee8826111ef565b9150611ef3836111ef565b925082611f0357611f02611eae565b5b828204905092915050565b6000611f19826111ef565b9150611f24836111ef565b9250828203905081811115611f3c57611f3b611ba3565b5b92915050565b7f4572726f20536f6d656e7465206f20646f6e6f20646f2070726f6a65746f207060008201527f6f64652061646963696f6e6172206d6574617300000000000000000000000000602082015250565b6000611f9e603383611764565b9150611fa982611f42565b604082019050919050565b60006020820190508181036000830152611fcd81611f91565b9050919050565b7f4572726f204e616f206520706f73736976656c2061646963696f6e6172206d6560008201527f746173206120756d2070726f6a65746f2066696e616c697a61646f0000000000602082015250565b6000612030603b83611764565b915061203b82611fd4565b604082019050919050565b6000602082019050818103600083015261205f81612023565b9050919050565b7f4572726f204d6574617320736f20706f64656d207365722061646963696f6e6160008201527f64617320612070726f6a65746f7320617469766f730000000000000000000000602082015250565b60006120c2603583611764565b91506120cd82612066565b604082019050919050565b600060208201905081810360008301526120f1816120b5565b9050919050565b7f4572726f2056616c6f72206461206d657461206e616f20706f6465206578636560008201527f6465722061206d6574612066696e616e636569726120746f74616c20646f207060208201527f726f6a65746f0000000000000000000000000000000000000000000000000000604082015250565b600061217a604683611764565b9150612185826120f8565b606082019050919050565b600060208201905081810360008301526121a98161216d565b9050919050565b60006121bb826111ef565b91506121c6836111ef565b92508282019050808211156121de576121dd611ba3565b5b92915050565b7f4572726f204e616f20656820706f73736976656c2061706f69617220756d207060008201527f726f6a65746f2066696e616c697a61646f000000000000000000000000000000602082015250565b6000612240603183611764565b915061224b826121e4565b604082019050919050565b6000602082019050818103600083015261226f81612233565b9050919050565b7f4572726f20536f20656820706f73736976656c2061706f6961722070726f6a6560008201527f746f7320617469766f7300000000000000000000000000000000000000000000602082015250565b60006122d2602a83611764565b91506122dd82612276565b604082019050919050565b60006020820190508181036000830152612301816122c5565b905091905056fea26469706673582212201533814db732410c2e8a0315b2ae7a04fe92e5015aad38ac0896e678e81723fa64736f6c63430008160033",
					"opcodes": "PUSH1 0x80 PUSH1 0x40 MSTORE PUSH1 0xA PUSH1 0x1 SSTORE CALLVALUE DUP1 ISZERO PUSH2 0x15 JUMPI PUSH1 0x0 DUP1 REVERT JUMPDEST POP CALLER PUSH1 0x0 DUP1 PUSH2 0x100 EXP DUP2 SLOAD DUP2 PUSH20 0xFFFFFFFFFFFFFFFFFFFFFFFFFFFFFFFFFFFFFFFF MUL NOT AND SWAP1 DUP4 PUSH20 0xFFFFFFFFFFFFFFFFFFFFFFFFFFFFFFFFFFFFFFFF AND MUL OR SWAP1 SSTORE POP PUSH2 0x233E DUP1 PUSH2 0x65 PUSH1 0x0 CODECOPY PUSH1 0x0 RETURN INVALID PUSH1 0x80 PUSH1 0x40 MSTORE PUSH1 0x4 CALLDATASIZE LT PUSH2 0x70 JUMPI PUSH1 0x0 CALLDATALOAD PUSH1 0xE0 SHR DUP1 PUSH4 0x5F71ABD8 GT PUSH2 0x4E JUMPI DUP1 PUSH4 0x5F71ABD8 EQ PUSH2 0xE6 JUMPI DUP1 PUSH4 0x9540642F EQ PUSH2 0x10F JUMPI DUP1 PUSH4 0x974A90A5 EQ PUSH2 0x14F JUMPI DUP1 PUSH4 0xAE8F2019 EQ PUSH2 0x193 JUMPI PUSH2 0x70 JUMP JUMPDEST DUP1 PUSH4 0x2EA37357 EQ PUSH2 0x75 JUMPI DUP1 PUSH4 0x59D14EEA EQ PUSH2 0xA1 JUMPI DUP1 PUSH4 0x5D950952 EQ PUSH2 0xCA JUMPI JUMPDEST PUSH1 0x0 DUP1 REVERT JUMPDEST CALLVALUE DUP1 ISZERO PUSH2 0x81 JUMPI PUSH1 0x0 DUP1 REVERT JUMPDEST POP PUSH2 0x8A PUSH2 0x1AF JUMP JUMPDEST PUSH1 0x40 MLOAD PUSH2 0x98 SWAP3 SWAP2 SWAP1 PUSH2 0x13DD JUMP JUMPDEST PUSH1 0x40 MLOAD DUP1 SWAP2 SUB SWAP1 RETURN JUMPDEST CALLVALUE DUP1 ISZERO PUSH2 0xAD JUMPI PUSH1 0x0 DUP1 REVERT JUMPDEST POP PUSH2 0xC8 PUSH1 0x4 DUP1 CALLDATASIZE SUB DUP2 ADD SWAP1 PUSH2 0xC3 SWAP2 SWAP1 PUSH2 0x1589 JUMP JUMPDEST PUSH2 0x363 JUMP JUMPDEST STOP JUMPDEST PUSH2 0xE4 PUSH1 0x4 DUP1 CALLDATASIZE SUB DUP2 ADD SWAP1 PUSH2 0xDF SWAP2 SWAP1 PUSH2 0x1628 JUMP JUMPDEST PUSH2 0x450 JUMP JUMPDEST STOP JUMPDEST CALLVALUE DUP1 ISZERO PUSH2 0xF2 JUMPI PUSH1 0x0 DUP1 REVERT JUMPDEST POP PUSH2 0x10D PUSH1 0x4 DUP1 CALLDATASIZE SUB DUP2 ADD SWAP1 PUSH2 0x108 SWAP2 SWAP1 PUSH2 0x1655 JUMP JUMPDEST PUSH2 0x756 JUMP JUMPDEST STOP JUMPDEST CALLVALUE DUP1 ISZERO PUSH2 0x11B JUMPI PUSH1 0x0 DUP1 REVERT JUMPDEST POP PUSH2 0x136 PUSH1 0x4 DUP1 CALLDATASIZE SUB DUP2 ADD SWAP1 PUSH2 0x131 SWAP2 SWAP1 PUSH2 0x1628 JUMP JUMPDEST PUSH2 0x9EC JUMP JUMPDEST PUSH1 0x40 MLOAD PUSH2 0x146 SWAP5 SWAP4 SWAP3 SWAP2 SWAP1 PUSH2 0x16F4 JUMP JUMPDEST PUSH1 0x40 MLOAD DUP1 SWAP2 SUB SWAP1 RETURN JUMPDEST CALLVALUE DUP1 ISZERO PUSH2 0x15B JUMPI PUSH1 0x0 DUP1 REVERT JUMPDEST POP PUSH2 0x176 PUSH1 0x4 DUP1 CALLDATASIZE SUB DUP2 ADD SWAP1 PUSH2 0x171 SWAP2 SWAP1 PUSH2 0x1628 JUMP JUMPDEST PUSH2 0xDCD JUMP JUMPDEST PUSH1 0x40 MLOAD PUSH2 0x18A SWAP9 SWAP8 SWAP7 SWAP6 SWAP5 SWAP4 SWAP3 SWAP2 SWAP1 PUSH2 0x180A JUMP JUMPDEST PUSH1 0x40 MLOAD DUP1 SWAP2 SUB SWAP1 RETURN JUMPDEST PUSH2 0x1AD PUSH1 0x4 DUP1 CALLDATASIZE SUB DUP2 ADD SWAP1 PUSH2 0x1A8 SWAP2 SWAP1 PUSH2 0x1628 JUMP JUMPDEST PUSH2 0x100A JUMP JUMPDEST STOP JUMPDEST PUSH1 0x60 DUP1 PUSH1 0x0 PUSH1 0x2 SLOAD PUSH8 0xFFFFFFFFFFFFFFFF DUP2 GT ISZERO PUSH2 0x1D0 JUMPI PUSH2 0x1CF PUSH2 0x1432 JUMP JUMPDEST JUMPDEST PUSH1 0x40 MLOAD SWAP1 DUP1 DUP3 MSTORE DUP1 PUSH1 0x20 MUL PUSH1 0x20 ADD DUP3 ADD PUSH1 0x40 MSTORE DUP1 ISZERO PUSH2 0x1FE JUMPI DUP2 PUSH1 0x20 ADD PUSH1 0x20 DUP3 MUL DUP1 CALLDATASIZE DUP4 CALLDATACOPY DUP1 DUP3 ADD SWAP2 POP POP SWAP1 POP JUMPDEST POP SWAP1 POP PUSH1 0x0 PUSH1 0x2 SLOAD PUSH8 0xFFFFFFFFFFFFFFFF DUP2 GT ISZERO PUSH2 0x21F JUMPI PUSH2 0x21E PUSH2 0x1432 JUMP JUMPDEST JUMPDEST PUSH1 0x40 MLOAD SWAP1 DUP1 DUP3 MSTORE DUP1 PUSH1 0x20 MUL PUSH1 0x20 ADD DUP3 ADD PUSH1 0x40 MSTORE DUP1 ISZERO PUSH2 0x252 JUMPI DUP2 PUSH1 0x20 ADD JUMPDEST PUSH1 0x60 DUP2 MSTORE PUSH1 0x20 ADD SWAP1 PUSH1 0x1 SWAP1 SUB SWAP1 DUP2 PUSH2 0x23D JUMPI SWAP1 POP JUMPDEST POP SWAP1 POP PUSH1 0x0 JUMPDEST PUSH1 0x2 SLOAD DUP2 LT ISZERO PUSH2 0x356 JUMPI PUSH1 0x0 PUSH1 0x3 PUSH1 0x0 DUP4 DUP2 MSTORE PUSH1 0x20 ADD SWAP1 DUP2 MSTORE PUSH1 0x20 ADD PUSH1 0x0 KECCAK256 SWAP1 POP DUP1 PUSH1 0x0 ADD SLOAD DUP5 DUP4 DUP2 MLOAD DUP2 LT PUSH2 0x291 JUMPI PUSH2 0x290 PUSH2 0x1896 JUMP JUMPDEST JUMPDEST PUSH1 0x20 MUL PUSH1 0x20 ADD ADD DUP2 DUP2 MSTORE POP POP DUP1 PUSH1 0x1 ADD DUP1 SLOAD PUSH2 0x2AC SWAP1 PUSH2 0x18F4 JUMP JUMPDEST DUP1 PUSH1 0x1F ADD PUSH1 0x20 DUP1 SWAP2 DIV MUL PUSH1 0x20 ADD PUSH1 0x40 MLOAD SWAP1 DUP2 ADD PUSH1 0x40 MSTORE DUP1 SWAP3 SWAP2 SWAP1 DUP2 DUP2 MSTORE PUSH1 0x20 ADD DUP3 DUP1 SLOAD PUSH2 0x2D8 SWAP1 PUSH2 0x18F4 JUMP JUMPDEST DUP1 ISZERO PUSH2 0x325 JUMPI DUP1 PUSH1 0x1F LT PUSH2 0x2FA JUMPI PUSH2 0x100 DUP1 DUP4 SLOAD DIV MUL DUP4 MSTORE SWAP2 PUSH1 0x20 ADD SWAP2 PUSH2 0x325 JUMP JUMPDEST DUP3 ADD SWAP2 SWAP1 PUSH1 0x0 MSTORE PUSH1 0x20 PUSH1 0x0 KECCAK256 SWAP1 JUMPDEST DUP2 SLOAD DUP2 MSTORE SWAP1 PUSH1 0x1 ADD SWAP1 PUSH1 0x20 ADD DUP1 DUP4 GT PUSH2 0x308 JUMPI DUP3 SWAP1 SUB PUSH1 0x1F AND DUP3 ADD SWAP2 JUMPDEST POP POP POP POP POP DUP4 DUP4 DUP2 MLOAD DUP2 LT PUSH2 0x33D JUMPI PUSH2 0x33C PUSH2 0x1896 JUMP JUMPDEST JUMPDEST PUSH1 0x20 MUL PUSH1 0x20 ADD ADD DUP2 SWAP1 MSTORE POP POP DUP1 DUP1 PUSH1 0x1 ADD SWAP2 POP POP PUSH2 0x258 JUMP JUMPDEST POP DUP2 DUP2 SWAP4 POP SWAP4 POP POP POP SWAP1 SWAP2 JUMP JUMPDEST PUSH1 0x0 PUSH1 0x3 PUSH1 0x0 PUSH1 0x2 SLOAD DUP2 MSTORE PUSH1 0x20 ADD SWAP1 DUP2 MSTORE PUSH1 0x20 ADD PUSH1 0x0 KECCAK256 SWAP1 POP PUSH1 0x2 SLOAD DUP2 PUSH1 0x0 ADD DUP2 SWAP1 SSTORE POP DUP5 DUP2 PUSH1 0x1 ADD SWAP1 DUP2 PUSH2 0x398 SWAP2 SWAP1 PUSH2 0x1AD1 JUMP JUMPDEST POP DUP4 DUP2 PUSH1 0x2 ADD SWAP1 DUP2 PUSH2 0x3AA SWAP2 SWAP1 PUSH2 0x1AD1 JUMP JUMPDEST POP DUP3 DUP2 PUSH1 0x3 ADD DUP2 SWAP1 SSTORE POP DUP2 DUP2 PUSH1 0x4 ADD DUP2 SWAP1 SSTORE POP PUSH1 0x0 DUP2 PUSH1 0x5 ADD DUP2 SWAP1 SSTORE POP PUSH1 0x0 DUP2 PUSH1 0x6 ADD PUSH1 0x0 PUSH2 0x100 EXP DUP2 SLOAD DUP2 PUSH1 0xFF MUL NOT AND SWAP1 DUP4 ISZERO ISZERO MUL OR SWAP1 SSTORE POP CALLER DUP2 PUSH1 0x6 ADD PUSH1 0x1 PUSH2 0x100 EXP DUP2 SLOAD DUP2 PUSH20 0xFFFFFFFFFFFFFFFFFFFFFFFFFFFFFFFFFFFFFFFF MUL NOT AND SWAP1 DUP4 PUSH20 0xFFFFFFFFFFFFFFFFFFFFFFFFFFFFFFFFFFFFFFFF AND MUL OR SWAP1 SSTORE POP PUSH1 0x0 DUP2 PUSH1 0x8 ADD DUP2 SWAP1 SSTORE POP PUSH1 0x2 PUSH1 0x0 DUP2 SLOAD DUP1 SWAP3 SWAP2 SWAP1 PUSH2 0x444 SWAP1 PUSH2 0x1BD2 JUMP JUMPDEST SWAP2 SWAP1 POP SSTORE POP POP POP POP POP POP JUMP JUMPDEST PUSH1 0x0 PUSH1 0x3 PUSH1 0x0 DUP4 DUP2 MSTORE PUSH1 0x20 ADD SWAP1 DUP2 MSTORE PUSH1 0x20 ADD PUSH1 0x0 KECCAK256 SWAP1 POP PUSH1 0x0 PUSH20 0xFFFFFFFFFFFFFFFFFFFFFFFFFFFFFFFFFFFFFFFF AND DUP2 PUSH1 0x6 ADD PUSH1 0x1 SWAP1 SLOAD SWAP1 PUSH2 0x100 EXP SWAP1 DIV PUSH20 0xFFFFFFFFFFFFFFFFFFFFFFFFFFFFFFFFFFFFFFFF AND PUSH20 0xFFFFFFFFFFFFFFFFFFFFFFFFFFFFFFFFFFFFFFFF AND SUB PUSH2 0x4FA JUMPI PUSH1 0x40 MLOAD PUSH32 0x8C379A000000000000000000000000000000000000000000000000000000000 DUP2 MSTORE PUSH1 0x4 ADD PUSH2 0x4F1 SWAP1 PUSH2 0x1C8C JUMP JUMPDEST PUSH1 0x40 MLOAD DUP1 SWAP2 SUB SWAP1 REVERT JUMPDEST CALLER PUSH20 0xFFFFFFFFFFFFFFFFFFFFFFFFFFFFFFFFFFFFFFFF AND DUP2 PUSH1 0x6 ADD PUSH1 0x1 SWAP1 SLOAD SWAP1 PUSH2 0x100 EXP SWAP1 DIV PUSH20 0xFFFFFFFFFFFFFFFFFFFFFFFFFFFFFFFFFFFFFFFF AND PUSH20 0xFFFFFFFFFFFFFFFFFFFFFFFFFFFFFFFFFFFFFFFF AND EQ PUSH2 0x58C JUMPI PUSH1 0x40 MLOAD PUSH32 0x8C379A000000000000000000000000000000000000000000000000000000000 DUP2 MSTORE PUSH1 0x4 ADD PUSH2 0x583 SWAP1 PUSH2 0x1D1E JUMP JUMPDEST PUSH1 0x40 MLOAD DUP1 SWAP2 SUB SWAP1 REVERT JUMPDEST DUP1 PUSH1 0x6 ADD PUSH1 0x0 SWAP1 SLOAD SWAP1 PUSH2 0x100 EXP SWAP1 DIV PUSH1 0xFF AND ISZERO PUSH2 0x5DE JUMPI PUSH1 0x40 MLOAD PUSH32 0x8C379A000000000000000000000000000000000000000000000000000000000 DUP2 MSTORE PUSH1 0x4 ADD PUSH2 0x5D5 SWAP1 PUSH2 0x1DB0 JUMP JUMPDEST PUSH1 0x40 MLOAD DUP1 SWAP2 SUB SWAP1 REVERT JUMPDEST DUP1 PUSH1 0x4 ADD SLOAD DUP2 PUSH1 0x5 ADD SLOAD LT ISZERO DUP1 PUSH2 0x5F8 JUMPI POP DUP1 PUSH1 0x3 ADD SLOAD TIMESTAMP GT JUMPDEST PUSH2 0x637 JUMPI PUSH1 0x40 MLOAD PUSH32 0x8C379A000000000000000000000000000000000000000000000000000000000 DUP2 MSTORE PUSH1 0x4 ADD PUSH2 0x62E SWAP1 PUSH2 0x1E8E JUMP JUMPDEST PUSH1 0x40 MLOAD DUP1 SWAP2 SUB SWAP1 REVERT JUMPDEST PUSH1 0x0 PUSH1 0x1 SLOAD DUP3 PUSH1 0x5 ADD SLOAD PUSH2 0x64B SWAP2 SWAP1 PUSH2 0x1EDD JUMP JUMPDEST SWAP1 POP PUSH1 0x0 DUP2 DUP4 PUSH1 0x5 ADD SLOAD PUSH2 0x65F SWAP2 SWAP1 PUSH2 0x1F0E JUMP JUMPDEST SWAP1 POP PUSH1 0x0 DUP1 SLOAD SWAP1 PUSH2 0x100 EXP SWAP1 DIV PUSH20 0xFFFFFFFFFFFFFFFFFFFFFFFFFFFFFFFFFFFFFFFF AND PUSH20 0xFFFFFFFFFFFFFFFFFFFFFFFFFFFFFFFFFFFFFFFF AND PUSH2 0x8FC DUP4 SWAP1 DUP2 ISZERO MUL SWAP1 PUSH1 0x40 MLOAD PUSH1 0x0 PUSH1 0x40 MLOAD DUP1 DUP4 SUB DUP2 DUP6 DUP9 DUP9 CALL SWAP4 POP POP POP POP ISZERO DUP1 ISZERO PUSH2 0x6C7 JUMPI RETURNDATASIZE PUSH1 0x0 DUP1 RETURNDATACOPY RETURNDATASIZE PUSH1 0x0 REVERT JUMPDEST POP DUP3 PUSH1 0x6 ADD PUSH1 0x1 SWAP1 SLOAD SWAP1 PUSH2 0x100 EXP SWAP1 DIV PUSH20 0xFFFFFFFFFFFFFFFFFFFFFFFFFFFFFFFFFFFFFFFF AND PUSH20 0xFFFFFFFFFFFFFFFFFFFFFFFFFFFFFFFFFFFFFFFF AND PUSH2 0x8FC DUP3 SWAP1 DUP2 ISZERO MUL SWAP1 PUSH1 0x40 MLOAD PUSH1 0x0 PUSH1 0x40 MLOAD DUP1 DUP4 SUB DUP2 DUP6 DUP9 DUP9 CALL SWAP4 POP POP POP POP ISZERO DUP1 ISZERO PUSH2 0x732 JUMPI RETURNDATASIZE PUSH1 0x0 DUP1 RETURNDATACOPY RETURNDATASIZE PUSH1 0x0 REVERT JUMPDEST POP PUSH1 0x1 DUP4 PUSH1 0x6 ADD PUSH1 0x0 PUSH2 0x100 EXP DUP2 SLOAD DUP2 PUSH1 0xFF MUL NOT AND SWAP1 DUP4 ISZERO ISZERO MUL OR SWAP1 SSTORE POP POP POP POP POP JUMP JUMPDEST PUSH1 0x0 PUSH1 0x3 PUSH1 0x0 DUP7 DUP2 MSTORE PUSH1 0x20 ADD SWAP1 DUP2 MSTORE PUSH1 0x20 ADD PUSH1 0x0 KECCAK256 SWAP1 POP PUSH1 0x0 PUSH20 0xFFFFFFFFFFFFFFFFFFFFFFFFFFFFFFFFFFFFFFFF AND DUP2 PUSH1 0x6 ADD PUSH1 0x1 SWAP1 SLOAD SWAP1 PUSH2 0x100 EXP SWAP1 DIV PUSH20 0xFFFFFFFFFFFFFFFFFFFFFFFFFFFFFFFFFFFFFFFF AND PUSH20 0xFFFFFFFFFFFFFFFFFFFFFFFFFFFFFFFFFFFFFFFF AND SUB PUSH2 0x800 JUMPI PUSH1 0x40 MLOAD PUSH32 0x8C379A000000000000000000000000000000000000000000000000000000000 DUP2 MSTORE PUSH1 0x4 ADD PUSH2 0x7F7 SWAP1 PUSH2 0x1C8C JUMP JUMPDEST PUSH1 0x40 MLOAD DUP1 SWAP2 SUB SWAP1 REVERT JUMPDEST CALLER PUSH20 0xFFFFFFFFFFFFFFFFFFFFFFFFFFFFFFFFFFFFFFFF AND DUP2 PUSH1 0x6 ADD PUSH1 0x1 SWAP1 SLOAD SWAP1 PUSH2 0x100 EXP SWAP1 DIV PUSH20 0xFFFFFFFFFFFFFFFFFFFFFFFFFFFFFFFFFFFFFFFF AND PUSH20 0xFFFFFFFFFFFFFFFFFFFFFFFFFFFFFFFFFFFFFFFF AND EQ PUSH2 0x892 JUMPI PUSH1 0x40 MLOAD PUSH32 0x8C379A000000000000000000000000000000000000000000000000000000000 DUP2 MSTORE PUSH1 0x4 ADD PUSH2 0x889 SWAP1 PUSH2 0x1FB4 JUMP JUMPDEST PUSH1 0x40 MLOAD DUP1 SWAP2 SUB SWAP1 REVERT JUMPDEST DUP1 PUSH1 0x6 ADD PUSH1 0x0 SWAP1 SLOAD SWAP1 PUSH2 0x100 EXP SWAP1 DIV PUSH1 0xFF AND ISZERO PUSH2 0x8E4 JUMPI PUSH1 0x40 MLOAD PUSH32 0x8C379A000000000000000000000000000000000000000000000000000000000 DUP2 MSTORE PUSH1 0x4 ADD PUSH2 0x8DB SWAP1 PUSH2 0x2046 JUMP JUMPDEST PUSH1 0x40 MLOAD DUP1 SWAP2 SUB SWAP1 REVERT JUMPDEST DUP1 PUSH1 0x3 ADD SLOAD TIMESTAMP LT PUSH2 0x92A JUMPI PUSH1 0x40 MLOAD PUSH32 0x8C379A000000000000000000000000000000000000000000000000000000000 DUP2 MSTORE PUSH1 0x4 ADD PUSH2 0x921 SWAP1 PUSH2 0x20D8 JUMP JUMPDEST PUSH1 0x40 MLOAD DUP1 SWAP2 SUB SWAP1 REVERT JUMPDEST DUP1 PUSH1 0x4 ADD SLOAD DUP3 GT ISZERO PUSH2 0x971 JUMPI PUSH1 0x40 MLOAD PUSH32 0x8C379A000000000000000000000000000000000000000000000000000000000 DUP2 MSTORE PUSH1 0x4 ADD PUSH2 0x968 SWAP1 PUSH2 0x2190 JUMP JUMPDEST PUSH1 0x40 MLOAD DUP1 SWAP2 SUB SWAP1 REVERT JUMPDEST PUSH1 0x0 DUP2 PUSH1 0x9 ADD PUSH1 0x0 DUP4 PUSH1 0x8 ADD SLOAD DUP2 MSTORE PUSH1 0x20 ADD SWAP1 DUP2 MSTORE PUSH1 0x20 ADD PUSH1 0x0 KECCAK256 SWAP1 POP DUP2 PUSH1 0x8 ADD SLOAD DUP2 PUSH1 0x0 ADD DUP2 SWAP1 SSTORE POP DUP5 DUP2 PUSH1 0x1 ADD SWAP1 DUP2 PUSH2 0x9AC SWAP2 SWAP1 PUSH2 0x1AD1 JUMP JUMPDEST POP DUP4 DUP2 PUSH1 0x2 ADD SWAP1 DUP2 PUSH2 0x9BE SWAP2 SWAP1 PUSH2 0x1AD1 JUMP JUMPDEST POP DUP3 DUP2 PUSH1 0x3 ADD DUP2 SWAP1 SSTORE POP PUSH1 0x1 DUP3 PUSH1 0x8 ADD PUSH1 0x0 DUP3 DUP3 SLOAD PUSH2 0x9DD SWAP2 SWAP1 PUSH2 0x21B0 JUMP JUMPDEST SWAP3 POP POP DUP2 SWAP1 SSTORE POP POP POP POP POP POP POP JUMP JUMPDEST PUSH1 0x60 DUP1 PUSH1 0x60 DUP1 PUSH1 0x0 PUSH1 0x3 PUSH1 0x0 DUP8 DUP2 MSTORE PUSH1 0x20 ADD SWAP1 DUP2 MSTORE PUSH1 0x20 ADD PUSH1 0x0 KECCAK256 SWAP1 POP PUSH1 0x0 PUSH20 0xFFFFFFFFFFFFFFFFFFFFFFFFFFFFFFFFFFFFFFFF AND DUP2 PUSH1 0x6 ADD PUSH1 0x1 SWAP1 SLOAD SWAP1 PUSH2 0x100 EXP SWAP1 DIV PUSH20 0xFFFFFFFFFFFFFFFFFFFFFFFFFFFFFFFFFFFFFFFF AND PUSH20 0xFFFFFFFFFFFFFFFFFFFFFFFFFFFFFFFFFFFFFFFF AND SUB PUSH2 0xA9C JUMPI PUSH1 0x40 MLOAD PUSH32 0x8C379A000000000000000000000000000000000000000000000000000000000 DUP2 MSTORE PUSH1 0x4 ADD PUSH2 0xA93 SWAP1 PUSH2 0x1C8C JUMP JUMPDEST PUSH1 0x40 MLOAD DUP1 SWAP2 SUB SWAP1 REVERT JUMPDEST PUSH1 0x0 DUP2 PUSH1 0x8 ADD SLOAD SWAP1 POP PUSH1 0x0 DUP2 PUSH8 0xFFFFFFFFFFFFFFFF DUP2 GT ISZERO PUSH2 0xAC1 JUMPI PUSH2 0xAC0 PUSH2 0x1432 JUMP JUMPDEST JUMPDEST PUSH1 0x40 MLOAD SWAP1 DUP1 DUP3 MSTORE DUP1 PUSH1 0x20 MUL PUSH1 0x20 ADD DUP3 ADD PUSH1 0x40 MSTORE DUP1 ISZERO PUSH2 0xAEF JUMPI DUP2 PUSH1 0x20 ADD PUSH1 0x20 DUP3 MUL DUP1 CALLDATASIZE DUP4 CALLDATACOPY DUP1 DUP3 ADD SWAP2 POP POP SWAP1 POP JUMPDEST POP SWAP1 POP PUSH1 0x0 DUP3 PUSH8 0xFFFFFFFFFFFFFFFF DUP2 GT ISZERO PUSH2 0xB0E JUMPI PUSH2 0xB0D PUSH2 0x1432 JUMP JUMPDEST JUMPDEST PUSH1 0x40 MLOAD SWAP1 DUP1 DUP3 MSTORE DUP1 PUSH1 0x20 MUL PUSH1 0x20 ADD DUP3 ADD PUSH1 0x40 MSTORE DUP1 ISZERO PUSH2 0xB41 JUMPI DUP2 PUSH1 0x20 ADD JUMPDEST PUSH1 0x60 DUP2 MSTORE PUSH1 0x20 ADD SWAP1 PUSH1 0x1 SWAP1 SUB SWAP1 DUP2 PUSH2 0xB2C JUMPI SWAP1 POP JUMPDEST POP SWAP1 POP PUSH1 0x0 DUP4 PUSH8 0xFFFFFFFFFFFFFFFF DUP2 GT ISZERO PUSH2 0xB60 JUMPI PUSH2 0xB5F PUSH2 0x1432 JUMP JUMPDEST JUMPDEST PUSH1 0x40 MLOAD SWAP1 DUP1 DUP3 MSTORE DUP1 PUSH1 0x20 MUL PUSH1 0x20 ADD DUP3 ADD PUSH1 0x40 MSTORE DUP1 ISZERO PUSH2 0xB93 JUMPI DUP2 PUSH1 0x20 ADD JUMPDEST PUSH1 0x60 DUP2 MSTORE PUSH1 0x20 ADD SWAP1 PUSH1 0x1 SWAP1 SUB SWAP1 DUP2 PUSH2 0xB7E JUMPI SWAP1 POP JUMPDEST POP SWAP1 POP PUSH1 0x0 DUP5 PUSH8 0xFFFFFFFFFFFFFFFF DUP2 GT ISZERO PUSH2 0xBB2 JUMPI PUSH2 0xBB1 PUSH2 0x1432 JUMP JUMPDEST JUMPDEST PUSH1 0x40 MLOAD SWAP1 DUP1 DUP3 MSTORE DUP1 PUSH1 0x20 MUL PUSH1 0x20 ADD DUP3 ADD PUSH1 0x40 MSTORE DUP1 ISZERO PUSH2 0xBE0 JUMPI DUP2 PUSH1 0x20 ADD PUSH1 0x20 DUP3 MUL DUP1 CALLDATASIZE DUP4 CALLDATACOPY DUP1 DUP3 ADD SWAP2 POP POP SWAP1 POP JUMPDEST POP SWAP1 POP PUSH1 0x0 JUMPDEST DUP6 DUP2 LT ISZERO PUSH2 0xDB3 JUMPI PUSH1 0x0 DUP8 PUSH1 0x9 ADD PUSH1 0x0 DUP4 DUP2 MSTORE PUSH1 0x20 ADD SWAP1 DUP2 MSTORE PUSH1 0x20 ADD PUSH1 0x0 KECCAK256 SWAP1 POP DUP1 PUSH1 0x0 ADD SLOAD DUP7 DUP4 DUP2 MLOAD DUP2 LT PUSH2 0xC1F JUMPI PUSH2 0xC1E PUSH2 0x1896 JUMP JUMPDEST JUMPDEST PUSH1 0x20 MUL PUSH1 0x20 ADD ADD DUP2 DUP2 MSTORE POP POP DUP1 PUSH1 0x1 ADD DUP1 SLOAD PUSH2 0xC3A SWAP1 PUSH2 0x18F4 JUMP JUMPDEST DUP1 PUSH1 0x1F ADD PUSH1 0x20 DUP1 SWAP2 DIV MUL PUSH1 0x20 ADD PUSH1 0x40 MLOAD SWAP1 DUP2 ADD PUSH1 0x40 MSTORE DUP1 SWAP3 SWAP2 SWAP1 DUP2 DUP2 MSTORE PUSH1 0x20 ADD DUP3 DUP1 SLOAD PUSH2 0xC66 SWAP1 PUSH2 0x18F4 JUMP JUMPDEST DUP1 ISZERO PUSH2 0xCB3 JUMPI DUP1 PUSH1 0x1F LT PUSH2 0xC88 JUMPI PUSH2 0x100 DUP1 DUP4 SLOAD DIV MUL DUP4 MSTORE SWAP2 PUSH1 0x20 ADD SWAP2 PUSH2 0xCB3 JUMP JUMPDEST DUP3 ADD SWAP2 SWAP1 PUSH1 0x0 MSTORE PUSH1 0x20 PUSH1 0x0 KECCAK256 SWAP1 JUMPDEST DUP2 SLOAD DUP2 MSTORE SWAP1 PUSH1 0x1 ADD SWAP1 PUSH1 0x20 ADD DUP1 DUP4 GT PUSH2 0xC96 JUMPI DUP3 SWAP1 SUB PUSH1 0x1F AND DUP3 ADD SWAP2 JUMPDEST POP POP POP POP POP DUP6 DUP4 DUP2 MLOAD DUP2 LT PUSH2 0xCCB JUMPI PUSH2 0xCCA PUSH2 0x1896 JUMP JUMPDEST JUMPDEST PUSH1 0x20 MUL PUSH1 0x20 ADD ADD DUP2 SWAP1 MSTORE POP DUP1 PUSH1 0x2 ADD DUP1 SLOAD PUSH2 0xCE5 SWAP1 PUSH2 0x18F4 JUMP JUMPDEST DUP1 PUSH1 0x1F ADD PUSH1 0x20 DUP1 SWAP2 DIV MUL PUSH1 0x20 ADD PUSH1 0x40 MLOAD SWAP1 DUP2 ADD PUSH1 0x40 MSTORE DUP1 SWAP3 SWAP2 SWAP1 DUP2 DUP2 MSTORE PUSH1 0x20 ADD DUP3 DUP1 SLOAD PUSH2 0xD11 SWAP1 PUSH2 0x18F4 JUMP JUMPDEST DUP1 ISZERO PUSH2 0xD5E JUMPI DUP1 PUSH1 0x1F LT PUSH2 0xD33 JUMPI PUSH2 0x100 DUP1 DUP4 SLOAD DIV MUL DUP4 MSTORE SWAP2 PUSH1 0x20 ADD SWAP2 PUSH2 0xD5E JUMP JUMPDEST DUP3 ADD SWAP2 SWAP1 PUSH1 0x0 MSTORE PUSH1 0x20 PUSH1 0x0 KECCAK256 SWAP1 JUMPDEST DUP2 SLOAD DUP2 MSTORE SWAP1 PUSH1 0x1 ADD SWAP1 PUSH1 0x20 ADD DUP1 DUP4 GT PUSH2 0xD41 JUMPI DUP3 SWAP1 SUB PUSH1 0x1F AND DUP3 ADD SWAP2 JUMPDEST POP POP POP POP POP DUP5 DUP4 DUP2 MLOAD DUP2 LT PUSH2 0xD76 JUMPI PUSH2 0xD75 PUSH2 0x1896 JUMP JUMPDEST JUMPDEST PUSH1 0x20 MUL PUSH1 0x20 ADD ADD DUP2 SWAP1 MSTORE POP DUP1 PUSH1 0x3 ADD SLOAD DUP4 DUP4 DUP2 MLOAD DUP2 LT PUSH2 0xD99 JUMPI PUSH2 0xD98 PUSH2 0x1896 JUMP JUMPDEST JUMPDEST PUSH1 0x20 MUL PUSH1 0x20 ADD ADD DUP2 DUP2 MSTORE POP POP POP DUP1 DUP1 PUSH1 0x1 ADD SWAP2 POP POP PUSH2 0xBE6 JUMP JUMPDEST POP DUP4 DUP4 DUP4 DUP4 SWAP10 POP SWAP10 POP SWAP10 POP SWAP10 POP POP POP POP POP POP POP SWAP2 SWAP4 POP SWAP2 SWAP4 JUMP JUMPDEST PUSH1 0x0 PUSH1 0x60 DUP1 PUSH1 0x0 DUP1 PUSH1 0x0 DUP1 PUSH1 0x0 DUP1 PUSH1 0x3 PUSH1 0x0 DUP12 DUP2 MSTORE PUSH1 0x20 ADD SWAP1 DUP2 MSTORE PUSH1 0x20 ADD PUSH1 0x0 KECCAK256 SWAP1 POP PUSH1 0x0 PUSH20 0xFFFFFFFFFFFFFFFFFFFFFFFFFFFFFFFFFFFFFFFF AND DUP2 PUSH1 0x6 ADD PUSH1 0x1 SWAP1 SLOAD SWAP1 PUSH2 0x100 EXP SWAP1 DIV PUSH20 0xFFFFFFFFFFFFFFFFFFFFFFFFFFFFFFFFFFFFFFFF AND PUSH20 0xFFFFFFFFFFFFFFFFFFFFFFFFFFFFFFFFFFFFFFFF AND SUB PUSH2 0xE83 JUMPI PUSH1 0x40 MLOAD PUSH32 0x8C379A000000000000000000000000000000000000000000000000000000000 DUP2 MSTORE PUSH1 0x4 ADD PUSH2 0xE7A SWAP1 PUSH2 0x1C8C JUMP JUMPDEST PUSH1 0x40 MLOAD DUP1 SWAP2 SUB SWAP1 REVERT JUMPDEST DUP1 PUSH1 0x0 ADD SLOAD DUP2 PUSH1 0x1 ADD DUP3 PUSH1 0x2 ADD DUP4 PUSH1 0x3 ADD SLOAD DUP5 PUSH1 0x4 ADD SLOAD DUP6 PUSH1 0x5 ADD SLOAD DUP7 PUSH1 0x6 ADD PUSH1 0x0 SWAP1 SLOAD SWAP1 PUSH2 0x100 EXP SWAP1 DIV PUSH1 0xFF AND DUP8 PUSH1 0x6 ADD PUSH1 0x1 SWAP1 SLOAD SWAP1 PUSH2 0x100 EXP SWAP1 DIV PUSH20 0xFFFFFFFFFFFFFFFFFFFFFFFFFFFFFFFFFFFFFFFF AND DUP7 DUP1 SLOAD PUSH2 0xEE2 SWAP1 PUSH2 0x18F4 JUMP JUMPDEST DUP1 PUSH1 0x1F ADD PUSH1 0x20 DUP1 SWAP2 DIV MUL PUSH1 0x20 ADD PUSH1 0x40 MLOAD SWAP1 DUP2 ADD PUSH1 0x40 MSTORE DUP1 SWAP3 SWAP2 SWAP1 DUP2 DUP2 MSTORE PUSH1 0x20 ADD DUP3 DUP1 SLOAD PUSH2 0xF0E SWAP1 PUSH2 0x18F4 JUMP JUMPDEST DUP1 ISZERO PUSH2 0xF5B JUMPI DUP1 PUSH1 0x1F LT PUSH2 0xF30 JUMPI PUSH2 0x100 DUP1 DUP4 SLOAD DIV MUL DUP4 MSTORE SWAP2 PUSH1 0x20 ADD SWAP2 PUSH2 0xF5B JUMP JUMPDEST DUP3 ADD SWAP2 SWAP1 PUSH1 0x0 MSTORE PUSH1 0x20 PUSH1 0x0 KECCAK256 SWAP1 JUMPDEST DUP2 SLOAD DUP2 MSTORE SWAP1 PUSH1 0x1 ADD SWAP1 PUSH1 0x20 ADD DUP1 DUP4 GT PUSH2 0xF3E JUMPI DUP3 SWAP1 SUB PUSH1 0x1F AND DUP3 ADD SWAP2 JUMPDEST POP POP POP POP POP SWAP7 POP DUP6 DUP1 SLOAD PUSH2 0xF6E SWAP1 PUSH2 0x18F4 JUMP JUMPDEST DUP1 PUSH1 0x1F ADD PUSH1 0x20 DUP1 SWAP2 DIV MUL PUSH1 0x20 ADD PUSH1 0x40 MLOAD SWAP1 DUP2 ADD PUSH1 0x40 MSTORE DUP1 SWAP3 SWAP2 SWAP1 DUP2 DUP2 MSTORE PUSH1 0x20 ADD DUP3 DUP1 SLOAD PUSH2 0xF9A SWAP1 PUSH2 0x18F4 JUMP JUMPDEST DUP1 ISZERO PUSH2 0xFE7 JUMPI DUP1 PUSH1 0x1F LT PUSH2 0xFBC JUMPI PUSH2 0x100 DUP1 DUP4 SLOAD DIV MUL DUP4 MSTORE SWAP2 PUSH1 0x20 ADD SWAP2 PUSH2 0xFE7 JUMP JUMPDEST DUP3 ADD SWAP2 SWAP1 PUSH1 0x0 MSTORE PUSH1 0x20 PUSH1 0x0 KECCAK256 SWAP1 JUMPDEST DUP2 SLOAD DUP2 MSTORE SWAP1 PUSH1 0x1 ADD SWAP1 PUSH1 0x20 ADD DUP1 DUP4 GT PUSH2 0xFCA JUMPI DUP3 SWAP1 SUB PUSH1 0x1F AND DUP3 ADD SWAP2 JUMPDEST POP POP POP POP POP SWAP6 POP SWAP9 POP SWAP9 POP SWAP9 POP SWAP9 POP SWAP9 POP SWAP9 POP SWAP9 POP SWAP9 POP POP SWAP2 SWAP4 SWAP6 SWAP8 POP SWAP2 SWAP4 SWAP6 SWAP8 JUMP JUMPDEST PUSH1 0x0 PUSH1 0x3 PUSH1 0x0 DUP4 DUP2 MSTORE PUSH1 0x20 ADD SWAP1 DUP2 MSTORE PUSH1 0x20 ADD PUSH1 0x0 KECCAK256 SWAP1 POP PUSH1 0x0 PUSH20 0xFFFFFFFFFFFFFFFFFFFFFFFFFFFFFFFFFFFFFFFF AND DUP2 PUSH1 0x6 ADD PUSH1 0x1 SWAP1 SLOAD SWAP1 PUSH2 0x100 EXP SWAP1 DIV PUSH20 0xFFFFFFFFFFFFFFFFFFFFFFFFFFFFFFFFFFFFFFFF AND PUSH20 0xFFFFFFFFFFFFFFFFFFFFFFFFFFFFFFFFFFFFFFFF AND SUB PUSH2 0x10B4 JUMPI PUSH1 0x40 MLOAD PUSH32 0x8C379A000000000000000000000000000000000000000000000000000000000 DUP2 MSTORE PUSH1 0x4 ADD PUSH2 0x10AB SWAP1 PUSH2 0x1C8C JUMP JUMPDEST PUSH1 0x40 MLOAD DUP1 SWAP2 SUB SWAP1 REVERT JUMPDEST DUP1 PUSH1 0x6 ADD PUSH1 0x0 SWAP1 SLOAD SWAP1 PUSH2 0x100 EXP SWAP1 DIV PUSH1 0xFF AND ISZERO PUSH2 0x1106 JUMPI PUSH1 0x40 MLOAD PUSH32 0x8C379A000000000000000000000000000000000000000000000000000000000 DUP2 MSTORE PUSH1 0x4 ADD PUSH2 0x10FD SWAP1 PUSH2 0x2256 JUMP JUMPDEST PUSH1 0x40 MLOAD DUP1 SWAP2 SUB SWAP1 REVERT JUMPDEST DUP1 PUSH1 0x3 ADD SLOAD TIMESTAMP LT PUSH2 0x114C JUMPI PUSH1 0x40 MLOAD PUSH32 0x8C379A000000000000000000000000000000000000000000000000000000000 DUP2 MSTORE PUSH1 0x4 ADD PUSH2 0x1143 SWAP1 PUSH2 0x22E8 JUMP JUMPDEST PUSH1 0x40 MLOAD DUP1 SWAP2 SUB SWAP1 REVERT JUMPDEST CALLVALUE DUP2 PUSH1 0x5 ADD PUSH1 0x0 DUP3 DUP3 SLOAD PUSH2 0x1160 SWAP2 SWAP1 PUSH2 0x21B0 JUMP JUMPDEST SWAP3 POP POP DUP2 SWAP1 SSTORE POP CALLVALUE DUP2 PUSH1 0x7 ADD PUSH1 0x0 CALLER PUSH20 0xFFFFFFFFFFFFFFFFFFFFFFFFFFFFFFFFFFFFFFFF AND PUSH20 0xFFFFFFFFFFFFFFFFFFFFFFFFFFFFFFFFFFFFFFFF AND DUP2 MSTORE PUSH1 0x20 ADD SWAP1 DUP2 MSTORE PUSH1 0x20 ADD PUSH1 0x0 KECCAK256 PUSH1 0x0 DUP3 DUP3 SLOAD PUSH2 0x11B8 SWAP2 SWAP1 PUSH2 0x21B0 JUMP JUMPDEST SWAP3 POP POP DUP2 SWAP1 SSTORE POP POP POP JUMP JUMPDEST PUSH1 0x0 DUP2 MLOAD SWAP1 POP SWAP2 SWAP1 POP JUMP JUMPDEST PUSH1 0x0 DUP3 DUP3 MSTORE PUSH1 0x20 DUP3 ADD SWAP1 POP SWAP3 SWAP2 POP POP JUMP JUMPDEST PUSH1 0x0 DUP2 SWAP1 POP PUSH1 0x20 DUP3 ADD SWAP1 POP SWAP2 SWAP1 POP JUMP JUMPDEST PUSH1 0x0 DUP2 SWAP1 POP SWAP2 SWAP1 POP JUMP JUMPDEST PUSH2 0x1202 DUP2 PUSH2 0x11EF JUMP JUMPDEST DUP3 MSTORE POP POP JUMP JUMPDEST PUSH1 0x0 PUSH2 0x1214 DUP4 DUP4 PUSH2 0x11F9 JUMP JUMPDEST PUSH1 0x20 DUP4 ADD SWAP1 POP SWAP3 SWAP2 POP POP JUMP JUMPDEST PUSH1 0x0 PUSH1 0x20 DUP3 ADD SWAP1 POP SWAP2 SWAP1 POP JUMP JUMPDEST PUSH1 0x0 PUSH2 0x1238 DUP3 PUSH2 0x11C3 JUMP JUMPDEST PUSH2 0x1242 DUP2 DUP6 PUSH2 0x11CE JUMP JUMPDEST SWAP4 POP PUSH2 0x124D DUP4 PUSH2 0x11DF JUMP JUMPDEST DUP1 PUSH1 0x0 JUMPDEST DUP4 DUP2 LT ISZERO PUSH2 0x127E JUMPI DUP2 MLOAD PUSH2 0x1265 DUP9 DUP3 PUSH2 0x1208 JUMP JUMPDEST SWAP8 POP PUSH2 0x1270 DUP4 PUSH2 0x1220 JUMP JUMPDEST SWAP3 POP POP PUSH1 0x1 DUP2 ADD SWAP1 POP PUSH2 0x1251 JUMP JUMPDEST POP DUP6 SWAP4 POP POP POP POP SWAP3 SWAP2 POP POP JUMP JUMPDEST PUSH1 0x0 DUP2 MLOAD SWAP1 POP SWAP2 SWAP1 POP JUMP JUMPDEST PUSH1 0x0 DUP3 DUP3 MSTORE PUSH1 0x20 DUP3 ADD SWAP1 POP SWAP3 SWAP2 POP POP JUMP JUMPDEST PUSH1 0x0 DUP2 SWAP1 POP PUSH1 0x20 DUP3 ADD SWAP1 POP SWAP2 SWAP1 POP JUMP JUMPDEST PUSH1 0x0 DUP2 MLOAD SWAP1 POP SWAP2 SWAP1 POP JUMP JUMPDEST PUSH1 0x0 DUP3 DUP3 MSTORE PUSH1 0x20 DUP3 ADD SWAP1 POP SWAP3 SWAP2 POP POP JUMP JUMPDEST PUSH1 0x0 JUMPDEST DUP4 DUP2 LT ISZERO PUSH2 0x12F1 JUMPI DUP1 DUP3 ADD MLOAD DUP2 DUP5 ADD MSTORE PUSH1 0x20 DUP2 ADD SWAP1 POP PUSH2 0x12D6 JUMP JUMPDEST PUSH1 0x0 DUP5 DUP5 ADD MSTORE POP POP POP POP JUMP JUMPDEST PUSH1 0x0 PUSH1 0x1F NOT PUSH1 0x1F DUP4 ADD AND SWAP1 POP SWAP2 SWAP1 POP JUMP JUMPDEST PUSH1 0x0 PUSH2 0x1319 DUP3 PUSH2 0x12B7 JUMP JUMPDEST PUSH2 0x1323 DUP2 DUP6 PUSH2 0x12C2 JUMP JUMPDEST SWAP4 POP PUSH2 0x1333 DUP2 DUP6 PUSH1 0x20 DUP7 ADD PUSH2 0x12D3 JUMP JUMPDEST PUSH2 0x133C DUP2 PUSH2 0x12FD JUMP JUMPDEST DUP5 ADD SWAP2 POP POP SWAP3 SWAP2 POP POP JUMP JUMPDEST PUSH1 0x0 PUSH2 0x1353 DUP4 DUP4 PUSH2 0x130E JUMP JUMPDEST SWAP1 POP SWAP3 SWAP2 POP POP JUMP JUMPDEST PUSH1 0x0 PUSH1 0x20 DUP3 ADD SWAP1 POP SWAP2 SWAP1 POP JUMP JUMPDEST PUSH1 0x0 PUSH2 0x1373 DUP3 PUSH2 0x128B JUMP JUMPDEST PUSH2 0x137D DUP2 DUP6 PUSH2 0x1296 JUMP JUMPDEST SWAP4 POP DUP4 PUSH1 0x20 DUP3 MUL DUP6 ADD PUSH2 0x138F DUP6 PUSH2 0x12A7 JUMP JUMPDEST DUP1 PUSH1 0x0 JUMPDEST DUP6 DUP2 LT ISZERO PUSH2 0x13CB JUMPI DUP5 DUP5 SUB DUP10 MSTORE DUP2 MLOAD PUSH2 0x13AC DUP6 DUP3 PUSH2 0x1347 JUMP JUMPDEST SWAP5 POP PUSH2 0x13B7 DUP4 PUSH2 0x135B JUMP JUMPDEST SWAP3 POP PUSH1 0x20 DUP11 ADD SWAP10 POP POP PUSH1 0x1 DUP2 ADD SWAP1 POP PUSH2 0x1393 JUMP JUMPDEST POP DUP3 SWAP8 POP DUP8 SWAP6 POP POP POP POP POP POP SWAP3 SWAP2 POP POP JUMP JUMPDEST PUSH1 0x0 PUSH1 0x40 DUP3 ADD SWAP1 POP DUP2 DUP2 SUB PUSH1 0x0 DUP4 ADD MSTORE PUSH2 0x13F7 DUP2 DUP6 PUSH2 0x122D JUMP JUMPDEST SWAP1 POP DUP2 DUP2 SUB PUSH1 0x20 DUP4 ADD MSTORE PUSH2 0x140B DUP2 DUP5 PUSH2 0x1368 JUMP JUMPDEST SWAP1 POP SWAP4 SWAP3 POP POP POP JUMP JUMPDEST PUSH1 0x0 PUSH1 0x40 MLOAD SWAP1 POP SWAP1 JUMP JUMPDEST PUSH1 0x0 DUP1 REVERT JUMPDEST PUSH1 0x0 DUP1 REVERT JUMPDEST PUSH1 0x0 DUP1 REVERT JUMPDEST PUSH1 0x0 DUP1 REVERT JUMPDEST PUSH32 0x4E487B7100000000000000000000000000000000000000000000000000000000 PUSH1 0x0 MSTORE PUSH1 0x41 PUSH1 0x4 MSTORE PUSH1 0x24 PUSH1 0x0 REVERT JUMPDEST PUSH2 0x146A DUP3 PUSH2 0x12FD JUMP JUMPDEST DUP2 ADD DUP2 DUP2 LT PUSH8 0xFFFFFFFFFFFFFFFF DUP3 GT OR ISZERO PUSH2 0x1489 JUMPI PUSH2 0x1488 PUSH2 0x1432 JUMP JUMPDEST JUMPDEST DUP1 PUSH1 0x40 MSTORE POP POP POP JUMP JUMPDEST PUSH1 0x0 PUSH2 0x149C PUSH2 0x1414 JUMP JUMPDEST SWAP1 POP PUSH2 0x14A8 DUP3 DUP3 PUSH2 0x1461 JUMP JUMPDEST SWAP2 SWAP1 POP JUMP JUMPDEST PUSH1 0x0 PUSH8 0xFFFFFFFFFFFFFFFF DUP3 GT ISZERO PUSH2 0x14C8 JUMPI PUSH2 0x14C7 PUSH2 0x1432 JUMP JUMPDEST JUMPDEST PUSH2 0x14D1 DUP3 PUSH2 0x12FD JUMP JUMPDEST SWAP1 POP PUSH1 0x20 DUP2 ADD SWAP1 POP SWAP2 SWAP1 POP JUMP JUMPDEST DUP3 DUP2 DUP4 CALLDATACOPY PUSH1 0x0 DUP4 DUP4 ADD MSTORE POP POP POP JUMP JUMPDEST PUSH1 0x0 PUSH2 0x1500 PUSH2 0x14FB DUP5 PUSH2 0x14AD JUMP JUMPDEST PUSH2 0x1492 JUMP JUMPDEST SWAP1 POP DUP3 DUP2 MSTORE PUSH1 0x20 DUP2 ADD DUP5 DUP5 DUP5 ADD GT ISZERO PUSH2 0x151C JUMPI PUSH2 0x151B PUSH2 0x142D JUMP JUMPDEST JUMPDEST PUSH2 0x1527 DUP5 DUP3 DUP6 PUSH2 0x14DE JUMP JUMPDEST POP SWAP4 SWAP3 POP POP POP JUMP JUMPDEST PUSH1 0x0 DUP3 PUSH1 0x1F DUP4 ADD SLT PUSH2 0x1544 JUMPI PUSH2 0x1543 PUSH2 0x1428 JUMP JUMPDEST JUMPDEST DUP2 CALLDATALOAD PUSH2 0x1554 DUP5 DUP3 PUSH1 0x20 DUP7 ADD PUSH2 0x14ED JUMP JUMPDEST SWAP2 POP POP SWAP3 SWAP2 POP POP JUMP JUMPDEST PUSH2 0x1566 DUP2 PUSH2 0x11EF JUMP JUMPDEST DUP2 EQ PUSH2 0x1571 JUMPI PUSH1 0x0 DUP1 REVERT JUMPDEST POP JUMP JUMPDEST PUSH1 0x0 DUP2 CALLDATALOAD SWAP1 POP PUSH2 0x1583 DUP2 PUSH2 0x155D JUMP JUMPDEST SWAP3 SWAP2 POP POP JUMP JUMPDEST PUSH1 0x0 DUP1 PUSH1 0x0 DUP1 PUSH1 0x80 DUP6 DUP8 SUB SLT ISZERO PUSH2 0x15A3 JUMPI PUSH2 0x15A2 PUSH2 0x141E JUMP JUMPDEST JUMPDEST PUSH1 0x0 DUP6 ADD CALLDATALOAD PUSH8 0xFFFFFFFFFFFFFFFF DUP2 GT ISZERO PUSH2 0x15C1 JUMPI PUSH2 0x15C0 PUSH2 0x1423 JUMP JUMPDEST JUMPDEST PUSH2 0x15CD DUP8 DUP3 DUP9 ADD PUSH2 0x152F JUMP JUMPDEST SWAP5 POP POP PUSH1 0x20 DUP6 ADD CALLDATALOAD PUSH8 0xFFFFFFFFFFFFFFFF DUP2 GT ISZERO PUSH2 0x15EE JUMPI PUSH2 0x15ED PUSH2 0x1423 JUMP JUMPDEST JUMPDEST PUSH2 0x15FA DUP8 DUP3 DUP9 ADD PUSH2 0x152F JUMP JUMPDEST SWAP4 POP POP PUSH1 0x40 PUSH2 0x160B DUP8 DUP3 DUP9 ADD PUSH2 0x1574 JUMP JUMPDEST SWAP3 POP POP PUSH1 0x60 PUSH2 0x161C DUP8 DUP3 DUP9 ADD PUSH2 0x1574 JUMP JUMPDEST SWAP2 POP POP SWAP3 SWAP6 SWAP2 SWAP5 POP SWAP3 POP JUMP JUMPDEST PUSH1 0x0 PUSH1 0x20 DUP3 DUP5 SUB SLT ISZERO PUSH2 0x163E JUMPI PUSH2 0x163D PUSH2 0x141E JUMP JUMPDEST JUMPDEST PUSH1 0x0 PUSH2 0x164C DUP5 DUP3 DUP6 ADD PUSH2 0x1574 JUMP JUMPDEST SWAP2 POP POP SWAP3 SWAP2 POP POP JUMP JUMPDEST PUSH1 0x0 DUP1 PUSH1 0x0 DUP1 PUSH1 0x80 DUP6 DUP8 SUB SLT ISZERO PUSH2 0x166F JUMPI PUSH2 0x166E PUSH2 0x141E JUMP JUMPDEST JUMPDEST PUSH1 0x0 PUSH2 0x167D DUP8 DUP3 DUP9 ADD PUSH2 0x1574 JUMP JUMPDEST SWAP5 POP POP PUSH1 0x20 DUP6 ADD CALLDATALOAD PUSH8 0xFFFFFFFFFFFFFFFF DUP2 GT ISZERO PUSH2 0x169E JUMPI PUSH2 0x169D PUSH2 0x1423 JUMP JUMPDEST JUMPDEST PUSH2 0x16AA DUP8 DUP3 DUP9 ADD PUSH2 0x152F JUMP JUMPDEST SWAP4 POP POP PUSH1 0x40 DUP6 ADD CALLDATALOAD PUSH8 0xFFFFFFFFFFFFFFFF DUP2 GT ISZERO PUSH2 0x16CB JUMPI PUSH2 0x16CA PUSH2 0x1423 JUMP JUMPDEST JUMPDEST PUSH2 0x16D7 DUP8 DUP3 DUP9 ADD PUSH2 0x152F JUMP JUMPDEST SWAP3 POP POP PUSH1 0x60 PUSH2 0x16E8 DUP8 DUP3 DUP9 ADD PUSH2 0x1574 JUMP JUMPDEST SWAP2 POP POP SWAP3 SWAP6 SWAP2 SWAP5 POP SWAP3 POP JUMP JUMPDEST PUSH1 0x0 PUSH1 0x80 DUP3 ADD SWAP1 POP DUP2 DUP2 SUB PUSH1 0x0 DUP4 ADD MSTORE PUSH2 0x170E DUP2 DUP8 PUSH2 0x122D JUMP JUMPDEST SWAP1 POP DUP2 DUP2 SUB PUSH1 0x20 DUP4 ADD MSTORE PUSH2 0x1722 DUP2 DUP7 PUSH2 0x1368 JUMP JUMPDEST SWAP1 POP DUP2 DUP2 SUB PUSH1 0x40 DUP4 ADD MSTORE PUSH2 0x1736 DUP2 DUP6 PUSH2 0x1368 JUMP JUMPDEST SWAP1 POP DUP2 DUP2 SUB PUSH1 0x60 DUP4 ADD MSTORE PUSH2 0x174A DUP2 DUP5 PUSH2 0x122D JUMP JUMPDEST SWAP1 POP SWAP6 SWAP5 POP POP POP POP POP JUMP JUMPDEST PUSH2 0x175E DUP2 PUSH2 0x11EF JUMP JUMPDEST DUP3 MSTORE POP POP JUMP JUMPDEST PUSH1 0x0 DUP3 DUP3 MSTORE PUSH1 0x20 DUP3 ADD SWAP1 POP SWAP3 SWAP2 POP POP JUMP JUMPDEST PUSH1 0x0 PUSH2 0x1780 DUP3 PUSH2 0x12B7 JUMP JUMPDEST PUSH2 0x178A DUP2 DUP6 PUSH2 0x1764 JUMP JUMPDEST SWAP4 POP PUSH2 0x179A DUP2 DUP6 PUSH1 0x20 DUP7 ADD PUSH2 0x12D3 JUMP JUMPDEST PUSH2 0x17A3 DUP2 PUSH2 0x12FD JUMP JUMPDEST DUP5 ADD SWAP2 POP POP SWAP3 SWAP2 POP POP JUMP JUMPDEST PUSH1 0x0 DUP2 ISZERO ISZERO SWAP1 POP SWAP2 SWAP1 POP JUMP JUMPDEST PUSH2 0x17C3 DUP2 PUSH2 0x17AE JUMP JUMPDEST DUP3 MSTORE POP POP JUMP JUMPDEST PUSH1 0x0 PUSH20 0xFFFFFFFFFFFFFFFFFFFFFFFFFFFFFFFFFFFFFFFF DUP3 AND SWAP1 POP SWAP2 SWAP1 POP JUMP JUMPDEST PUSH1 0x0 PUSH2 0x17F4 DUP3 PUSH2 0x17C9 JUMP JUMPDEST SWAP1 POP SWAP2 SWAP1 POP JUMP JUMPDEST PUSH2 0x1804 DUP2 PUSH2 0x17E9 JUMP JUMPDEST DUP3 MSTORE POP POP JUMP JUMPDEST PUSH1 0x0 PUSH2 0x100 DUP3 ADD SWAP1 POP PUSH2 0x1820 PUSH1 0x0 DUP4 ADD DUP12 PUSH2 0x1755 JUMP JUMPDEST DUP2 DUP2 SUB PUSH1 0x20 DUP4 ADD MSTORE PUSH2 0x1832 DUP2 DUP11 PUSH2 0x1775 JUMP JUMPDEST SWAP1 POP DUP2 DUP2 SUB PUSH1 0x40 DUP4 ADD MSTORE PUSH2 0x1846 DUP2 DUP10 PUSH2 0x1775 JUMP JUMPDEST SWAP1 POP PUSH2 0x1855 PUSH1 0x60 DUP4 ADD DUP9 PUSH2 0x1755 JUMP JUMPDEST PUSH2 0x1862 PUSH1 0x80 DUP4 ADD DUP8 PUSH2 0x1755 JUMP JUMPDEST PUSH2 0x186F PUSH1 0xA0 DUP4 ADD DUP7 PUSH2 0x1755 JUMP JUMPDEST PUSH2 0x187C PUSH1 0xC0 DUP4 ADD DUP6 PUSH2 0x17BA JUMP JUMPDEST PUSH2 0x1889 PUSH1 0xE0 DUP4 ADD DUP5 PUSH2 0x17FB JUMP JUMPDEST SWAP10 SWAP9 POP POP POP POP POP POP POP POP POP JUMP JUMPDEST PUSH32 0x4E487B7100000000000000000000000000000000000000000000000000000000 PUSH1 0x0 MSTORE PUSH1 0x32 PUSH1 0x4 MSTORE PUSH1 0x24 PUSH1 0x0 REVERT JUMPDEST PUSH32 0x4E487B7100000000000000000000000000000000000000000000000000000000 PUSH1 0x0 MSTORE PUSH1 0x22 PUSH1 0x4 MSTORE PUSH1 0x24 PUSH1 0x0 REVERT JUMPDEST PUSH1 0x0 PUSH1 0x2 DUP3 DIV SWAP1 POP PUSH1 0x1 DUP3 AND DUP1 PUSH2 0x190C JUMPI PUSH1 0x7F DUP3 AND SWAP2 POP JUMPDEST PUSH1 0x20 DUP3 LT DUP2 SUB PUSH2 0x191F JUMPI PUSH2 0x191E PUSH2 0x18C5 JUMP JUMPDEST JUMPDEST POP SWAP2 SWAP1 POP JUMP JUMPDEST PUSH1 0x0 DUP2 SWAP1 POP DUP2 PUSH1 0x0 MSTORE PUSH1 0x20 PUSH1 0x0 KECCAK256 SWAP1 POP SWAP2 SWAP1 POP JUMP JUMPDEST PUSH1 0x0 PUSH1 0x20 PUSH1 0x1F DUP4 ADD DIV SWAP1 POP SWAP2 SWAP1 POP JUMP JUMPDEST PUSH1 0x0 DUP3 DUP3 SHL SWAP1 POP SWAP3 SWAP2 POP POP JUMP JUMPDEST PUSH1 0x0 PUSH1 0x8 DUP4 MUL PUSH2 0x1987 PUSH32 0xFFFFFFFFFFFFFFFFFFFFFFFFFFFFFFFFFFFFFFFFFFFFFFFFFFFFFFFFFFFFFFFF DUP3 PUSH2 0x194A JUMP JUMPDEST PUSH2 0x1991 DUP7 DUP4 PUSH2 0x194A JUMP JUMPDEST SWAP6 POP DUP1 NOT DUP5 AND SWAP4 POP DUP1 DUP7 AND DUP5 OR SWAP3 POP POP POP SWAP4 SWAP3 POP POP POP JUMP JUMPDEST PUSH1 0x0 DUP2 SWAP1 POP SWAP2 SWAP1 POP JUMP JUMPDEST PUSH1 0x0 PUSH2 0x19CE PUSH2 0x19C9 PUSH2 0x19C4 DUP5 PUSH2 0x11EF JUMP JUMPDEST PUSH2 0x19A9 JUMP JUMPDEST PUSH2 0x11EF JUMP JUMPDEST SWAP1 POP SWAP2 SWAP1 POP JUMP JUMPDEST PUSH1 0x0 DUP2 SWAP1 POP SWAP2 SWAP1 POP JUMP JUMPDEST PUSH2 0x19E8 DUP4 PUSH2 0x19B3 JUMP JUMPDEST PUSH2 0x19FC PUSH2 0x19F4 DUP3 PUSH2 0x19D5 JUMP JUMPDEST DUP5 DUP5 SLOAD PUSH2 0x1957 JUMP JUMPDEST DUP3 SSTORE POP POP POP POP JUMP JUMPDEST PUSH1 0x0 SWAP1 JUMP JUMPDEST PUSH2 0x1A11 PUSH2 0x1A04 JUMP JUMPDEST PUSH2 0x1A1C DUP2 DUP5 DUP5 PUSH2 0x19DF JUMP JUMPDEST POP POP POP JUMP JUMPDEST JUMPDEST DUP2 DUP2 LT ISZERO PUSH2 0x1A40 JUMPI PUSH2 0x1A35 PUSH1 0x0 DUP3 PUSH2 0x1A09 JUMP JUMPDEST PUSH1 0x1 DUP2 ADD SWAP1 POP PUSH2 0x1A22 JUMP JUMPDEST POP POP JUMP JUMPDEST PUSH1 0x1F DUP3 GT ISZERO PUSH2 0x1A85 JUMPI PUSH2 0x1A56 DUP2 PUSH2 0x1925 JUMP JUMPDEST PUSH2 0x1A5F DUP5 PUSH2 0x193A JUMP JUMPDEST DUP2 ADD PUSH1 0x20 DUP6 LT ISZERO PUSH2 0x1A6E JUMPI DUP2 SWAP1 POP JUMPDEST PUSH2 0x1A82 PUSH2 0x1A7A DUP6 PUSH2 0x193A JUMP JUMPDEST DUP4 ADD DUP3 PUSH2 0x1A21 JUMP JUMPDEST POP POP JUMPDEST POP POP POP JUMP JUMPDEST PUSH1 0x0 DUP3 DUP3 SHR SWAP1 POP SWAP3 SWAP2 POP POP JUMP JUMPDEST PUSH1 0x0 PUSH2 0x1AA8 PUSH1 0x0 NOT DUP5 PUSH1 0x8 MUL PUSH2 0x1A8A JUMP JUMPDEST NOT DUP1 DUP4 AND SWAP2 POP POP SWAP3 SWAP2 POP POP JUMP JUMPDEST PUSH1 0x0 PUSH2 0x1AC1 DUP4 DUP4 PUSH2 0x1A97 JUMP JUMPDEST SWAP2 POP DUP3 PUSH1 0x2 MUL DUP3 OR SWAP1 POP SWAP3 SWAP2 POP POP JUMP JUMPDEST PUSH2 0x1ADA DUP3 PUSH2 0x12B7 JUMP JUMPDEST PUSH8 0xFFFFFFFFFFFFFFFF DUP2 GT ISZERO PUSH2 0x1AF3 JUMPI PUSH2 0x1AF2 PUSH2 0x1432 JUMP JUMPDEST JUMPDEST PUSH2 0x1AFD DUP3 SLOAD PUSH2 0x18F4 JUMP JUMPDEST PUSH2 0x1B08 DUP3 DUP3 DUP6 PUSH2 0x1A44 JUMP JUMPDEST PUSH1 0x0 PUSH1 0x20 SWAP1 POP PUSH1 0x1F DUP4 GT PUSH1 0x1 DUP2 EQ PUSH2 0x1B3B JUMPI PUSH1 0x0 DUP5 ISZERO PUSH2 0x1B29 JUMPI DUP3 DUP8 ADD MLOAD SWAP1 POP JUMPDEST PUSH2 0x1B33 DUP6 DUP3 PUSH2 0x1AB5 JUMP JUMPDEST DUP7 SSTORE POP PUSH2 0x1B9B JUMP JUMPDEST PUSH1 0x1F NOT DUP5 AND PUSH2 0x1B49 DUP7 PUSH2 0x1925 JUMP JUMPDEST PUSH1 0x0 JUMPDEST DUP3 DUP2 LT ISZERO PUSH2 0x1B71 JUMPI DUP5 DUP10 ADD MLOAD DUP3 SSTORE PUSH1 0x1 DUP3 ADD SWAP2 POP PUSH1 0x20 DUP6 ADD SWAP5 POP PUSH1 0x20 DUP2 ADD SWAP1 POP PUSH2 0x1B4C JUMP JUMPDEST DUP7 DUP4 LT ISZERO PUSH2 0x1B8E JUMPI DUP5 DUP10 ADD MLOAD PUSH2 0x1B8A PUSH1 0x1F DUP10 AND DUP3 PUSH2 0x1A97 JUMP JUMPDEST DUP4 SSTORE POP JUMPDEST PUSH1 0x1 PUSH1 0x2 DUP9 MUL ADD DUP9 SSTORE POP POP POP JUMPDEST POP POP POP POP POP POP JUMP JUMPDEST PUSH32 0x4E487B7100000000000000000000000000000000000000000000000000000000 PUSH1 0x0 MSTORE PUSH1 0x11 PUSH1 0x4 MSTORE PUSH1 0x24 PUSH1 0x0 REVERT JUMPDEST PUSH1 0x0 PUSH2 0x1BDD DUP3 PUSH2 0x11EF JUMP JUMPDEST SWAP2 POP PUSH32 0xFFFFFFFFFFFFFFFFFFFFFFFFFFFFFFFFFFFFFFFFFFFFFFFFFFFFFFFFFFFFFFFF DUP3 SUB PUSH2 0x1C0F JUMPI PUSH2 0x1C0E PUSH2 0x1BA3 JUMP JUMPDEST JUMPDEST PUSH1 0x1 DUP3 ADD SWAP1 POP SWAP2 SWAP1 POP JUMP JUMPDEST PUSH32 0x4572726F20494420646F2070726F6A65746F20696E76616C69646F206F752070 PUSH1 0x0 DUP3 ADD MSTORE PUSH32 0x726F6A65746F206E616F20656E636F6E747261646F0000000000000000000000 PUSH1 0x20 DUP3 ADD MSTORE POP JUMP JUMPDEST PUSH1 0x0 PUSH2 0x1C76 PUSH1 0x35 DUP4 PUSH2 0x1764 JUMP JUMPDEST SWAP2 POP PUSH2 0x1C81 DUP3 PUSH2 0x1C1A JUMP JUMPDEST PUSH1 0x40 DUP3 ADD SWAP1 POP SWAP2 SWAP1 POP JUMP JUMPDEST PUSH1 0x0 PUSH1 0x20 DUP3 ADD SWAP1 POP DUP2 DUP2 SUB PUSH1 0x0 DUP4 ADD MSTORE PUSH2 0x1CA5 DUP2 PUSH2 0x1C69 JUMP JUMPDEST SWAP1 POP SWAP2 SWAP1 POP JUMP JUMPDEST PUSH32 0x4572726F20536F6D656E7465206F20646F6E6F20646F2070726F6A65746F2070 PUSH1 0x0 DUP3 ADD MSTORE PUSH32 0x6F64652066696E616C697A6172206F2070726F6A65746F000000000000000000 PUSH1 0x20 DUP3 ADD MSTORE POP JUMP JUMPDEST PUSH1 0x0 PUSH2 0x1D08 PUSH1 0x37 DUP4 PUSH2 0x1764 JUMP JUMPDEST SWAP2 POP PUSH2 0x1D13 DUP3 PUSH2 0x1CAC JUMP JUMPDEST PUSH1 0x40 DUP3 ADD SWAP1 POP SWAP2 SWAP1 POP JUMP JUMPDEST PUSH1 0x0 PUSH1 0x20 DUP3 ADD SWAP1 POP DUP2 DUP2 SUB PUSH1 0x0 DUP4 ADD MSTORE PUSH2 0x1D37 DUP2 PUSH2 0x1CFB JUMP JUMPDEST SWAP1 POP SWAP2 SWAP1 POP JUMP JUMPDEST PUSH32 0x4572726F20457374652070726F6A65746F206A6120666F692066696E616C697A PUSH1 0x0 DUP3 ADD MSTORE PUSH32 0x61646F0000000000000000000000000000000000000000000000000000000000 PUSH1 0x20 DUP3 ADD MSTORE POP JUMP JUMPDEST PUSH1 0x0 PUSH2 0x1D9A PUSH1 0x23 DUP4 PUSH2 0x1764 JUMP JUMPDEST SWAP2 POP PUSH2 0x1DA5 DUP3 PUSH2 0x1D3E JUMP JUMPDEST PUSH1 0x40 DUP3 ADD SWAP1 POP SWAP2 SWAP1 POP JUMP JUMPDEST PUSH1 0x0 PUSH1 0x20 DUP3 ADD SWAP1 POP DUP2 DUP2 SUB PUSH1 0x0 DUP4 ADD MSTORE PUSH2 0x1DC9 DUP2 PUSH2 0x1D8D JUMP JUMPDEST SWAP1 POP SWAP2 SWAP1 POP JUMP JUMPDEST PUSH32 0x4572726F2050726F6A65746F206E616F20706F6465207365722066696E616C69 PUSH1 0x0 DUP3 ADD MSTORE PUSH32 0x7A61646F20617465207175652061206D6574612066696E616E63656972612073 PUSH1 0x20 DUP3 ADD MSTORE PUSH32 0x656A61206174696E67696461206F75206120646174612064652066696E616C69 PUSH1 0x40 DUP3 ADD MSTORE PUSH32 0x7A6163616F2073656A6120756C74726170617373616461000000000000000000 PUSH1 0x60 DUP3 ADD MSTORE POP JUMP JUMPDEST PUSH1 0x0 PUSH2 0x1E78 PUSH1 0x77 DUP4 PUSH2 0x1764 JUMP JUMPDEST SWAP2 POP PUSH2 0x1E83 DUP3 PUSH2 0x1DD0 JUMP JUMPDEST PUSH1 0x80 DUP3 ADD SWAP1 POP SWAP2 SWAP1 POP JUMP JUMPDEST PUSH1 0x0 PUSH1 0x20 DUP3 ADD SWAP1 POP DUP2 DUP2 SUB PUSH1 0x0 DUP4 ADD MSTORE PUSH2 0x1EA7 DUP2 PUSH2 0x1E6B JUMP JUMPDEST SWAP1 POP SWAP2 SWAP1 POP JUMP JUMPDEST PUSH32 0x4E487B7100000000000000000000000000000000000000000000000000000000 PUSH1 0x0 MSTORE PUSH1 0x12 PUSH1 0x4 MSTORE PUSH1 0x24 PUSH1 0x0 REVERT JUMPDEST PUSH1 0x0 PUSH2 0x1EE8 DUP3 PUSH2 0x11EF JUMP JUMPDEST SWAP2 POP PUSH2 0x1EF3 DUP4 PUSH2 0x11EF JUMP JUMPDEST SWAP3 POP DUP3 PUSH2 0x1F03 JUMPI PUSH2 0x1F02 PUSH2 0x1EAE JUMP JUMPDEST JUMPDEST DUP3 DUP3 DIV SWAP1 POP SWAP3 SWAP2 POP POP JUMP JUMPDEST PUSH1 0x0 PUSH2 0x1F19 DUP3 PUSH2 0x11EF JUMP JUMPDEST SWAP2 POP PUSH2 0x1F24 DUP4 PUSH2 0x11EF JUMP JUMPDEST SWAP3 POP DUP3 DUP3 SUB SWAP1 POP DUP2 DUP2 GT ISZERO PUSH2 0x1F3C JUMPI PUSH2 0x1F3B PUSH2 0x1BA3 JUMP JUMPDEST JUMPDEST SWAP3 SWAP2 POP POP JUMP JUMPDEST PUSH32 0x4572726F20536F6D656E7465206F20646F6E6F20646F2070726F6A65746F2070 PUSH1 0x0 DUP3 ADD MSTORE PUSH32 0x6F64652061646963696F6E6172206D6574617300000000000000000000000000 PUSH1 0x20 DUP3 ADD MSTORE POP JUMP JUMPDEST PUSH1 0x0 PUSH2 0x1F9E PUSH1 0x33 DUP4 PUSH2 0x1764 JUMP JUMPDEST SWAP2 POP PUSH2 0x1FA9 DUP3 PUSH2 0x1F42 JUMP JUMPDEST PUSH1 0x40 DUP3 ADD SWAP1 POP SWAP2 SWAP1 POP JUMP JUMPDEST PUSH1 0x0 PUSH1 0x20 DUP3 ADD SWAP1 POP DUP2 DUP2 SUB PUSH1 0x0 DUP4 ADD MSTORE PUSH2 0x1FCD DUP2 PUSH2 0x1F91 JUMP JUMPDEST SWAP1 POP SWAP2 SWAP1 POP JUMP JUMPDEST PUSH32 0x4572726F204E616F206520706F73736976656C2061646963696F6E6172206D65 PUSH1 0x0 DUP3 ADD MSTORE PUSH32 0x746173206120756D2070726F6A65746F2066696E616C697A61646F0000000000 PUSH1 0x20 DUP3 ADD MSTORE POP JUMP JUMPDEST PUSH1 0x0 PUSH2 0x2030 PUSH1 0x3B DUP4 PUSH2 0x1764 JUMP JUMPDEST SWAP2 POP PUSH2 0x203B DUP3 PUSH2 0x1FD4 JUMP JUMPDEST PUSH1 0x40 DUP3 ADD SWAP1 POP SWAP2 SWAP1 POP JUMP JUMPDEST PUSH1 0x0 PUSH1 0x20 DUP3 ADD SWAP1 POP DUP2 DUP2 SUB PUSH1 0x0 DUP4 ADD MSTORE PUSH2 0x205F DUP2 PUSH2 0x2023 JUMP JUMPDEST SWAP1 POP SWAP2 SWAP1 POP JUMP JUMPDEST PUSH32 0x4572726F204D6574617320736F20706F64656D207365722061646963696F6E61 PUSH1 0x0 DUP3 ADD MSTORE PUSH32 0x64617320612070726F6A65746F7320617469766F730000000000000000000000 PUSH1 0x20 DUP3 ADD MSTORE POP JUMP JUMPDEST PUSH1 0x0 PUSH2 0x20C2 PUSH1 0x35 DUP4 PUSH2 0x1764 JUMP JUMPDEST SWAP2 POP PUSH2 0x20CD DUP3 PUSH2 0x2066 JUMP JUMPDEST PUSH1 0x40 DUP3 ADD SWAP1 POP SWAP2 SWAP1 POP JUMP JUMPDEST PUSH1 0x0 PUSH1 0x20 DUP3 ADD SWAP1 POP DUP2 DUP2 SUB PUSH1 0x0 DUP4 ADD MSTORE PUSH2 0x20F1 DUP2 PUSH2 0x20B5 JUMP JUMPDEST SWAP1 POP SWAP2 SWAP1 POP JUMP JUMPDEST PUSH32 0x4572726F2056616C6F72206461206D657461206E616F20706F64652065786365 PUSH1 0x0 DUP3 ADD MSTORE PUSH32 0x6465722061206D6574612066696E616E636569726120746F74616C20646F2070 PUSH1 0x20 DUP3 ADD MSTORE PUSH32 0x726F6A65746F0000000000000000000000000000000000000000000000000000 PUSH1 0x40 DUP3 ADD MSTORE POP JUMP JUMPDEST PUSH1 0x0 PUSH2 0x217A PUSH1 0x46 DUP4 PUSH2 0x1764 JUMP JUMPDEST SWAP2 POP PUSH2 0x2185 DUP3 PUSH2 0x20F8 JUMP JUMPDEST PUSH1 0x60 DUP3 ADD SWAP1 POP SWAP2 SWAP1 POP JUMP JUMPDEST PUSH1 0x0 PUSH1 0x20 DUP3 ADD SWAP1 POP DUP2 DUP2 SUB PUSH1 0x0 DUP4 ADD MSTORE PUSH2 0x21A9 DUP2 PUSH2 0x216D JUMP JUMPDEST SWAP1 POP SWAP2 SWAP1 POP JUMP JUMPDEST PUSH1 0x0 PUSH2 0x21BB DUP3 PUSH2 0x11EF JUMP JUMPDEST SWAP2 POP PUSH2 0x21C6 DUP4 PUSH2 0x11EF JUMP JUMPDEST SWAP3 POP DUP3 DUP3 ADD SWAP1 POP DUP1 DUP3 GT ISZERO PUSH2 0x21DE JUMPI PUSH2 0x21DD PUSH2 0x1BA3 JUMP JUMPDEST JUMPDEST SWAP3 SWAP2 POP POP JUMP JUMPDEST PUSH32 0x4572726F204E616F20656820706F73736976656C2061706F69617220756D2070 PUSH1 0x0 DUP3 ADD MSTORE PUSH32 0x726F6A65746F2066696E616C697A61646F000000000000000000000000000000 PUSH1 0x20 DUP3 ADD MSTORE POP JUMP JUMPDEST PUSH1 0x0 PUSH2 0x2240 PUSH1 0x31 DUP4 PUSH2 0x1764 JUMP JUMPDEST SWAP2 POP PUSH2 0x224B DUP3 PUSH2 0x21E4 JUMP JUMPDEST PUSH1 0x40 DUP3 ADD SWAP1 POP SWAP2 SWAP1 POP JUMP JUMPDEST PUSH1 0x0 PUSH1 0x20 DUP3 ADD SWAP1 POP DUP2 DUP2 SUB PUSH1 0x0 DUP4 ADD MSTORE PUSH2 0x226F DUP2 PUSH2 0x2233 JUMP JUMPDEST SWAP1 POP SWAP2 SWAP1 POP JUMP JUMPDEST PUSH32 0x4572726F20536F20656820706F73736976656C2061706F6961722070726F6A65 PUSH1 0x0 DUP3 ADD MSTORE PUSH32 0x746F7320617469766F7300000000000000000000000000000000000000000000 PUSH1 0x20 DUP3 ADD MSTORE POP JUMP JUMPDEST PUSH1 0x0 PUSH2 0x22D2 PUSH1 0x2A DUP4 PUSH2 0x1764 JUMP JUMPDEST SWAP2 POP PUSH2 0x22DD DUP3 PUSH2 0x2276 JUMP JUMPDEST PUSH1 0x40 DUP3 ADD SWAP1 POP SWAP2 SWAP1 POP JUMP JUMPDEST PUSH1 0x0 PUSH1 0x20 DUP3 ADD SWAP1 POP DUP2 DUP2 SUB PUSH1 0x0 DUP4 ADD MSTORE PUSH2 0x2301 DUP2 PUSH2 0x22C5 JUMP JUMPDEST SWAP1 POP SWAP2 SWAP1 POP JUMP INVALID LOG2 PUSH5 0x6970667358 0x22 SLT KECCAK256 ISZERO CALLER DUP2 0x4D 0xB7 ORIGIN COINBASE 0xC 0x2E DUP11 SUB ISZERO 0xB2 0xAE PUSH27 0x4FE92E5015AAD38AC0896E678E81723FA64736F6C634300081600 CALLER "
				},
				"gasEstimates": {
					"creation": {
						"codeDepositCost": "1804400",
						"executionCost": "48270",
						"totalCost": "1852670"
					},
					"external": {
						"apoiar(uint256)": "infinite",
						"cadastrarMeta(uint256,string,string,uint256)": "infinite",
						"cadastrarProjeto(string,string,uint256,uint256)": "infinite",
						"detalharProjeto(uint256)": "infinite",
						"finalizarProjeto(uint256)": "infinite",
						"listarMetas(uint256)": "infinite",
						"listarProjetos()": "infinite"
					}
				},
				"methodIdentifiers": {
					"apoiar(uint256)": "ae8f2019",
					"cadastrarMeta(uint256,string,string,uint256)": "5f71abd8",
					"cadastrarProjeto(string,string,uint256,uint256)": "59d14eea",
					"detalharProjeto(uint256)": "974a90a5",
					"finalizarProjeto(uint256)": "5d950952",
					"listarMetas(uint256)": "9540642f",
					"listarProjetos()": "2ea37357"
				}
			},
			"storageLayout": {
				"storage": [
					{
						"astId": 40,
						"contract": "contracts/crowdfunding/crowdfunding.sol:Crowdfunding",
						"label": "dono",
						"offset": 0,
						"slot": "0",
						"type": "t_address"
					},
					{
						"astId": 43,
						"contract": "contracts/crowdfunding/crowdfunding.sol:Crowdfunding",
						"label": "taxa",
						"offset": 0,
						"slot": "1",
						"type": "t_uint256"
					},
					{
						"astId": 45,
						"contract": "contracts/crowdfunding/crowdfunding.sol:Crowdfunding",
						"label": "contadorProjetos",
						"offset": 0,
						"slot": "2",
						"type": "t_uint256"
					},
					{
						"astId": 50,
						"contract": "contracts/crowdfunding/crowdfunding.sol:Crowdfunding",
						"label": "projetos",
						"offset": 0,
						"slot": "3",
						"type": "t_mapping(t_uint256,t_struct(Projeto)29_storage)"
					}
				],
				"types": {
					"t_address": {
						"encoding": "inplace",
						"label": "address",
						"numberOfBytes": "20"
					},
					"t_bool": {
						"encoding": "inplace",
						"label": "bool",
						"numberOfBytes": "1"
					},
					"t_mapping(t_address,t_uint256)": {
						"encoding": "mapping",
						"key": "t_address",
						"label": "mapping(address => uint256)",
						"numberOfBytes": "32",
						"value": "t_uint256"
					},
					"t_mapping(t_uint256,t_struct(Meta)38_storage)": {
						"encoding": "mapping",
						"key": "t_uint256",
						"label": "mapping(uint256 => struct Crowdfunding.Meta)",
						"numberOfBytes": "32",
						"value": "t_struct(Meta)38_storage"
					},
					"t_mapping(t_uint256,t_struct(Projeto)29_storage)": {
						"encoding": "mapping",
						"key": "t_uint256",
						"label": "mapping(uint256 => struct Crowdfunding.Projeto)",
						"numberOfBytes": "32",
						"value": "t_struct(Projeto)29_storage"
					},
					"t_string_storage": {
						"encoding": "bytes",
						"label": "string",
						"numberOfBytes": "32"
					},
					"t_struct(Meta)38_storage": {
						"encoding": "inplace",
						"label": "struct Crowdfunding.Meta",
						"members": [
							{
								"astId": 31,
								"contract": "contracts/crowdfunding/crowdfunding.sol:Crowdfunding",
								"label": "id",
								"offset": 0,
								"slot": "0",
								"type": "t_uint256"
							},
							{
								"astId": 33,
								"contract": "contracts/crowdfunding/crowdfunding.sol:Crowdfunding",
								"label": "titulo",
								"offset": 0,
								"slot": "1",
								"type": "t_string_storage"
							},
							{
								"astId": 35,
								"contract": "contracts/crowdfunding/crowdfunding.sol:Crowdfunding",
								"label": "descricao",
								"offset": 0,
								"slot": "2",
								"type": "t_string_storage"
							},
							{
								"astId": 37,
								"contract": "contracts/crowdfunding/crowdfunding.sol:Crowdfunding",
								"label": "valorMeta",
								"offset": 0,
								"slot": "3",
								"type": "t_uint256"
							}
						],
						"numberOfBytes": "128"
					},
					"t_struct(Projeto)29_storage": {
						"encoding": "inplace",
						"label": "struct Crowdfunding.Projeto",
						"members": [
							{
								"astId": 3,
								"contract": "contracts/crowdfunding/crowdfunding.sol:Crowdfunding",
								"label": "id",
								"offset": 0,
								"slot": "0",
								"type": "t_uint256"
							},
							{
								"astId": 5,
								"contract": "contracts/crowdfunding/crowdfunding.sol:Crowdfunding",
								"label": "nome",
								"offset": 0,
								"slot": "1",
								"type": "t_string_storage"
							},
							{
								"astId": 7,
								"contract": "contracts/crowdfunding/crowdfunding.sol:Crowdfunding",
								"label": "descricao",
								"offset": 0,
								"slot": "2",
								"type": "t_string_storage"
							},
							{
								"astId": 9,
								"contract": "contracts/crowdfunding/crowdfunding.sol:Crowdfunding",
								"label": "dataFinalizacao",
								"offset": 0,
								"slot": "3",
								"type": "t_uint256"
							},
							{
								"astId": 11,
								"contract": "contracts/crowdfunding/crowdfunding.sol:Crowdfunding",
								"label": "metaFinanceira",
								"offset": 0,
								"slot": "4",
								"type": "t_uint256"
							},
							{
								"astId": 13,
								"contract": "contracts/crowdfunding/crowdfunding.sol:Crowdfunding",
								"label": "totalArrecadado",
								"offset": 0,
								"slot": "5",
								"type": "t_uint256"
							},
							{
								"astId": 15,
								"contract": "contracts/crowdfunding/crowdfunding.sol:Crowdfunding",
								"label": "status",
								"offset": 0,
								"slot": "6",
								"type": "t_bool"
							},
							{
								"astId": 17,
								"contract": "contracts/crowdfunding/crowdfunding.sol:Crowdfunding",
								"label": "donoProjeto",
								"offset": 1,
								"slot": "6",
								"type": "t_address"
							},
							{
								"astId": 21,
								"contract": "contracts/crowdfunding/crowdfunding.sol:Crowdfunding",
								"label": "apoiadores",
								"offset": 0,
								"slot": "7",
								"type": "t_mapping(t_address,t_uint256)"
							},
							{
								"astId": 23,
								"contract": "contracts/crowdfunding/crowdfunding.sol:Crowdfunding",
								"label": "contadorMetas",
								"offset": 0,
								"slot": "8",
								"type": "t_uint256"
							},
							{
								"astId": 28,
								"contract": "contracts/crowdfunding/crowdfunding.sol:Crowdfunding",
								"label": "metas",
								"offset": 0,
								"slot": "9",
								"type": "t_mapping(t_uint256,t_struct(Meta)38_storage)"
							}
						],
						"numberOfBytes": "320"
					},
					"t_uint256": {
						"encoding": "inplace",
						"label": "uint256",
						"numberOfBytes": "32"
					}
				}
			},
			"userdoc": {
				"kind": "user",
				"methods": {},
				"version": 1
			}
		}
	}
}